:020000040800F2
:1000000038D30120F1950008E1080008E308000852
:10001000E5080008E7080008E908000800000000FB
:10002000000000000000000000000000EB080008D5
:10003000ED0800080000000011D30008F993000843
:100040000B9600080B9600080B9600080B9600080C
:100050000B9600080B9600080B9600080B960008FC
:100060000B9600080B9600080B9600080B960008EC
:100070000B9600080B96000805730008DF72000855
:100080000B9600080B9600080B9600080B960008CC
:100090000B9600080B9600080B9600080B960008BC
:1000A0000B9600080B9600080B9600080B960008AC
:1000B0000B960008319300080B9600080B96000879
:1000C0000B9600080B9600080B9600080B9600088C
:1000D0000B960008819500080B9600080B96000807
:1000E0000B9600080B9600080B9600080B9600086C
:1000F0000B9600080B9600080B9600080B9600085C
:100100000B9600081F8E00080B9600080B9600083F
:100110000B9600080B9600085B9300080B960008EE
:100120000B9600080B9600080B9600080B9600082B
:100130000B9600080B9600080B9600080B9600081B
:100140000B9600080B9600080B9600080B9600080B
:100150000B9600080B9600080B9600080B960008FB
:100160000B9600080B9600080B9600080B960008EB
:100170000B9600080B9600080B9600080B960008DB
:100180000B9600080B96000800F002F800F08AF8C1
:100190000AA090E8000C82448344AAF10107DA45E2
:1001A00001D100F07FF8AFF2090EBAE80F0013F0AA
:1001B000010F18BFFB1A43F001031847008B020020
:1001C000208B02000A444FF0000C10F8013B13F0A2
:1001D000070408BF10F8014B1D1108BF10F8015BA0
:1001E000641E05D010F8016B641E01F8016BF9D193
:1001F00013F0080F1EBF10F8014BAD1C0C1B09D1EA
:100200006D1E58BF01F801CBFAD505E014F8016B5B
:1002100001F8016B6D1EF9D59142D6D370470000ED
:100220000023002400250026103A28BF78C1FBD8FF
:10023000520728BF30C148BF0B6070476E2922F0BB
:100240006D83702922F03A84692922F02B83642976
:1002500022F02883752922F025836F2922F0D0838C
:10026000782922F01E840368DB0928BF41F0800151
:10027000632923F0D680732923F0DB80E32923F060
:10028000F980002070471FB524F0E7F923F060FBE8
:1002900004000020002123F0A9FB401C60601FBD6A
:1002A00010B510BD23F02EFB1146FFF7ECFF00F058
:1002B000F1F823F051FB03B4FFF7F2FF03BC09F0A0
:1002C00005F9000030BF72B6704762B6704780F320
:1002D000088870477CB54FF6FF7000F0ACFCFB4D12
:1002E0004FF4784010242880F9A0CDE9004023463F
:1002F000C8220A211E2005F0BDF8F9A0CDE9004072
:100300001E211023C822084605F0B4F8F8A0CDE954
:1003100000401023C82232211E2005F0ABF8F8A0BF
:10032000CDE900401023C8224B211E2005F0A2F881
:10033000F9A0CDE900401023C8225F211E2005F05E
:1003400099F8FBA0CDE900401023C822D22150200B
:1003500005F090F8F94E782319463288002004F011
:10036000EBFE462332881946002004F0E5FE962273
:1003700046230021104604F0DFFE1F202880F0A055
:10038000CDE900401023C8221E21A02005F072F8FC
:10039000EEA0CDE900401023C8223221A02005F0B4
:1003A00069F87CBD0EB54FF47849EA4FC74D012678
:1003B00010244FF01F084FF4967A00F0C2FDA5F804
:1003C0000090E5A08DE85100142110237822084602
:1003D00010F0A0FEE3A08DE8510010237822142134
:1003E000872010F097FE002006F083F998B3B889B3
:1003F00001461538312815D2F88A282812D96428E0
:1004000010D2A5F80080D4A08DE85100142110234B
:100410007822084610F07EFE504609F035F811F0BB
:10042000FCFACAE78839542916D2F88A282813D941
:10043000462811D2A5F80080CAA08DE851001023EB
:1004400078221421872010F065FE504609F01CF830
:100450000DF068FDB1E7FFE7012009F015F8C2E7EC
:1004600010B500200BF02AFFC14908600BF099FA83
:100470000CF026FF0423BF4A04460021AFF2DB0044
:100480000CF0AEFB0A200CF0BEFD2046BDE810408B
:100490000CF01ABF7CB54FF4A065284609F0C8F8E7
:1004A000A82008F0B7FF4FF4E13009F017F800F08A
:1004B000DDFA05F013F801F08FFAA64800688047CE
:1004C00000200DF019F802200DF016F80DF0E8F8F4
:1004D000A94C0122A9A120680EF096FE0122A8A134
:1004E00060680EF091FE284609F0A2F800F0BEFA0E
:1004F00001F072FA04F0F2FF06F0E3FF08F060FD8D
:100500000021012008F0DAFD00221146104608F013
:1005100017FE0021012008F03BFE1921084608F0D3
:100520005CFE3C2008F06CFE42F2CF0142F20F70FC
:1005300008F0D2FE00200CF0DFFF02200CF0DCFF00
:100540000DF0AEF801228DA120680EF05DFE5F492E
:100550004FF478408B4C088010254FF6FF761BE057
:1005600089A0CDE900501023C82232211E2004F0BA
:1005700081FFC82008F088FF4223F02232211E208C
:10058000009600F08CFBC82008F07EFFD4F8A4028F
:1005900098B10020C4F8A40210F0C6FC0028DFD1F6
:1005A0000BF0FAF80A237B4A0021AFF24B100CF053
:1005B00017FB0BF0E3F900207CBD0120EAE708B54A
:1005C000002A06D00244521E009392B20B4600F05D
:1005D00066FB08BD2DE9FF5F80460E4640F2C32052
:1005E00050434FF47A71B0FBF1F702FB02F000EBDD
:1005F000520B14464FF6FF7000EA4202A8EB0400CB
:1006000080B231467F1C039BFFF7D9FF012538E0FC
:1006100005FB05F004FB040159451BD9BC4218D960
:100620006800A0F10209301981B2A8EB050000F1C1
:10063000010A1FFA89F21FFA8AF0039BFFF7BFFF36
:10064000301B81B21FFA89F21FFA8AF0039BFFF771
:10065000B6FF641E4FF6FF7000EA4402701981B2C3
:10066000A8EB040A91461FFA8AF0039BFFF7A7FF45
:10067000701B81B24A461FFA8AF0039BFFF79FFF67
:100680006D1CBD42C4D9BDE8FF9F884201D9401A04
:1006900000E0081A80B270472DE9FE4F00260C9C3E
:1006A0003546A04211D3A2420FD3A1420DD3A3429B
:1006B0000BD3A2EB000882465F1A701E8946B8F180
:1006C000000F6ADD4FF001016AE0A1E01800002090
:1006D0004578706C6F7265722053544D3332000050
:1006E00055434F53494920544553543200000000AC
:1006F00041544F4D40414C49454E54454B0000003C
:100700004B4559303A445331204B45595F55503A87
:1007100041444A55535400004B4559313A424545EE
:100720005020204B4559323A434C4541520000007D
:10073000546F75636820417265610000BC0400203D
:100740004350553A202020250000000053454D3AE3
:100750003030300024000020CAD3C6B5B2A5B7C5DA
:10076000C6F70000CEC4BCFEB2E9BFB4C6F70000B5
:1007700000000020B8040020E0CB0120303A000047
:10078000313A000000804242466F6E74204572721A
:100790006F722100B8020020FFE703D14FF0000183
:1007A000019102E0C8F100080190002F02DD4FF036
:1007B000010002E003D14FF00000009002E0C7F119
:1007C000000700904046B84501DD044600E03C4685
:1007D000601C4FF0000B029017E0DDE90C231FFABC
:1007E00089F11FFA8AF0FFF7F5FE46443D44A64220
:1007F00002DD0199361B8A44A54202DD00992D1BBA
:1008000089440BF101001FFA80FB02998B45E4DD5E
:10081000BDE8FE8F01262E4D0027641CE4B20A209D
:1008200008F032FE082C05D0642CF6D10024C5F85F
:10083000A472F2E7C5F8A462EFE71CB5DFF8948074
:10084000254D4FF6FF7600206968884795F820000F
:1008500000062AD5A989B8F800008142F3D2E88AB7
:10086000B8F802209042EED27828ECD9A2B2B24277
:1008700003D161F30F0460F31F440CF021FD074620
:100880004FF478410220CDE90001EB8AAA89210CBE
:10089000A0B2FFF701FF38460CF016FDA88960F3FF
:1008A0000F04E88A60F31F44CDE766F30F040A20C3
:1008B00008F0EAFDC7E7094C002004F02CFE010017
:1008C00002D020680BF003FE0A2008F0DDFDF3E7FC
:1008D00000804242BC0400202400002000000020D0
:1008E0007047FEE7FEE7FEE7FEE77047704700004F
:1008F0000CB50022544900920192086840F48030FF
:1009000008604FF4A043086800F40030019000989C
:10091000401C0090019810B900989842F3D10868E3
:10092000800334D50120019047484030026842F0EE
:10093000805202604548026842F4404202604248E8
:10094000083002680260026842F4004202600268F5
:1009500042F4A0520260031F3D4A1A600A6842F046
:1009600080720A600A689201FCD53A4940F2057229
:100970000A60016821F003010160016841F0020191
:1009800001600168C1F381010229FAD10CBD019215
:100990000CBD314810B5016841F4700101602A486E
:1009A000016841F001010160274A0021083211600D
:1009B00002682A4B1A400260031D294A1A60026825
:1009C00022F48022026020480C300160FFF790FF83
:1009D00021494FF000608039086010BD70B51A4D94
:1009E000083528681F4B204910F00C0004D05E1019
:1009F000042803D0082803D00B601BE00E6019E028
:100A0000114A121D1068C0F38054106800F03F00B6
:100A100014B1B6FBF0F001E0B3FBF0F0136812681C
:100A2000C3F388135843C2F30142521C5200B0FB77
:100A3000F2F0086028680C4AC0F30310121D105C25
:100A40000A68C2400A6070BD003802400070004071
:100A500008544007003C024088ED00E0FFFFF6FE2E
:100A6000103000240024F400040000207CB5012193
:100A7000202009F0C8FA01208DF8040000228DF82A
:100A8000062003218DF80510074D4FF4C0648DF842
:100A9000070000946946284608F08EFE2146284645
:100AA00008F0EFFE7CBD000000140240F8484FF053
:100AB000D8410089A1F87E0070474FF0D84222F853
:100AC0007E0F5180704701B5BDF80000ADF8000001
:100AD000BDF800004FF0D841A1F8800008BD01B575
:100AE000BDF80000ADF80000BDF800004FF0D8419F
:100AF000A1F87E0008BDF0B5E54E0C460246050A99
:100B0000B1883046A1F5134340894FEA142C413B8C
:100B10001AD0A1F5A643103B16D0B646B379368855
:100B2000A1F5D047B61A761E043F17D07746A1F537
:100B3000C85EBEF1630E25D0A1F5A04EBEF5A26E33
:100B400057D0012B6ED06EE0FFF7C9FF2846FFF7A4
:100B5000BAFFD0B2FFF7B7FFB0890CE07546012BA2
:100B600000D1B2B2FFF7BBFF100AFFF7ACFFD0B263
:100B7000FFF7A9FFA889FFF7B2FF6046FFF7A3FFC1
:100B8000E0B225E03BB3FFF7AAFF2846FFF79BFF43
:100B9000D0B2FFF798FF3888401EC0F30F20FFF750
:100BA00092FF3878401EC0B2FFF78DFFB889FFF77B
:100BB00096FF6046FFF787FFE0B2FFF784FF788873
:100BC000401EC0F30F20FFF77EFFB878401EC0B272
:100BD000BDE8F04077E7B2B2FFF781FF0020FFF7F2
:100BE00072FF0020FFF76FFF100AFFF76CFFD0B213
:100BF000DAE7FFF774FF2846FFF765FF7889401CA6
:100C000080B2FFF76CFFD0B2FFF75DFFB889FFF746
:100C100066FF6046FFF757FFB889401C80B2FFF7B8
:100C20005EFFADE7B2B21146FFF747FFB889214634
:100C3000BDE8F04041E72DE9F043954F064600241A
:100C400038887D884543B888A0F5D041043902D161
:100C5000B879012808D000210846FFF74CFFFFF7BC
:100C600025FF4FF0D84016E00020B8714FF02A0958
:100C7000A7F80A904FF02B08A7F80C800146FFF761
:100C80003AFF0120B871A7F80A80A7F80C90E6E7B0
:100C9000A0F88060641CAC42FAD3BDE8F0832DE973
:100CA000F8437B4D1F468046AB88089EA3F5D04095
:100CB000043802D1A879012807D0A2EB0800401C13
:100CC00085B20C464FF0D84929E02B880846991A7E
:100CD0000024AC713A462A24A3EB08036C812B272D
:100CE000491E5B1EAF8189B29BB20096FFF7D7FF0A
:100CF0000120A8716F81AC81BDE8F8832146404690
:100D0000FFF7F9FEFFF7D2FE0020494603E0A1F805
:100D10008060401C80B2A842F9D3641CA4B2BC42DB
:100D2000ECD9E9E72DE9FF5F202100200CF08AFCD7
:100D30000446242100200CF085FC56A103900EF0FF
:100D4000F8FD002710254FF6FF7816E054A08DE837
:100D5000A1001023F022AA211E2010F0DBF9C820E8
:100D600008F092FBBA23F022AA211E20CDF80080C1
:100D7000FFF795FFC82008F087FB46A103980EF007
:100D8000D8FD0028E2D140F2FF11E1610CF05AFCDD
:100D9000A0610020E1690CF055FC83460C21002085
:100DA0000CF050FCB9460646474615E041A18DE8D7
:100DB00022021023F022AA211E2010F0ABF9C82035
:100DC00008F062FBBA23F022AA211E200097FFF749
:100DD00066FFC82008F058FBA0690028E6D0BBF1E8
:100DE000000FE3D0002EE1D02AA103980EF0A1FD60
:100DF000D0B900254FF0050904F1090803982146F0
:100E0000C7880EF0DFFD78B9607A68B1A069017813
:100E100001B940460CF079FCB9EB101FEED126F871
:100E200015706D1CADB2E9E720F0B7FC012519A1E2
:100E300003980EF07EFD804601274FF0300963E0F5
:100E400036F8151003980DF00AFC214603980EF0B1
:100E5000B9FD8046A069017809B904F1090082460C
:100E600018A1584622F02CF85146584622F06BF84B
:100E7000052D41D2DFE805F0032C323639004FF45E
:100E8000A070CDE90007F02300221146584622E069
:100E9000BC040020303A2F504943545552450000BD
:100EA00050494354555245CEC4BCFEBCD0B4EDCEDF
:100EB000F3210000C4DAB4E6B7D6C5E4CAA7B0DCB3
:100EC00021000000303A2F504943545552452F001D
:100ED00030238C2204E020F0F2FC11E03023F022D9
:100EE000232105E030238C2201E03023F0228721EA
:100EF000CDE900975846EEE740F2FF70FFF79BFE02
:100F00006D1CADB2052D02D2B8F1000F98D0039838
:100F10000EF04FFD002003990CF08BFB0020A1691F
:100F20000CF087FB214600200CF083FB5946002083
:100F30000CF07FFB04B03146BDE8F05F00200CF000
:100F400078BB2DE9FF5F202100200CF07BFB0446DD
:100F5000242100200CF076FBFAA103900EF0E9FCAE
:100F6000002710254FF6FF7816E0F9A08DE8A100C4
:100F70001023F022AA211E2010F0CCF8C82008F07F
:100F800083FABA23F022AA211E20CDF80080FFF7B1
:100F900086FEC82008F078FAEAA103980EF0C9FC92
:100FA0000028E2D140F2FF11E1610CF04BFBA0619F
:100FB0000020E1690CF046FB8346062100200CF07E
:100FC00041FBB9460646474616E0AFF218118DE8D8
:100FD00022021023F022AA211E2010F09BF8C82024
:100FE00008F052FABA23F022AA211E200097FFF738
:100FF00056FEC82008F048FAA0690028E5D0BBF1E9
:10100000000FE2D0002EE0D0CEA103980EF091FCAC
:10101000D0B900254FF0050904F1090803982146CD
:10102000C7880EF0CFFC78B9607A68B1A069017802
:1010300001B940460CF069FBB9EB101FEED126F860
:1010400015706D1CADB2E9E720F0A7FB0025BDA12E
:1010500003980EF06EFC07464FF001094FF0300A7E
:1010600030E036F8151003980DF0F9FA2146039890
:101070000EF0A8FC0746A069017809B904F109003F
:101080008046B8A1584621F01BFF4146584621F042
:101090005AFF25B1012D0BD0022D0FD12EE04FF4B8
:1010A000A071CDE90019F02300221146584603E053
:1010B00030232822232124E020F001FC6D1CADB256
:1010C000032D01D2002FCCD003980EF072FC00202B
:1010D00003990CF0AEFA0020A1690CF0AAFA21469F
:1010E00000200CF0A6FA594600200CF0A2FA04B039
:1010F0003146BDE8F05F00200CF09BBA3023282277
:101100009621CDE900A95846D6E770B592B00146C0
:10111000002408A80EF00DFC054640F2FF11002047
:1011200007910CF08FFA0690CDB9C0B105260DF1EC
:101130000905694608A80EF045FC80B99DF809002C
:1011400068B10698007808B1069800E028460CF0CF
:10115000DCFAB6EB101FECD1641CA4B2E9E712B0C4
:10116000204670BD08B54FF0D840B0F88000ADF80B
:101170000000BDF8000008BD10B5FFF7B0FC052069
:1011800008F063F9BDE81040ECE74FF0D841A1F852
:1011900080007047C0F34511C20AC00200EB411045
:1011A000104480B27047401EC0B2FCD270472DE997
:1011B000F0416F4E002425463288824202D972885F
:1011C0008A4202D80020BDE8F081FFF794FCB08885
:1011D00049F2413841F6631C45F2103245F210578E
:1011E000404507D0A0F5D041043903D0904201D04A
:1011F000604501D12E2005E0B84202D14FF43850AD
:1012000000E02220FFF76BFCB088A0F513412039E5
:1012100003D10220401EC0B2FCD2FFF7A3FFB18869
:101220006145D0D00220401EC0B2FCD2FFF79AFF29
:101230000146B088C446604503D0904201D0B84210
:101240000BD10220401EC0B2FCD2FFF78BFF054637
:10125000C8B24FF6FF7303EA0024B088A0F5134329
:10126000253B1AD0A0F58A43353B16D01B1D14D060
:10127000A0F53543053B10D0B3F580530DD0604544
:1012800003D0904201D0B84209D1C80AC002A10AD5
:1012900040EA411040EAD52095E7084693E7BDE8CB
:1012A000F041084676E732488088A0F5134141397D
:1012B00014D0A0F5D041043910D0A0F5A6411039C2
:1012C0000CD0A0F5C851633908D0A0F5AA41103957
:1012D00006D040F273110720FFF7EFBB292001E091
:1012E0004FF42450FFF7FBBB21488088A0F5134141
:1012F000413913D0A0F5D04104390FD0A0F5A64153
:1013000010390BD0A0F5C851633907D0A0F5AA4118
:10131000103905D000210720FFF7CFBB282001E0BE
:101320004FF42050FFF7DBBBF0B5114C00232146F2
:10133000A279898846F6040741F66315012A19D077
:10134000EAB135E0303A2F41505049434F4E00004A
:1013500041505049434F4ECEC4BCFEBCD0B4EDCE3C
:10136000F3210000303A2F41505049434F4E2F0097
:10137000BC040020B9421BD0A94202D118E0A94206
:1013800016D1082814D2DFE800F00406080A0C0E73
:10139000101206200CE007200AE0042008E00520D7
:1013A00006E0012004E0002002E0032000E002202B
:1013B000A1F5134C45F2103245F21056BCF1410C28
:1013C00007D0B94205D0914203D0B14201D0A94221
:1013D0007BD1082812D2DFE800F0110406080A0CBD
:1013E0000E1080230AE0402308E0C02306E02023FB
:1013F00004E0602302E0A02300E0E023B14202D138
:101400004FF4585000E03620914205D0B14203D04D
:10141000A94201D043F00803B94201D143F00203CD
:101420001946FFF74AFBA288AA420AD098062088EC
:10143000618802D5884202D303E0884201D9218025
:1014400060806089B24241D1FFF749FB0020FFF77D
:101450003AFB6089401C80B2FFF741FB0020FFF798
:1014600032FB6089801C80B2FFF739FB2088401E68
:10147000C0F30F20FFF727FB6089C01C80B2FFF785
:101480002EFB2078401EC0B2FFF71DFBA089FFF79E
:1014900026FB0020FFF717FBA089401C80B2FFF756
:1014A0001EFB0020FFF70FFBA089801C80B2FFF716
:1014B00016FB6088401EC0F30F20FFF704FBA089D5
:1014C000C01C80B2FFF70BFB22E028E0FFF707FB10
:1014D0000020FFF7F8FA0020FFF7F5FA2088401EF9
:1014E000C0F30F20FFF7EFFA2078401EC0B2FFF7DD
:1014F000EAFAA089FFF7F3FA0020FFF7E4FA0020E8
:10150000FFF7E1FA6088401EC0F30F20FFF7DBFA17
:10151000A078BDE8F040401EC0B2FFF7D4BA08285A
:1015200012D2DFE800F0040608110A0C0E10302376
:101530000AE0102308E0202306E0382304E02823F3
:1015400002E0182300E00823BDE8F040032043F444
:101550008051FFF7B2BA00B5FFF7CDFAFFF7A6FA50
:10156000FE484FF0D8410088A1F8800000BD2DE969
:10157000F041FB4D90460C460246060AA9882846D3
:10158000A1F5134340894FEA142C413B16D0A1F535
:10159000A643103B12D0B3F5007313D02E46A1F52D
:1015A000C857B3793688B61A761E633F23D0A1F5A3
:1015B000D047043F3AD0012B4DD04DE0FFF78FFAD2
:1015C000304639E0FFF78BFA3046FFF77CFA68893E
:1015D000401C80B2FFF783FAD0B2FFF774FAA889F3
:1015E000FFF77DFA6046FFF76EFAA889401C80B2CB
:1015F000FFF775FA2BE003B9B2B2FFF770FA160ADB
:101600003046FFF760FAD0B2FFF75DFA3046FFF7D9
:101610005AFAD0B2FFF757FAA889FFF760FA604686
:10162000FFF751FAE0B2FFF74EFA0DE0012B00D1BF
:10163000B2B2FFF754FA100AFFF745FAD0B2FFF73B
:1016400042FAA889FFF74BFA6046FFF73CFAE0B28E
:10165000FFF739FA07E0B2B21146FFF72EFAA88970
:101660002146FFF72AFA4FF0D840298920F87E1F3B
:10167000A0F80280A7E510B50246BE20FFF72FFABA
:101680000520FFF720FA104622F031FC9FEDB51B34
:1016900053EC112B22F07AFC22F0FCFB80B2FFF716
:1016A00012FA0120FFF70FFAFF20FFF70CFA0020D3
:1016B000FFF709FABDE810400020FFF704BA2DE952
:1016C000F04FA7492A232B24898845F2105A4FF45A
:1016D000305B4FF4285E4FF448754FF0F00C49F240
:1016E00041394FF4A07745F210364FF4F07280B1D3
:1016F0009B484FF00108494580F806800780A0F814
:1017000002C001D0B1423ED12C25058143818481A4
:1017100057E093484FF00008494580F80680A0F84C
:1017200000C0478006D0A1F5D04CBCF1040C01D01C
:10173000B1420CD12C2505814381A1F5D043848190
:10174000043B01D0B14244D10780428041E0514581
:1017500007D1A0F808B0A0F80AE04FF42C5181811D
:101760000EE0A1F5C856633E06D02221018120215A
:101770004181212181812CE02C21018144818381BF
:101780000280458025E0A1F5D04CBCF1040C09D0C5
:1017900051450BD1A0F808B0A0F80AE04FF42C5343
:1017A000838120E02C250581448109E0A1F5C85CF6
:1017B000BCF1630C11D02223038121234381202318
:1017C0008381A1F5D043043B01D0B14201D1028015
:1017D0004780BDE8F04F0020A6E54FF02C0CA0F8A4
:1017E00008C04381848105804280EAE72DE9FE4FED
:1017F0000446104401EB0308DFF86491401EA8F191
:10180000010887B2B9F80400C8F3072302930B0A52
:101810000093A3185B1EC3F3072301934B460D46A9
:101820005B89A0F513411FFA88F64FEA142B413962
:1018300010D0A0F5A64110390CD0A0F5D041043944
:1018400008D099F806A041F6631CBAF1010F1ED129
:1018500060451CD14A461846FFF741F95846FFF744
:1018600032F9E0B2FFF72FF90198FFF72CF9F8B23F
:10187000FFF729F99089FFF732F90098FFF723F96C
:10188000E8B2FFF720F90298FFF71DF996E0344916
:101890006045098825D1881A001B84B24E461FFA7C
:1018A00088F71846FFF71BF9200AFFF70CF9E0B29A
:1018B000FFF709F92244521EC2F30F20FFF703F984
:1018C000D0B2FFF700F9B089FFF709F90098FFF7E8
:1018D000FAF8E8B2FFF7F7F8380AFFF7F4F8F8B2C9
:1018E0006DE0A0F5A04C4A46BCF5A26C23D0BAF13D
:1018F000010F68D03B4620462F46502201464FF04C
:1019000051094FF052084FF0530C1046FFF7D5F82D
:1019100019464846FFF7D1F839464046FFF7CDF85B
:1019200031466046FFF7C9F803B029462046BDE8B6
:10193000F04FFFF7E0B81846FFF7D1F85846FFF729
:10194000C2F85089401C80B2FFF7C9F8E0B2FFF737
:10195000BAF85089801C80B208E00000180000200E
:10196000BC0400206666666666660440FFF7B7F84A
:101970000198FFF7A8F85089C01C80B2FFF7AFF8B4
:10198000F8B2FFF7A0F89089FFF7A9F80098FFF7E1
:101990009AF89089401C80B2FFF7A1F8E8B2FFF7EF
:1019A00092F89089801C80B2FFF799F80298FFF7AF
:1019B0008AF89089C01C80B2FFF791F8F0B2BDE8B8
:1019C000FE4FFFF780B8CA1B521E091B3346491E43
:1019D000284697B28EB290E72DE9F04FA1B00024CF
:1019E00001217A201F9408F00EFB0121084608F01F
:1019F0001EFB01208DF804008DF8064002208DF8B2
:101A0000050001204FF4004B8DF80700CDF800B021
:101A10006946FE4807F0D0FE4CF233700090022079
:101A20008DF804008DF8064003208DF80500012094
:101A30008DF807006946F64807F0BEFE4FF6807045
:101A4000009002208DF804008DF8064003208DF8E8
:101A500005000120EF4D8DF807006946284607F084
:101A6000ABFEA814009002208DF804008DF806400B
:101A700003208DF805000120E74E8DF80700694628
:101A8000304607F099FEA814009002208DF804005B
:101A90008DF8064003208DF805000120DF4F8DF8FA
:101AA00007006946384607F087FE0C220021D84817
:101AB00007F0F6FE0C220121D54807F0F1FE0C22BA
:101AC0000421D34807F0ECFE0C220521D04807F092
:101AD000E7FE0C220821CE4807F0E2FE0C22092185
:101AE000CB4807F0DDFE0C220A21C94807F0D8FEDA
:101AF0000C220E21C64807F0D3FE0C220F21C44849
:101B000007F0CEFE0C220721284607F0C9FE0C2262
:101B10000821284607F0C4FE0C220921284607F0B8
:101B2000BFFE0C220A21284607F0BAFE0C220B2128
:101B3000284607F0B5FE0C221146284607F0B0FEF5
:101B40000C220D21284607F0ABFE0C220E21284660
:101B500007F0A6FE0C220F21284607F0A1FE0C225A
:101B60001146304607F09CFE0C221146384607F01D
:101B700097FE0F20CDE911043C20CDE91304159404
:101B800009201694CDE917400820CDE919401B948F
:101B90001C940620CDE902041D941E941020CDE96A
:101BA000044006940002CDE90A400894079480009E
:101BB000CDE90C40099411A8CDE90E4018A8109069
:101BC00002A807F0A6FE0121062007F01BFF322025
:101BD00007F05AFC01210020FEF76FFF322007F0CA
:101BE00053FC0020FFF7C8FA8D4A4FF020494FF60A
:101BF000FF7A908049F2413545F2103645F2105493
:101C000041F6631846F60407FF2804D3504502D076
:101C1000B0F5134F75D1D320FEF761FFFFF7A2FA9D
:101C20009080FFF79FFA9080FFF79CFA0AEA002065
:101C3000D4469080FFF796FA918808439080A84296
:101C40005FD0BF20FEF74BFFFFF78CFA9080FFF7C5
:101C500089FA9080FFF786FA9080FFF783FA0CEA02
:101C600000209080FFF77EFA918808439080B84268
:101C700047D0D420FEF733FFFFF774FA9080FFF7C8
:101C800071FA9080FFF76EFA0CEA00209080FFF75F
:101C900069FA918808439080B04232D04FF45A409C
:101CA000FEF71DFFFFF75EFA90804FF45B40FEF7F2
:101CB00016FFFFF757FA0CEA002090804FF45C40C3
:101CC000FEF70DFFFFF74EFA9188084390805845C4
:101CD00001D194801EE0A04213D0A120FEF7FFFEA8
:101CE000FFF740FA9080FFF73DFA0CEA0020908061
:101CF000FFF738FA91880843A0F5AE41908061392A
:101D000020D080B2A84205D0B04203D0A04201D07A
:101D100040451AD1D9F81C11484621F00F01C9F8E5
:101D20001C11D9F81C1121F47061C9F81C11D9F8E3
:101D30001C1141F00301C9F81C11D9F81C1141F420
:101D400000711FE0A2F80480E4E7B84203D0A0F5D8
:101D50004541053918D1D9F81C11484621F00F0129
:101D6000C9F81C11D9F81C1121F47061C9F81C11B3
:101D7000D9F81C1141F00A01C9F81C11D9F81C113D
:101D800041F44061C0F81C119146918825A020F0D3
:101D900007FDB9F80400A8427DD1CF20FEF79FFED1
:101DA0000020FEF790FEC120FEF78DFE3020FEF7EA
:101DB0008AFEED20FEF793FE6420FEF784FE0320EA
:101DC000FEF781FE1220FEF77EFE8120FEF77BFEED
:101DD000E820FEF784FE8520FEF775FE1020FEF752
:101DE00072FE7A20FEF76FFECB20FEF778FE3920D8
:101DF000FEF769FE2C20FEF766FE0020FEF763FE6C
:101E00003420FEF760FE022014E0000000040240CF
:101E1000000C024000100240001402400018024072
:101E2000BC040020204C43442049443A25780D0A44
:101E300000000000FEF747FEF720FEF750FE2020CE
:101E4000FEF741FEEA20FEF74AFE0020FEF73BFEC9
:101E50000020FEF738FEC020FEF741FE1B20FEF7F3
:101E600032FEC120FEF73BFE0120FEF72CFEC5200E
:101E7000FEF735FE3020FEF726FE3020FEF723FE6B
:101E8000C720FEF72CFEB720FEF71DFE3620FEF71A
:101E900026FE482000E0A7E0FEF715FE3A20FEF7F8
:101EA0001EFE5520FEF70FFEB120FEF718FE0020A3
:101EB000FEF709FE1A20FEF706FEB620FEF70FFE1B
:101EC0000A20FEF700FEA220FEF7FDFDF220FEF73D
:101ED00006FE0020FEF7F7FD2620FEF700FE01209B
:101EE000FEF7F1FDE020FEF7FAFD0F20FEF7EBFD17
:101EF0002A20FEF7E8FD2820FEF7E5FD0820FEF782
:101F0000E2FD0E20FEF7DFFD0820FEF7DCFD542089
:101F1000FEF7D9FDA920FEF7D6FD4320FEF7D3FD3D
:101F20000A20FEF7D0FD0F20FEF7CDFD0020FEF7C2
:101F3000CAFD0020FEF7C7FD0020FEF7C4FD00200B
:101F4000FEF7C1FDE120FEF7CAFD0020FEF7BBFD54
:101F50001520FEF7B8FD1720FEF7B5FD0720FEF7A8
:101F6000B2FD1120FEF7AFFD0620FEF7ACFD2B20E1
:101F7000FEF7A9FD5620FEF7A6FD3C20FEF7A3FDC7
:101F80000520FEF7A0FD1020FEF79DFD0F20FEF7B7
:101F90009AFD3F20FEF797FD3F20FEF794FD0F20AE
:101FA000FEF791FD2B20FEF79AFD0020FEF78BFD3A
:101FB0000020FEF788FD0120FEF785FD3F20FEF79B
:101FC00082FD2A20FEF78BFD0020FEF77CFD00201D
:101FD000FEF779FD0020FEF776FDEF20FEF773FD9A
:101FE0001120FEF77CFDA5E0B8427CD11120FEF760
:101FF00076FD142007F048FAD020FEF770FD072088
:10200000FEF761FD4220FEF75EFD1D20FEF75BFD41
:10201000D120FEF764FD0020FEF755FD1A20FEF7E3
:1020200052FD0920FEF74FFDD220FEF758FD01209A
:10203000FEF749FD2220FEF746FDC020FEF74FFDCA
:102040001020FEF740FD3B20FEF73DFD0020FEF78F
:102050003AFD0220FEF737FD1120FEF734FDC520C2
:10206000FEF73DFD0320FEF72EFDC820FEF737FDED
:102070000020FEF728FD2520FEF725FD2120FEF794
:1020800022FD0520FEF71FFD0020FEF71CFD0A20A3
:10209000FEF719FD6520FEF716FD2520FEF713FD5E
:1020A0007720FEF710FD5020FEF70DFD0F20FEF704
:1020B0000AFD0020FEF707FDF820FEF710FD0120C5
:1020C000FEF701FDFE20FEF70AFD0020FEF7FBFCF7
:1020D0000220FEF7F8FC2020FEF701FD3620FEF777
:1020E000FEFC082000E02BE0FEF7EDFC3A20FEF7B6
:1020F000F6FC5520FEF7E7FC2B20FEF7F0FC002055
:10210000FEF7E1FC0020FEF7DEFC0120FEF7DBFC21
:102110003F20FEF7D8FC2A20FEF7E1FC0020FEF766
:10212000D2FC0020FEF7CFFC0120FEF7CCFCDF2024
:10213000FEF7C9FC782007F0A7F9292001F0FBBEC3
:10214000B0427CD1ED20FEF7CAFC0120FEF7BBFCBB
:10215000FE20FEF7B8FCEE20FEF7C1FCDE20FEF705
:10216000B2FC2120FEF7AFFCF120FEF7B8FC012005
:10217000FEF7A9FCDF20FEF7B2FC1020FEF7A3FC5F
:10218000C420FEF7ACFC8F20FEF79DFCC620FEF7B6
:10219000A6FC0020FEF797FCE220FEF794FCE2206C
:1021A000FEF791FCE220FEF78EFCBF20FEF797FCC5
:1021B000AA20FEF788FCB020FEF791FC0D20FEF768
:1021C00082FC0020FEF77FFC0D20FEF77CFC002047
:1021D000FEF779FC1120FEF776FC0020FEF773FC79
:1021E0001920FEF770FC0020FEF76DFC2120FEF7A1
:1021F0006AFC0020FEF767FC2D20FEF764FC00203F
:10220000FEF761FC3D20FEF75EFC0020FEF75BFC64
:102210005D20FEF758FC0020FEF755FC5D20FEF720
:1022200052FC0020FEF74FFCB120FEF758FC802046
:10223000FEF749FC0020FEF746FC8B2000E0FCE3A3
:10224000FEF741FC0020FEF73EFC9620FEF73BFC2B
:102250000020FEF738FCB220FEF741FC0020FEF71C
:1022600032FC0020FEF72FFC0220FEF72CFC0020A1
:10227000FEF729FC0320FEF726FC0020FEF723FCD6
:10228000B320FEF72CFC0020FEF71DFC0020FEF71B
:102290001AFC0020FEF717FC0020FEF714FC0020BB
:1022A000FEF711FC0020FEF70EFC0020FEF70BFCF1
:1022B0000020FEF708FC0020FEF705FC0020FEF7DA
:1022C00002FC0020FEF7FFFB0020FEF7FCFB0020D5
:1022D000FEF7F9FB0020FEF7F6FB0020FEF7F3FB0C
:1022E0000020FEF7F0FB0020FEF7EDFB0020FEF7DC
:1022F000EAFB0020FEF7E7FB0020FEF7E4FB0020EE
:10230000FEF7E1FB0020FEF7DEFB0020FEF7DBFB23
:102310000020FEF7D8FBB420FEF7E1FB8B20FEF790
:10232000D2FB0020FEF7CFFB9620FEF7CCFB00206F
:10233000FEF7C9FBA120FEF7C6FB0020FEF7C3FB9A
:10234000B520FEF7CCFB0220FEF7BDFB0020FEF718
:10235000BAFB0320FEF7B7FB0020FEF7B4FB042016
:10236000FEF7B1FB0020FEF7AEFBB620FEF7B7FB91
:102370000020FEF7A8FB0020FEF7A5FBB720FEF724
:10238000AEFB0020FEF79FFB0020FEF79CFB3F20EA
:10239000FEF799FB0020FEF796FB5E20FEF793FB0D
:1023A0000020FEF790FB6420FEF78DFB0020FEF777
:1023B0008AFB8C20FEF787FB0020FEF784FBAC2015
:1023C000FEF781FB0020FEF77EFBDC20FEF77BFBA7
:1023D0000020FEF778FB7020FEF775FB0020FEF76B
:1023E00072FB9020FEF76FFB0020FEF76CFBEB20EA
:1023F000FEF769FB0020FEF766FBDC20FEF763FBBF
:102400000020FEF760FBB820FEF769FB0020FEF716
:102410005AFB0020FEF757FB0020FEF754FB00207C
:10242000FEF751FB0020FEF74EFB0020FEF74BFBB2
:102430000020FEF748FB0020FEF745FBBA20FEF720
:102440004EFB2420FEF73FFB0020FEF73CFB002064
:10245000FEF739FB0020FEF736FBC120FEF73FFBFD
:102460002020FEF730FB0020FEF72DFB5420FEF766
:102470002AFB0020FEF727FBFF20FEF724FB0020AD
:10248000FEF721FBC220FEF72AFB0A20FEF71BFB0A
:102490000020FEF718FB0420FEF715FB0020FEF7D6
:1024A00012FBC320FEF71BFB3C20FEF70CFB0020B9
:1024B000FEF709FB3A20FEF706FB0020FEF703FBC0
:1024C0003920FEF700FB0020FEF7FDFA3720FEF76B
:1024D000FAFA0020FEF7F7FA3C20FEF7F4FA0020A3
:1024E000FEF7F1FA3620FEF7EEFA0020FEF7EBFADF
:1024F0003220FEF7E8FA0020FEF7E5FA2F20FEF77B
:10250000E2FA0020FEF7DFFA2C20FEF7DCFA0020CA
:10251000FEF7D9FA2920FEF7D6FA0020FEF7D3FA03
:102520002620FEF7D0FA0020FEF7CDFA2420FEF791
:10253000CAFA0020FEF7C7FA2420FEF7C4FA0020EA
:10254000FEF7C1FA2320FEF7BEFA0020FEF7BBFA21
:102550003C20FEF7B8FA0020FEF7B5FA3620FEF769
:10256000B2FA0020FEF7AFFA3220FEF7ACFA0020F4
:10257000FEF7A9FA2F20FEF7A6FA0020FEF7A3FA2D
:102580002C20FEF7A0FA0020FEF79DFA2920FEF786
:102590009AFA0020FEF797FA2620FEF794FA002018
:1025A000FEF791FA2420FEF78EFA0020FEF78BFA50
:1025B0002420FEF788FA0020FEF785FA2320FEF794
:1025C00082FA0020FEF77FFAC420FEF788FA622024
:1025D000FEF779FA0020FEF776FA0520FEF773FA87
:1025E0000020FEF770FA8420FEF76DFA0020FEF757
:1025F0006AFAF020FEF767FA0020FEF764FA182066
:10260000FEF761FA0020FEF75EFAA420FEF75BFAFF
:102610000020FEF758FA1820FEF755FA0020FEF7C2
:1026200052FA5020FEF74FFA0020FEF74CFA0C2029
:10263000FEF749FA0020FEF746FA1720FEF743FAA4
:102640000020FEF740FA9520FEF73DFA0020FEF745
:102650003AFAF320FEF737FA0020FEF734FAE620C4
:10266000FEF731FA0020FEF72EFAC520FEF737FA02
:102670003220FEF728FA0020FEF725FA4420FEF764
:1026800022FA0020FEF71FFA6520FEF71CFA002050
:10269000FEF719FA7620FEF716FA0020FEF713FA75
:1026A0008820FEF710FA0020FEF70DFAC620FEF78C
:1026B00016FA2020FEF707FA0020FEF704FA17208A
:1026C000FEF701FA0020FEF7FEF90120FEF7FBF904
:1026D0000020FEF7F8F9C720FEF701FA0020FEF708
:1026E000F2F90020FEF7EFF90020FEF7ECF90020E8
:1026F000FEF7E9F9C820FEF7F2F90020FEF7E3F94A
:102700000020FEF7E0F90020FEF7DDF90020FEF7DB
:10271000DAF9C920FEF7E3F90020FEF7D4F900202A
:10272000FEF7D1F90020FEF7CEF90020FEF7CBF935
:102730000020FEF7C8F90020FEF7C5F90020FEF7DB
:10274000C2F90020FEF7BFF90020FEF7BCF9002017
:10275000FEF7B9F90020FEF7B6F90020FEF7B3F94D
:102760000020FEF7B0F90020FEF7ADF90020FEF7DB
:10277000AAF90020FEF7A7F9E020FEF7B0F916202D
:10278000FEF7A1F90020FEF79EF91C20FEF79BF949
:102790000020FEF798F92120FEF795F90020FEF7BA
:1027A00092F93620FEF78FF90020FEF78CF94620CB
:1027B000FEF789F90020FEF786F95220FEF783F92B
:1027C0000020FEF780F96420FEF77DF90020FEF777
:1027D0007AF97A20FEF777F90020FEF774F98B205A
:1027E000FEF771F90020FEF76EF99920FEF76BF9FC
:1027F0000020FEF768F9A820FEF765F90020FEF733
:1028000062F9B920FEF75FF90020FEF75CF9C420F9
:10281000FEF759F90020FEF756F9CA20FEF753F9E2
:102820000020FEF750F9D220FEF74DF90020FEF708
:102830004AF9D920FEF747F90020FEF744F9E020D5
:10284000FEF741F90020FEF73EF9F320FEF73BF9D1
:102850000020FEF738F9E120FEF741F91620FEF7D7
:1028600032F90020FEF72FF91C20FEF72CF900208A
:10287000FEF729F92220FEF726F90020FEF723F9BA
:102880003620FEF720F90020FEF71DF94520FEF75F
:102890001AF90020FEF717F95220FEF714F900206C
:1028A000FEF711F96420FEF70EF90020FEF70BF990
:1028B0007A20FEF708F90020FEF705F98B20FEF7D5
:1028C00002F90020FEF7FFF89920FEF7FCF800203F
:1028D000FEF7F9F8A820FEF7F6F80020FEF7F3F867
:1028E000B920FEF7F0F80020FEF7EDF8C420FEF75F
:1028F000EAF80020FEF7E7F8CA20FEF7E4F8002027
:10290000FEF7E1F8D220FEF7DEF80020FEF7DBF854
:10291000D820FEF7D8F80020FEF7D5F8E020FEF723
:10292000D2F80020FEF7CFF8F320FEF7CCF8002015
:10293000FEF7C9F8E220FEF7D2F80520FEF7C3F84B
:102940000020FEF7C0F80B20FEF7BDF80020FEF7D0
:10295000BAF81B20FEF7B7F80020FEF7B4F83420D1
:10296000FEF7B1F80020FEF7AEF84420FEF7ABF812
:102970000020FEF7A8F84F20FEF7A5F80020FEF78C
:10298000A2F86120FEF79FF80020FEF79CF879205E
:10299000FEF799F80020FEF796F88820FEF793F8E6
:1029A0000020FEF790F89720FEF78DF80020FEF744
:1029B0008AF8A620FEF787F80020FEF784F8B720F3
:1029C000FEF781F80020FEF77EF8C220FEF77BF8C4
:1029D0000020FEF778F8C720FEF775F80020FEF714
:1029E00072F8D120FEF76FF80020FEF76CF8D620C1
:1029F000FEF769F80020FEF766F8DD20FEF763F8C1
:102A00000020FEF760F8F320FEF75DF80020FEF7E7
:102A10005AF8E320FEF763F80520FEF754F800208B
:102A2000FEF751F80A20FEF74EF80020FEF74BF8AB
:102A30001C20FEF748F8002000E0FDE2FEF743F816
:102A40003320FEF740F80020FEF73DF84420FEF763
:102A50003AF80020FEF737F85020FEF734F800204F
:102A6000FEF731F86220FEF72EF80020FEF72BF873
:102A70007820FEF728F80020FEF725F88820FEF7DA
:102A800022F80020FEF71FF89720FEF71CF8002020
:102A9000FEF719F8A620FEF716F80020FEF713F847
:102AA000B720FEF710F80020FEF70DF8C220FEF761
:102AB0000AF80020FEF707F8C720FEF704F8002008
:102AC000FEF701F8D120FDF7FEFF0020FDF7FBFF28
:102AD000D520FDF7F8FF0020FDF7F5FFDD20FDF71D
:102AE000F2FF0020FDF7EFFFF320FDF7ECFF0020E1
:102AF000FDF7E9FFE420FDF7F2FF0120FDF7E3FF1A
:102B00000020FDF7E0FF0120FDF7DDFF0020FDF7CD
:102B1000DAFF0220FDF7D7FF0020FDF7D4FF2A20BF
:102B2000FDF7D1FF0020FDF7CEFF3C20FDF7CBFFE6
:102B30000020FDF7C8FF4B20FDF7C5FF0020FDF783
:102B4000C2FF5D20FDF7BFFF0020FDF7BCFF742032
:102B5000FDF7B9FF0020FDF7B6FF8420FDF7B3FFB6
:102B60000020FDF7B0FF9320FDF7ADFF0020FDF73B
:102B7000AAFFA220FDF7A7FF0020FDF7A4FFB320C6
:102B8000FDF7A1FF0020FDF79EFFBE20FDF79BFF94
:102B90000020FDF798FFC420FDF795FF0020FDF70A
:102BA00092FFCD20FDF78FFF0020FDF78CFFD32093
:102BB000FDF789FF0020FDF786FFDD20FDF783FF8D
:102BC0000020FDF780FFF320FDF77DFF0020FDF7DB
:102BD0007AFFE520FDF783FF0020FDF774FF00205A
:102BE000FDF771FF0020FDF76EFF0020FDF76BFF82
:102BF0000220FDF768FF0020FDF765FF2920FDF7A3
:102C000062FF0020FDF75FFF3C20FDF75CFF002026
:102C1000FDF759FF4B20FDF756FF0020FDF753FF4E
:102C20005D20FDF750FF0020FDF74DFF7420FDF7FC
:102C30004AFF0020FDF747FF8420FDF744FF0020F6
:102C4000FDF741FF9320FDF73EFF0020FDF73BFF1E
:102C5000A220FDF738FF0020FDF735FFB320FDF778
:102C600032FF0020FDF72FFFBE20FDF72CFF0020D4
:102C7000FDF729FFC420FDF726FF0020FDF723FF05
:102C8000CD20FDF720FF0020FDF71DFFD320FDF72D
:102C90001AFF0020FDF717FFDC20FDF714FF0020CE
:102CA000FDF711FFF320FDF70EFF0020FDF70BFFEE
:102CB000E620FDF714FF1120FDF705FF0020FDF7CA
:102CC00002FF3420FDF7FFFE0020FDF7FCFE56203A
:102CD000FDF7F9FE0020FDF7F6FE7620FDF7F3FE86
:102CE0000020FDF7F0FE7720FDF7EDFE0020FDF758
:102CF000EAFE6620FDF7E7FE0020FDF7E4FE8820EF
:102D0000FDF7E1FE0020FDF7DEFE9920FDF7DBFE7A
:102D10000020FDF7D8FEBB20FDF7D5FE0020FDF713
:102D2000D2FE9920FDF7CFFE0020FDF7CCFE6620F5
:102D3000FDF7C9FE0020FDF7C6FE5520FDF7C3FED6
:102D40000020FDF7C0FE5520FDF7BDFE0020FDF779
:102D5000BAFE4520FDF7B7FE0020FDF7B4FE432084
:102D6000FDF7B1FE0020FDF7AEFE4420FDF7ABFEFF
:102D70000020FDF7A8FEE720FDF7B1FE3220FDF7A9
:102D8000A2FE0020FDF79FFE5520FDF79CFE0020CF
:102D9000FDF799FE7620FDF796FE0020FDF793FEE5
:102DA0006620FDF790FE0020FDF78DFE6720FDF701
:102DB0008AFE0020FDF787FE6720FDF784FE0020D5
:102DC000FDF781FE8720FDF77EFE0020FDF77BFEEC
:102DD0009920FDF778FE0020FDF775FEBB20FDF77A
:102DE00072FE0020FDF76FFE9920FDF76CFE0020BB
:102DF000FDF769FE7720FDF766FE0020FDF763FE14
:102E00004420FDF760FE0020FDF75DFE5620FDF733
:102E10005AFE0020FDF757FE2320FDF754FE002048
:102E2000FDF751FE3320FDF74EFE0020FDF74BFE6F
:102E30004520FDF748FE0020FDF745FEE820FDF7A0
:102E40004EFE0020FDF73FFE0020FDF73CFE9920DE
:102E5000FDF739FE0020FDF736FE8720FDF733FE33
:102E60000020FDF730FE8820FDF72DFE0020FDF745
:102E70002AFE7720FDF727FE0020FDF724FE6620BE
:102E8000FDF721FE0020FDF71EFE8820FDF71BFE4A
:102E90000020FDF718FEAA20FDF715FE0020FDF723
:102EA00012FEBB20FDF70FFE0020FDF70CFE99205F
:102EB000FDF709FE0020FDF706FE6620FDF703FE84
:102EC0000020FDF700FE5520FDF7FDFD0020FDF779
:102ED000FAFD5520FDF7F7FD0020FDF7F4FD442035
:102EE000FDF7F1FD0020FDF7EEFD4420FDF7EBFDC1
:102EF0000020FDF7E8FD5520FDF7E5FD0020FDF77A
:102F0000E2FDE920FDF7EBFDAA20FDF7DCFD002046
:102F1000FDF7D9FD0020FDF7D6FD0020FDF7D3FD1C
:102F20000020FDF7DCFDAA20FDF7CDFDCF20FDF749
:102F3000D6FD0020FDF7C7FD0020FDF7C4FD0020F1
:102F4000FDF7C1FD0020FDF7BEFD0020FDF7BBFD34
:102F50000020FDF7B8FD0020FDF7B5FD0020FDF7CE
:102F6000B2FD0020FDF7AFFD0020FDF7ACFD002015
:102F7000FDF7A9FD0020FDF7A6FD0020FDF7A3FD4C
:102F80000020FDF7A0FD0020FDF79DFD0020FDF7CE
:102F90009AFD0020FDF797FDF020FDF7A0FD002031
:102FA000FDF791FD5020FDF78EFD0020FDF78BFD14
:102FB0000020FDF788FD0020FDF785FDF320FDF7DB
:102FC0008EFD0020FDF77FFDF920FDF788FD06202E
:102FD000FDF779FD1020FDF776FD2920FDF773FD43
:102FE0000020FDF770FD3A20FDF779FD5520FDF733
:102FF0006AFD1120FDF773FD642006F045FA2920D3
:10300000FDF76DFD3520FDF76AFD0020FDF75BFD46
:103010005120FDF764FDFF20FDF755FD5320FDF71E
:103020005EFD2C20FDF74FFD5520FDF758FD822059
:10303000FDF749FD2C20FDE3A0427CD14FF4704305
:1030400055211846FDF739FD4FF20104AA2120460B
:10305000FDF733FD651C52212846FDF72EFDA61C09
:1030600008213046FDF729FDE71C01213846FDF710
:1030700024FD0D214FF43040FDF71FFD0D214BF2D3
:103080000100FDF71AFD0D214BF20200FDF715FDC1
:103090004FF4364C34216046FDF70FFD34214BF2DE
:1030A0000160FDF70AFD34214BF20260FDF705FDDA
:1030B0004FF431480D214046FDF7FFFC4BF201195A
:1030C0000D214846FDF7F9FC0D214BF20210FDF7EA
:1030D000F4FC4FF4374B34215846FDF7EEFC342115
:1030E0004BF20170FDF7E9FC34214BF20270FDF761
:1030F000E4FC00214FF43240FDF7DFFC00214BF2ED
:103100000120FDF7DAFC00214BF20220FDF7D5FC8F
:1031100024214FF43840FDF7D0FC24214BF6010068
:10312000FDF7CBFC24214BF60200FDF7C6FC012184
:103130004FF43F4000E0FCE3FDF7BFFC0F214FF4EC
:103140003340FDF7BAFC0F214BF20130FDF7B5FC1F
:103150000F214BF20230FDF7B0FC34214FF439401F
:10316000FDF7ABFC34214BF60110FDF7A6FC342132
:103170004BF60210FDF7A1FC08214FF43540FDF796
:103180009CFC08214BF20150FDF797FC08214BF203
:103190000250FDF792FC03214FF44240FDF78DFCF5
:1031A00024214FF43A40FDF788FC24214BF60120FE
:1031B000FDF783FC24214BF60220FDF77EFC002165
:1031C0004FF43C40FDF779FC78214BF60140FDF7C8
:1031D00074FC00214BF60240FDF76FFC00214FF418
:1031E0003D40FDF76AFC78214BF60150FDF765FC88
:1031F00000214BF60250FDF760FC00214FF43E40E9
:10320000FDF75BFC64214BF60160FDF756FC0021E5
:103210004FF45140FDF751FC33214DF20110FDF701
:103220004CFC00214DF20210FDF747FC34214DF219
:103230000310FDF742FC00214DF20410FDF73DFCA8
:103240003A214DF20510FDF738FC00214DF2061031
:10325000FDF733FC4A214DF20710FDF72EFC00214B
:103260004DF20810FDF729FC5C214DF20910FDF725
:1032700024FC00214DF20A10FDF71FFC81214DF2C4
:103280000B10FDF71AFC00214DF20C10FDF715FC98
:10329000A6214DF20D10FDF710FC00214DF20E108D
:1032A000FDF70BFCE5214DF20F10FDF706FC0121A7
:1032B0004DF21010FDF701FC13214DF21110FDF736
:1032C000FCFB01214DF21210FDF7F7FB54214DF2EA
:1032D0001310FDF7F2FB01214DF21410FDF7EDFB89
:1032E00082214DF21510FDF7E8FB01214DF2161079
:1032F000FDF7E3FBCA214DF21710FDF7DEFB0221BB
:103300004DF21810FDF7D9FB00214DF21910FDF711
:10331000D4FB02214DF21A10FDF7CFFB01214DF233
:103320001B10FDF7CAFB02214DF21C10FDF7C5FB77
:1033300034214DF21D10FDF7C0FB02214DF21E108D
:10334000FDF7BBFB67214DF21F10FDF7B6FB022115
:103350004DF22010FDF7B1FB84214DF22110FDF755
:10336000ACFB02214DF22210FDF7A7FBA4214DF288
:103370002310FDF7A2FB02214DF22410FDF79DFB67
:10338000B7214DF22510FDF798FB02214DF22610D2
:10339000FDF793FBCF214DF22710FDF78EFB0221A5
:1033A0004DF22810FDF789FBDE214DF22910FDF7C3
:1033B00084FB02214DF22A10FDF77FFBF2214DF232
:1033C0002B10FDF77AFB02214DF22C10FDF775FB57
:1033D000FE214DF22D10FDF770FB03214DF22E1052
:1033E000FDF76BFB10214DF22F10FDF766FB03215B
:1033F0004DF23010FDF761FB33214DF23110FDF736
:103400005CFB03214DF23210FDF757FB6D214DF2AD
:103410003310FDF752FB00214FF45240FDF74DFBF6
:1034200033214DF20120FDF748FB00214DF202202F
:10343000FDF743FB34214DF20320FDF73EFB002155
:103440004DF20420FDF739FB3A214DF20520FDF73E
:1034500034FB00214DF20620FDF72FFB4A214DF2EF
:103460000720FDF72AFB00214DF20820FDF725FB80
:103470005C214DF20920FDF720FB00214DF20A20CE
:10348000FDF71BFB81214DF20B20FDF716FB002100
:103490004DF20C20FDF711FBA6214DF20D20FDF79A
:1034A0000CFB00214DF20E20FDF707FBE5214DF24C
:1034B0000F20FDF702FB01214DF21020FDF7FDFA70
:1034C00013214DF21120FDF7F8FA01214DF21220DF
:1034D000FDF7F3FA54214DF21320FDF7EEFA012126
:1034E0004DF21420FDF7E9FA82214DF21520FDF787
:1034F000E4FA01214DF21620FDF7DFFACA214DF260
:103500001720FDF7DAFA02214DF21820FDF7D5FA5F
:1035100000214DF21920FDF7D0FA02214DF21A20B8
:10352000FDF7CBFA01214DF21B20FDF7C6FA02216F
:103530004DF21C20FDF7C1FA34214DF21D20FDF79C
:10354000BCFA02214DF21E20FDF7B7FA67214DF2B9
:103550001F20FDF7B2FA02214DF22020FDF7ADFA4F
:1035600084214DF22120FDF7A8FA02214DF22220FC
:10357000FDF7A3FAA4214DF22320FDF79EFA0221C4
:103580004DF22420FDF799FAB7214DF22520FDF7E1
:1035900094FA02214DF22620FDF78FFACF214DF249
:1035A0002720FDF78AFA02214DF22820FDF785FA3F
:1035B000DE214DF22920FDF780FA02214DF22A206A
:1035C000FDF77BFAF2214DF22B20FDF776FA02216E
:1035D0004DF22C20FDF771FAFE214DF22D20FDF762
:1035E0006CFA03214DF22E20FDF767FA10214DF2FF
:1035F0002F20FDF762FA03214DF23020FDF75DFA2E
:1036000033214DF23120FDF758FA03214DF23220DB
:10361000FDF753FA6D214DF23320FDF74EFA0021EC
:103620004FF45340FDF749FA33214DF20130FDF7D5
:1036300044FA00214DF20230FDF73FFA34214DF2F9
:103640000330FDF73AFA00214DF20430FDF735FA68
:103650003A214DF20530FDF730FA00214DF20630E7
:10366000FDF72BFA4A214DF20730FDF726FA00212B
:103670004DF20830FDF721FA5C214DF20930FDF7DB
:103680001CFA00214DF20A30FDF717FA81214DF2A4
:103690000B30FDF712FA00214DF20C30FDF70DFA58
:1036A000A6214DF20D30FDF708FA00214DF20E3043
:1036B000FDF703FAE5214DF20F30FDF7FEF9012188
:1036C0004DF21030FDF7F9F913214DF21130FDF7ED
:1036D000F4F901214DF21230FDF7EFF954214DF2CA
:1036E0001330FDF7EAF901214DF21430FDF7E5F949
:1036F00082214DF21530FDF7E0F901214DF216302F
:10370000FDF7DBF9CA214DF21730FDF7D6F902219A
:103710004DF21830FDF7D1F900214DF21930FDF7C7
:10372000CCF902214DF21A30FDF7C7F901214DF213
:103730001B30FDF7C2F902214DF21C30FDF7BDF937
:1037400034214DF21D30FDF7B8F902214DF21E3043
:10375000FDF7B3F967214DF21F30FDF7AEF90221F5
:103760004DF22030FDF7A9F984214DF22130FDF70B
:10377000A4F902214DF22230FDF79FF9A4214DF268
:103780002330FDF79AF902214DF22430FDF795F927
:10379000B7214DF22530FDF790F902214DF2263088
:1037A000FDF78BF9CF214DF22730FDF786F9022185
:1037B0004DF22830FDF781F9DE214DF22930FDF779
:1037C0007CF902214DF22A30FDF777F9F2214DF212
:1037D0002B30FDF772F902214DF22C30FDF76DF917
:1037E000FE214DF22D30FDF768F903214DF22E3008
:1037F000FDF763F910214DF22F30FDF75EF903213B
:103800004DF23030FDF759F933214DF23130FDF7EB
:1038100054F903214DF23230FDF74FF96D214DF28D
:103820003330FDF74AF900214FF45440FDF745F9D4
:10383000332100E07FE34DF20140FDF73EF9002126
:103840004DF20240FDF739F934214DF20340FDF706
:1038500034F900214DF20440FDF72FF93A214DF2E1
:103860000540FDF72AF900214DF20640FDF725F944
:103870004A214DF20740FDF720F900214DF20840A2
:10388000FDF71BF95C214DF20940FDF716F9002107
:103890004DF20A40FDF711F981214DF20B40FDF781
:1038A0000CF900214DF20C40FDF707F9A6214DF26D
:1038B0000D40FDF702F900214DF20E40FDF7FDF835
:1038C000E5214DF20F40FDF7F8F801214DF21040CF
:1038D000FDF7F3F813214DF21140FDF7EEF8012149
:1038E0004DF21240FDF7E9F854214DF21340FDF777
:1038F000E4F801214DF21440FDF7DFF882214DF28A
:103900001540FDF7DAF801214DF21640FDF7D5F824
:10391000CA214DF21740FDF7D0F802214DF21840B0
:10392000FDF7CBF800214DF21940FDF7C6F8022152
:1039300000E003E34DF21A40FDF7BFF801214DF21C
:103940001B40FDF7BAF802214DF21C40FDF7B5F817
:1039500034214DF21D40FDF7B0F802214DF21E401A
:10396000FDF7ABF867214DF21F40FDF7A6F80221E5
:103970004DF22040FDF7A1F884214DF22140FDF7E2
:103980009CF802214DF22240FDF797F8A4214DF258
:103990002340FDF792F802214DF22440FDF78DF807
:1039A000B7214DF22540FDF788F802214DF226405F
:1039B000FDF783F8CF214DF22740FDF77EF8022175
:1039C0004DF22840FDF779F8DE214DF22940FDF750
:1039D00074F802214DF22A40FDF76FF8F2214DF202
:1039E0002B40FDF76AF802214DF22C40FDF765F8F7
:1039F000FE214DF22D40FDF760F803214DF22E40DF
:103A0000FDF75BF810214DF22F40FDF756F803212A
:103A10004DF23040FDF751F833214DF23140FDF7C2
:103A20004CF803214DF23240FDF747F86D214DF27D
:103A30003340FDF742F800214FF45540FDF73DF8C3
:103A400033214DF20150FDF738F800214DF20250BC
:103A5000FDF733F834214DF20350FDF72EF8002125
:103A60004DF20450FDF729F83A214DF20550FDF7CB
:103A700024F800214DF20650FDF71FF84A214DF2BF
:103A80000750FDF71AF800214DF20850FDF715F820
:103A90005C214DF20950FDF710F800214DF20A505B
:103AA000FDF70BF881214DF20B50FDF706F80021D0
:103AB0004DF20C50FDF701F8A6214DF20D50FCF728
:103AC000FCFF00214DF20E50FCF7F7FFE5214DF20F
:103AD0000F50FCF7F2FF01214DF21050FCF7EDFF03
:103AE00013214DF21150FCF7E8FF01214DF2125065
:103AF000FCF7E3FF54214DF21350FCF7DEFF0121E8
:103B00004DF21450FCF7D9FF82214DF21550FCF70D
:103B1000D4FF01214DF21650FCF7CFFFCA214DF220
:103B20001750FCF7CAFF02214DF21850FCF7C5FFF1
:103B300000214DF21950FCF7C0FF02214DF21A503E
:103B4000FCF7BBFF01214DF21B50FCF7B6FF022131
:103B50004DF21C50FCF7B1FF34214DF21D50FCF723
:103B6000ACFF02214DF21E50FCF7A7FF67214DF27A
:103B70001F50FCF7A2FF02214DF22050FCF79DFFE1
:103B800084214DF22150FCF798FF02214DF2225082
:103B9000FCF793FFA4214DF22350FCF78EFF022186
:103BA0004DF22450FCF789FFB7214DF22550FCF768
:103BB00084FF02214DF22650FCF77FFFCF214DF20A
:103BC0002750FCF77AFF02214DF22850FCF775FFD1
:103BD000DE214DF22950FCF770FF02214DF22A50F0
:103BE000FCF76BFFF2214DF22B50FCF766FF022130
:103BF0004DF22C50FCF761FFFE214DF22D50FCF7E9
:103C00005CFF03214DF22E50FCF757FF10214DF2BF
:103C10002F50FCF752FF03214DF23050FCF74DFFBF
:103C200033214DF23150FCF748FF03214DF2325061
:103C3000FCF743FF6D214DF23350FCF73EFF0021AE
:103C40004FF45640FCF739FF33214DF20160FCF789
:103C500034FF00214DF20260FCF72FFF34214DF2BA
:103C60000360FCF72AFF00214DF20460FCF725FFFA
:103C70003A214DF20560FCF720FF00214DF206606D
:103C8000FCF71BFF4A214DF20760FCF716FF0021ED
:103C90004DF20860FCF711FF5C214DF20960FCF762
:103CA0000CFF00214DF20A60FCF707FF81214DF265
:103CB0000B60FCF702FF00214DF20C60FCF7FDFEEB
:103CC000A6214DF20D60FCF7F8FE00214DF20E60CA
:103CD000FCF7F3FEE5214DF20F60FCF7EEFE01214B
:103CE0004DF21060FCF7E9FE13214DF21160FCF774
:103CF000E4FE01214DF21260FCF7DFFE54214DF28B
:103D00001360FCF7DAFE01214DF21460FCF7D5FEDA
:103D100082214DF21560FCF7D0FE01214DF21660B4
:103D2000FCF7CBFECA214DF21760FCF7C6FE02215C
:103D30004DF21860FCF7C1FE00214DF21960FCF74E
:103D4000BCFE02214DF21A60FCF7B7FE01214DF2D4
:103D50001B60FCF7B2FE02214DF21C60FCF7ADFEC9
:103D600034214DF21D60FCF7A8FE02214DF21E60C9
:103D7000FCF7A3FE67214DF21F60FCF79EFE0221B7
:103D80004DF22060FCF799FE84214DF22160FCF792
:103D900094FE02214DF22260FCF78FFEA4214DF229
:103DA0002360FCF78AFE02214DF22460FCF785FEB9
:103DB000B7214DF22560FCF780FE02214DF226600E
:103DC000FCF77BFECF214DF22760FCF776FE022147
:103DD0004DF22860FCF771FEDE214DF22960FCF700
:103DE0006CFE02214DF22A60FCF767FEF2214DF2D3
:103DF0002B60FCF762FE02214DF22C60FCF75DFEA9
:103E0000FE214DF22D60FCF758FE03214DF22E608D
:103E1000FCF753FE10214DF22F60FCF74EFE0321FC
:103E20004DF23060FCF749FE33214DF23160FCF772
:103E300044FE03214DF23260FCF73FFE6D214DF24E
:103E40003360FCF73AFE55211846FCF736FEAA21EE
:103E50002046FCF732FE52212846FCF72EFE0821B0
:103E60003046FCF72AFE00213846FCF726FECC211E
:103E70004046FCF722FE00214846FCF71EFE0521C5
:103E80006046FCF71AFE70215846FCF716FE7021BA
:103E90004BF20170FCF711FE01214FF43840FCF7A2
:103EA0000CFE03214BF60100FCF707FE03214BF645
:103EB0000200FCF702FE03214BF60300FCF7FDFDB8
:103EC00002214FF43C40FCF7F8FD00214BF6014085
:103ED000FCF7F3FD00214BF60240FCF7EEFDD0218C
:103EE0004FF44940FCF7E9FD02214CF60110FCF7C4
:103EF000E4FD50214CF60210FCF7DFFD50214CF69A
:103F00000310FCF7DAFD50214CF60410FCF7D5FD48
:103F100000214FF45450FCF7D0FD55214FF4685068
:103F2000FCF7CBFD4FF48850FCF7D9FD782005F065
:103F30008CFA4FF42450FCF7D2FDF3E0A0F51341C6
:103F40004FF480744FF4E06940F2022B4FF427469F
:103F500025397CD040F20775C91E79D04FF4887797
:103F60004FF41C56083174D0113973D0A0F5A84114
:103F7000083970D0A0F5A8514FF4407705396BD0BF
:103F8000B1F5204169D0B1F5805167D0A0F58A41E3
:103F900031397CD0091F7BD04045CED1E220FCF7DF
:103FA0009EFD1D20FCF78FFD0220FCF78CFD0420F8
:103FB000FCF789FD642005F048FAE020FCF78FFD4E
:103FC0000120FCF780FD0A2005F05EFAE020FCF7F6
:103FD00086FD0320FCF777FD0C2005F055FA012043
:103FE000FCF77DFD0A2005F04FFAE620FCF777FD8F
:103FF0002F20FCF768FDFF20FCF765FDFF20FCF794
:1040000062FDB020FCF76BFD2020FCF75CFD00207A
:10401000FCF759FD0320FCF756FD40F21F30FCF77A
:1040200052FD0120FCF74FFD40F2DF10FCF74BFD85
:104030000020FCF748FDB420FCF751FD0420FCF7FC
:1040400042FD40F21F40FCF73EFD002007E076E015
:1040500041E1F9E1A0E275E3FEE3FEE3FEE3FCF7F4
:1040600032FD2E20FCF72FFD0020FCF72CFD002058
:10407000FCF729FD0020FCF726FD0020FCF723FDBE
:10408000B620FCF72CFD0220FCF71DFD01E0E6E365
:10409000E6E34FF40370FCF716FD0020FCF713FD78
:1040A0001720FCF710FD1520FCF70DFD0020FCF794
:1040B0000AFD0020FCF707FDF020FCF710FD0320AF
:1040C000FCF701FD2920FCF70AFDD020FCF707FDD5
:1040D0000020FCF7F8FCBE20FCF701FD0520FCF7F2
:1040E000F2FCFE20FCF7EFFC0120FCF7ECFC0020CA
:1040F000FCF7E9FC0020FCF7E6FC0020FCF7E3FC01
:10410000B820FCF7ECFC0320FCF7DDFC0120FCF7F9
:10411000DAFCBA20FCF7E3FC0120FCF7D4FC6420B5
:10412000FDF7A9FA0020FDF7CAFAFF490120C1F8FE
:10413000BC025046FCF77FFD21B0BDE8F08F47F68A
:10414000F001E520FCF7B9FC21460120FCF7B5FCA5
:1041500049460220FCF7B1FC41F230010320FCF794
:10416000ACFC00210420FCF7A8FC59460820FCF711
:10417000A4FC00210920FCF7A0FC00210A20FCF788
:104180009CFC00210C20FCF798FC00210D20FCF782
:1041900094FC00210F20FCF790FC00211020FCF77C
:1041A0008CFC07211120FCF788FC00211220FCF771
:1041B00084FC00211320FCF780FC00210720FCF781
:1041C0007CFC41F290611020FCF777FC40F2272143
:1041D0001120FCF772FC9D211220FCF76EFC4FF4BD
:1041E000C8511320FCF769FC25212920FCF765FC48
:1041F0000D212B20FCF761FC07213020FCF75DFC32
:1042000040F203313120FCF758FC03213220FCF747
:1042100054FC40F206213520FCF74FFC08213620E3
:10422000FCF74BFC40F206413720FCF746FC4FF40C
:1042300041713820FCF741FC07213920FCF73DFC97
:1042400040F202613C20FCF738FC08213D20FCF7DD
:1042500034FC00215020FCF730FCEF215120FCF70A
:104260002CFC00215220FCF728FC40F23F11532087
:10427000FCF723FC31466020FCF71FFC0121612084
:10428000FCF71BFC00216A20FCF717FC00218020B2
:10429000FCF713FC00218120FCF70FFC0021822099
:1042A000FCF70BFC00218320FCF707FC0021842095
:1042B000FCF703FC00218520FCF7FFFB1021902078
:1042C000FCF7FBFB4FF4C0619220FCF7F6FB40F2D9
:1042D00033110720FDE341F28F01EC20FCF7EDFBE9
:1042E00041F23421EF20FCF7E8FB21460120FCF7E6
:1042F000E4FB49460220FCF7E0FB41F230010320D9
:10430000FCF7DBFB00210420FCF7D7FB5946082013
:10431000FCF7D3FB00210920FCF7CFFB00210A208A
:10432000FCF7CBFB01210C20FCF7C7FB00210D2083
:10433000FCF7C3FB00210F20FCF7BFFB002110207E
:10434000FCF7BBFB07211120FCF7B7FB0021122073
:10435000FCF7B3FB00211320FCF7AFFB0121072082
:10436000FCF7ABFB322005F08FF841F290411020B2
:10437000FCF7A3FB40F227211120FCF79EFB322023
:1043800005F082F88A211220FCF797FB322005F015
:104390007BF84FF4D0511320FCF78FFB0621292026
:1043A000FCF78BFB0D212B20FCF787FB322005F05F
:1043B0006BF800212020FCF780FB00212120FCF776
:1043C0007CFB322005F060F800213020FCF775FB03
:1043D00040F204613120FCF770FB40F205313220DD
:1043E000FCF76BFB00213520FCF767FB40F6094129
:1043F0003620FCF762FB4FF401713720FCF75DFBC0
:1044000040F201313820FCF758FB29463920FCF7EF
:1044100054FB00213C20FCF750FB40F60A213D20D4
:10442000FCF74BFB322005F02FF800215020FCF761
:1044300044FBEF215120FCF740FB00215220FCF708
:104440003CFB40F23F114EE100210846FCF735FBF2
:1044500021460120FCF731FB49460220FCF72DFBE9
:1044600041F230010320FCF728FB00210420FCF777
:1044700024FB59460820FCF720FB00210920FCF70B
:104480001CFB00210A20FCF718FB01210C20FCF783
:1044900014FB00210D20FCF710FB00210F20FCF77E
:1044A0000CFB322004F0F0FF40F201110720FCF772
:1044B00004FB322004F0E8FF4FF486511020FCF793
:1044C000FCFA07211120FCF7F8FA39461220FCF714
:1044D000F4FA4FF430611320FCF7EFFA00212920A1
:1044E000FCF7EBFA44F210012B20FCF7E6FA00216E
:1044F0005020FCF7E2FAEF215120FCF7DEFA002110
:104500005220FCF7DAFA40F23F115320FCF7D5FABB
:1045100031466020FCF7D1FA01216120FCF7CDFA89
:1045200000216A2002E0000000804042FCF7C5FA4A
:1045300000218020FCF7C1FA00218120FCF7BDFAA0
:1045400000218220FCF7B9FA00218320FCF7B5FA9C
:1045500000218420FCF7B1FA00218520FCF7ADFA98
:1045600010219020FCF7A9FA00219220FCF7A5FA6F
:1045700001219320FCF7A1FA39469520FCF79DFA1A
:1045800000219720FCF799FA00219820FCF795FA72
:1045900040F2731107207EE341F21401E720FCF79B
:1045A0008CFA21460120FCF788FA4FF400710220B2
:1045B000FCF783FA41F238010320FCF77EFA5946F2
:1045C0000820FCF77AFA00210920FCF776FA00218E
:1045D0000A20FCF772FA00210C20FCF76EFA002189
:1045E0000D20FCF76AFA00210F20FCF766FA002183
:1045F0001020FCF762FA07211120FCF75EFA002177
:104600001220FCF75AFA00211320FCF756FAC820B2
:1046100004F03AFF41F290611020FCF74EFA40F2AC
:1046200027211120FCF749FA322004F02DFF0C213C
:104630001220FCF742FA322004F026FF4FF400610A
:104640001320FCF73AFA11212920FCF736FA0B2146
:104650002B20FCF732FA322004F016FF0021202034
:10466000FCF72BFA40F23F1319462120FCF725FAFC
:1046700000213020FCF721FA4FF4837421463120C9
:10468000FCF71BFA00213220FCF717FA4FF40171F6
:104690003520FCF712FA41F20A613620FCF70DFAD8
:1046A00029463720FCF709FA21463820FCF705FA9D
:1046B00029463920FCF701FA40F202413C20FCF780
:1046C000FCF940F60F413D20FCF7F7F9002150209E
:1046D000FCF7F3F9EF215120FCF7EFF9002152200C
:1046E000FCF7EBF919465320FCF7E7F93146602057
:1046F000FCF7E3F901216120FCF7DFF900216A20D2
:10470000FCF7DBF900218020FCF7D7F9002181209C
:10471000FCF7D3F900218220FCF7CFF90021832098
:10472000FCF7CBF900218420FCF7C7F90021852094
:10473000FCF7C3F910219020FCF7BFF94FF4C061DA
:104740009220FDE321460120FCF7B7F949460220FB
:10475000FCF7B3F941F230010320FCF7AEF9002178
:104760000420FCF7AAF940F207210820FCF7A5F97C
:1047700000210920FCF7A1F900210A20FCF79DF98E
:1047800000210C20FCF799F900210D20FCF795F988
:1047900000210F20FCF791F9142004F075FE41F27E
:1047A000B0611020FCF789F901211120FCF785F98F
:1047B00001211720FCF781F94FF49C711220FCF7BE
:1047C0007CF94FF400611320FCF777F909212920C7
:1047D000FCF773F909212A20FCF76FF90021A420C6
:1047E000FCF76BF900215020FCF767F9EF2151200D
:1047F000FCF763F900215220FCF75FF940F23F110A
:104800005320FCF75AF931466020FCF756F9012194
:104810006120FCF752F900216A20FCF74EF90021D3
:104820008020FCF74AF900218120FCF746F900219D
:104830008220FCF742F900218320FCF73EF9002199
:104840008420FCF73AF900218520FCF736F9132182
:104850009020FCF732F904E016E020E11CE2E3E2EC
:1048600098E300219220FCF728F903219320FCF71C
:1048700024F939469520FCF720F940F273110720FE
:10488000FCF71BF9322006E100210720FCF715F99F
:10489000322004F0F9FD4FF48E711220FCF70DF96F
:1048A0000121A420FCF709F90F210820FCF705F9E4
:1048B00008210A20FCF701F908210D20FCF7FDF87A
:1048C00029463020FCF7F9F807213120FCF7F5F8EC
:1048D00040F203613220FCF7F0F849463320FCF740
:1048E000ECF859463420FCF7E8F802213520FCF7B3
:1048F000E4F841F60F713620FCF7DFF8294637203F
:10490000FCF7DBF800213820FCF7D7F8002139202C
:10491000FCF7D3F829463A20FCF7CFF800213B20DA
:10492000FCF7CBF807213C20FCF7C7F800213D201D
:10493000FCF7C3F8322004F0A7FD01210720FCF7A3
:10494000BCF801211720FCF7B8F8322004F09CFDD8
:104950004FF4BD511020FCF7B0F840F217211120A0
:10496000FCF7ABF84FF48F711220FCF7A6F84FF468
:1049700070611320FCF7A1F800212A20FCF79DF8B4
:104980000A212920FCF799F84FF49F711220FCF7B7
:1049900094F800215020FCF790F8EF215120FCF70B
:1049A0008CF800215220FCF788F840F23F11532088
:1049B000FCF783F831466020FCF77FF80121612085
:1049C000FCF77BF800216A20FCF777F800218020B3
:1049D000FCF773F800218120FCF76FF8002182209A
:1049E000FCF76BF800218320FCF767F80021842096
:1049F000FCF763F800218520FCF75FF81321902075
:104A0000FCF75BF839469220FCF757F80521932014
:104A1000FCF753F800219520FCF74FF80021972070
:104A2000FCF74BF800219820FCF747F821460120BD
:104A3000FCF743F849460220FCF73FF841F2380101
:104A40000320FCF73AF800210420FCF736F8002197
:104A50000C20FCF732F800210F20FCF72EF8002183
:104A60002020FCF72AF800212120FCF726F821213C
:104A70000720FCF722F8142004F006FD612107202E
:104A8000FCF71BF8142004F0FFFC40F27311072020
:104A9000FCF713F8142004F0F7FCFFF743BB0021E8
:104AA0000846FCF70AF800210846FCF706F8002142
:104AB0000846FCF702F800210846FBF7FEFF01213B
:104AC000A420FBF7FAFF142004F0DEFC314660203E
:104AD00000E0DCE0FBF7F1FF5D4659460820FBF7FC
:104AE000ECFF4FF405713020FBF7E7FF43F215713F
:104AF0003120FBF7E2FF40F204613220FBF7DDFFDB
:104B000040F616613320FBF7D8FF42F21121342022
:104B1000FBF7D3FF4FF4A8513520FBF7CEFF48F247
:104B200007513620FBF7C9FF41F207413720FBF759
:104B3000C4FF41F203413820FBF7BFFF2021392099
:104B4000FBF7BBFF1A219020FBF7B7FF00211020D5
:104B5000FBF7B3FF07211120FBF7AFFF0021122065
:104B6000FBF7ABFF00211320FBF7A7FF142004F095
:104B70008BFC4FF4E6611020FBF79FFF40F23711EA
:104B80001120FBF79AFF142004F07EFC4FF4DC7137
:104B90001220FBF792FF142004F076FC4FF47061B2
:104BA0001320FBF78AFF80212A20FBF786FF48218C
:104BB0002920FBF782FF142004F066FC2146012027
:104BC000FBF77BFF49460220FBF777FF41F23801F4
:104BD0000320FBF772FF29460820FBF76EFF002138
:104BE0000A20FBF76AFF00210C20FBF766FF00217B
:104BF0000D20FBF762FF30210E20FBF75EFF002146
:104C00005020FBF75AFFEF215120FBF756FF002100
:104C10005220FBF752FF40F23F115320FBF74DFFAC
:104C200031466020FBF749FF01216120FBF745FF7A
:104C300000216A20FBF741FF11219020FBF73DFF87
:104C40004FF4C0619220FBF738FF40F202419320FD
:104C5000FBF733FF02219420FBF72FFF142004F011
:104C600013FC01210720FBF728FF142004F00CFCA3
:104C700061210720FBF721FF40F273110720FBF7AA
:104C80001CFF00212020FBF718FF00212120FBF74B
:104C900014FF222100207AE100210846FBF70DFFD6
:104CA00000210846FBF709FF142004F0EDFB00216A
:104CB0000846FBF702FF00210846FBF7FEFE002135
:104CC0000846FBF7FAFE00210846FBF7F6FE012135
:104CD000A420FBF7F2FE142004F0D6FB314660203E
:104CE000FBF7EBFE40F606010820FBF7E6FE40F27C
:104CF000037319463020FBF7E0FE01213120FBF75A
:104D0000DCFE04213220FBF7D8FE4FF48171332002
:104D1000FBF7D3FE39463420FBF7CFFE40F20311F8
:104D20003520FBF7CAFE1F213620FBF7C6FE1946C9
:104D30003720FBF7C2FE01213820FBF7BEFE04211D
:104D40003920FBF7BAFE15219020FBF7B6FE4FF491
:104D500082611020FBF7B1FE40F247211120FBF7E2
:104D6000ACFE4FF4DE711220FBF7A7FE4FF460613A
:104D70001320FBF7A2FE782004F086FB21460120D9
:104D8000FBF79BFE4FF400710220FBF796FE41F209
:104D900030010320FBF791FE08210A20FBF78DFE6E
:104DA00000210C20FBF789FE20210E20FBF785FE59
:104DB00000210F20FBF781FE00212020FBF77DFE64
:104DC00000212120FBF779FE3D212A20FBF775FE0B
:104DD000142004F059FB2D212920FBF76EFE002141
:104DE0005020FBF76AFE4DF2EF015120FBF765FE04
:104DF00000215220FBF761FE40F23F115320FBF7E8
:104E00005CFE00216120FBF758FE00216A20FBF7C1
:104E100054FE39469220FBF750FE05219320FBF704
:104E20004CFE2146FFF7B6BB01210020FBF745FEF3
:104E30000A2004F029FB41F228611020FBF73DFE17
:104E40000E211220FBF739FE40F639211320FBF723
:104E500034FE0A2004F018FB40211120FBF72DFE40
:104E600050211520FBF729FE0A2004F00DFB1E211E
:104E70001220FBF722FE0A2004F006FB4FF4B1518A
:104E80001020FBF71AFE42F639211320FBF715FE1E
:104E90000A2004F0F9FA21460120FBF70EFE3946FC
:104EA0000220FBF70AFE41F238010320FBF705FE62
:104EB00059460820FBF701FE08210A20FBF7FDFDFB
:104EC00000213020FBF7F9FD40F202413120FBF7D1
:104ED000F4FD4FF483713220FBF7EFFD40F20351F4
:104EE0003320FBF7EAFD4FF482713420FBF7E5FD38
:104EF00040F201313520FBF7E0FD29463620FBF773
:104F0000DCFD40F205313720FBF7D7FD4FF402718D
:104F10003820FBF7D2FD40F60B713920FBF7CDFDB1
:104F200002214120FBF7C9FD31466020FBF7C5FD9A
:104F300001216120FBF7C1FD4FF40471902000E0D6
:104F4000CAE0FBF7BAFD4FF485719220FBF7B5FD7F
:104F500004219320FBF7B1FD2146A020FBF7ADFD16
:104F600001210720FBF7A9FD21210720FBF7A5FD63
:104F700023210720FBF7A1FD33210720FBF79DFD2F
:104F800040F233110720FBF798FD0021A020FBF72A
:104F900094FD82E530211520FBF78FFD10219A202A
:104FA000FBF78BFD20211120FBF787FD43F2284101
:104FB0001020FBF782FD02211220FBF77EFD41F25B
:104FC00038011320FBF779FD282004F05DFA122147
:104FD0000846FBF772FD282004F056FA43F2204100
:104FE0001020FBF76AFD43F238011320FBF765FD43
:104FF000462004F049FA00213020FBF75EFD40F224
:1050000002413120FBF759FD40F207313220FBF716
:1050100054FD4FF441713320FBF74FFD0421342040
:10502000FBF74BFD40F201413520FBF746FD2946D9
:105030003620FBF742FD40F205313720FBF73DFDFE
:105040004FF4C26319463820FBF737FD1946392063
:10505000FBF733FD21460120FBF72FFD39460220E7
:10506000FBF72BFD41F230010320FBF726FD40F654
:1050700008010820FBF721FD08210A20FBF71DFD90
:1050800031466020FBF719FD01216120FBF715FD7A
:105090004FF49F719020FBF710FD21469220FBF703
:1050A0000CFD21469320FBF708FD4FF44051A02052
:1050B000FBF703FD1021A320FBF7FFFC01210720D4
:1050C000FBF7FBFC21210720FBF7F7FC232107203E
:1050D000FBF7F3FC33210720FBF7EFFC40F2331121
:1050E000A0E62DE9F0478246A2EB0A00401C0E46DE
:1050F00085B2981B401C87B200244FF0D849DDF8D8
:10510000208015E0301981B25046FBF7F4FCFBF724
:10511000CDFC0020494607E004FB050338F81320C6
:10512000A1F88020401C80B2A842F5D3641CA4B230
:10513000BC42E7D3BDE8F0872DE9FE4F0026A2EB85
:10514000000882465F1A701E35468946B8F1000F86
:1051500002DD4FF0010102E003D14FF000010191A7
:1051600002E0C8F100080190002F02DD4FF00100BD
:1051700002E003D14FF00000009002E0C7F1000709
:1051800000904046B84501DD044600E03C46601C06
:105190004FF0000B029015E01FFA89F11FFA8AF018
:1051A000FCF7D9F946443D44A64202DD0199361B7D
:1051B0008A44A54202DD00992D1B89440BF10100B0
:1051C0001FFA80FB02998B45E6DDBDE8FE8FF0B546
:1051D0001C4615460E4607460B46FFF7ADFF3A46FE
:1051E000234631461046FFF7A7FF23462A461946B5
:1051F0003846FFF7A1FF2A4623463146BDE8F04076
:10520000104699E72DE9FC4F8046002415460320FF
:105210000F46A0EB450649E0781B81B208EB040A73
:1052200001901FFA8AF0FCF796F9381B81B208EB5F
:10523000050900901FFA89F0FCF78DF907EB040BC4
:105240001FFA8BF11FFA89F0FCF785F907EB0509C6
:105250001FFA89F11FFA8AF0FCF77DF9A8EB040A1E
:105260001FFA89F11FFA8AF0FCF775F9A8EB050916
:105270001FFA8BF11FFA89F0FCF76DF9019881B2E2
:105280001FFA8AF0FCF767F9009881B21FFA89F0DB
:10529000FCF761F9641C002E03DA06EB8406B61DE8
:1052A00004E0601B06EB80066D1E0A36AC42B3DDDF
:1052B000BDE8FC8F2DE9F84F82461F460C468B4611
:1052C000580700D0012000EBD700790810FB01F04F
:1052D000203AC0B202F0FF090026009041E00C2FF6
:1052E00010D0102F12D0182F3ED1774909EBC900EA
:1052F00001EB80004FF00008855D28060AD5734851
:1053000002880BE009EB49007149F1E7714901EBB3
:105310000910EFE70A9828B96C48428821465046A0
:10532000FCF725F96806050E6B48641CA4B240889A
:10533000A04219D9A4EB0B00B84209D10AF101002F
:105340001FFA80FA64485C46018851450CD906E092
:1053500008F1010000F0FF08B8F1080FCDD3761C6A
:10536000F6B200988642BAD3BDE8F88F0346012012
:1053700000E05843491EC9B2FBD270472DE9FF4FE8
:1053800081B00027DDF838B01D46924680463C4685
:10539000B9464FEA5B0627E0281B401EC1B20A202F
:1053A000FFF7E4FFBAFBF0F00A21B0FBF1F201FBDA
:1053B000120027B9691E8C4201DA48B1012730304A
:1053C000C2B206FB048080B25B46CDF8009006E0D6
:1053D00006FB048080B25B462022CDF80090029943
:1053E000FFF768FF641CE4B2AC42D5D305B0BDE85A
:1053F000F08F2DE9FF4F81B08046DDF83CA00E987C
:105400004FF000091F4693464C460AF00105460836
:105410002BE0381B401EC1B20A20FFF7A7FFBBFBE1
:10542000F0F00A21B0FBF1F201FB1200B9F1000F1C
:1054300005D1791E8C4202DA48B14FF001093030B3
:10544000C2B206FB048080B200950E9B08E05FEAC2
:105450000A6006FB04800E9B80B2009508D53022BE
:105460000299FFF727FF641CE4B2BC42D1D3BDE729
:105470002022F5E72DE9F84F044600F0FF08101947
:105480000D46DDE90A761FFA80FA58191FFA80F9ED
:105490004FF0000B11E0544502D3E819444685B2A1
:1054A0004D450FD23B4629462046CDF800B0FFF7C8
:1054B00001FF04EB570084B2761C3278A2F1200081
:1054C0005E28E8D950E70000D250020818000020FA
:1054D0006E460208E24A0208BC0400201CB5012105
:1054E000112004F090FD1C20009000208DF8040095
:1054F00003208DF8050001248DF8074069463548E2
:1055000004F05AF902208DF80700009469463248E9
:1055100004F052F91CBD2DE9F041304C2E4F2D4DB9
:10552000012608B1267001E02078A0B1102128469C
:1055300004F093F9B0B10821284604F08EF988B13F
:105540000421284604F089F960B10121384604F0AD
:1055500084F9012806D01021284604F07EF901289C
:1055600024D035E00A2003F08FFF002020701021A6
:10557000284604F072F980B10821284604F06DF93C
:1055800070B10421284604F068F958B10121384669
:1055900004F063F9012807D01AE00120BDE8F0818A
:1055A0000220FBE70320F9E70420F7E7082128465B
:1055B00004F053F901280BD10421284604F04DF9D9
:1055C000012805D10121384604F047F900B92670B9
:1055D0000020E3E700100240000002401C00002011
:1055E0001CB50121022004F00EFD4FF4407001248F
:1055F00000908DF8044000208DF8060003208DF8FF
:1056000005008DF8074069467C4804F0D5F87C48D1
:10561000C0F8A042C0F8A4421CBD70B5774801682C
:1056200021F440210160016841F480210160744C43
:105630000120C4F8A402C4F8A002042004F52874D0
:1056400003F003FF00256560042003F0FEFE2560E3
:1056500070BD6A4810B5016821F4402101600168FD
:1056600041F480210160664C0020C4F8A002C4F817
:10567000A402042004F5287403F0E7FE0120206052
:105680006060BDE81040042003F0DFBE70B55B48E9
:105690000024016821F44021016001680160584D37
:1056A0000126C5F8A462304603F0CFFEC5F8A0621B
:1056B000012003F0CAFE07E0641CE4B2FA2C03D90F
:1056C000FFF7C7FF012070BDD5F824020028F3D1F1
:1056D000C5F8A00270BD70B5494C0025C4F8A052B1
:1056E0004648016821F440210160016841F48021AD
:1056F0000160C4F8A452022004F5287403F0A5FE4A
:1057000001202060022003F0A0FE256070BD70B56E
:105710003B4C0026C4F8A0623848016821F44021BF
:105720000160016841F4802101600125C4F8A452A0
:10573000022004F5287403F088FE2560022003F09F
:1057400084FE266070BD2DE9F04105462B480168B6
:1057500021F440210160016841F480210160284E5C
:105760000027C6F8A0723C464FF00108E809C6F8C9
:10577000A4026806050E022003F067FEC6F8A082A8
:10578000022003F062FEC6F8A072022003F05DFE64
:10579000641CE4B2082CE9D3BDE8F0812DE9F047A0
:1057A000814616480024016821F440210160016807
:1057B0000160134E254627464FF00108C6F8A07237
:1057C000022003F042FEC6F8A0826006040ED6F85E
:1057D000240208B1641CE4B2012003F036FE6D1C03
:1057E000EDB2082DEAD3B9F1000F04D0FFF773FF33
:1057F0002046BDE8F087FFF78AFFF9E70004024082
:1058000000804042FFF7ECBE10B50446FFF705FFED
:10581000200AA02101EB4000C0B2FFF794FFFFF780
:1058200035FFE0B2FFF78FFFFFF730FFFFF7F5FE20
:10583000A120FFF788FFFFF729FF0020FFF7AEFF49
:105840000446FFF706FF204610BD70B50D4604461E
:10585000FFF7E3FE200AA02101EB4000C0B2FFF7F2
:1058600072FFFFF713FFE0B2FFF76DFFFFF70EFFC8
:105870002846FFF768FFFFF709FFFFF7EAFEBDE8DC
:1058800070400A2003F000BE2DE9F04116460D4697
:105890000746002409E0E00025FA00F0C1B23819FB
:1058A00080B2FFF7D2FF641CE4B2B442F3D3BDE888
:1058B000F0812DE9F0410D460146002004464E19C5
:1058C00008E00702301B401E80B2FFF79DFF641CFA
:1058D0003844E4B2AC42F4D3E9E710B5FF20FFF757
:1058E00093FF55280AD05521FF20FFF7AEFFFF2078
:1058F000FFF78AFF552801D0012010BD002010BD00
:1059000070B515460E46044608E02046641CA4B255
:10591000FFF77AFF6D1E06F8010BADB2002DF4D132
:1059200070BD70B514460D46064606E0297830462F
:10593000FFF78BFF761CB6B26D1C641EA4B2F5D2C5
:1059400070BD0000022003F080BD1CB501212220A3
:1059500004F059FB01248DF8044000208DF8060066
:1059600000948DF807406946834803F025FFE00264
:1059700000908DF804406946804803F01DFF1CBD6F
:1059800070B57E48016821F440010160016841F46E
:10599000800101607A4E0120C6F8AC02794DC5F84D
:1059A00080021E2005F5207506F52B7603F04DFDCF
:1059B00000243460022003F048FD2C6070BD70B5F7
:1059C0006E48016821F440010160016841F48001E2
:1059D00001606C480125C0F880521E2003F035FD9F
:1059E000674C0020C4F8AC02022004F52B7403F0CD
:1059F0002CFD256070BD70B560480024016821F45D
:105A000040010160016801605D4D0120C5F8AC02F4
:105A10005C4EC6F8800207E0641CE4B2FA2C03D99D
:105A2000FFF7CDFF012070BD022003F00EFDD5F879
:105A30002C020028F0D1C6F8800270BD70B5514C20
:105A40000025C4F880524D48016821F440010160EE
:105A5000016841F480010160022004F5207403F024
:105A6000F4FC4748C0F8AC52022003F0EEFC0120E1
:105A70002060022003F0E9FC256070BD70B5414C48
:105A80000026C4F880623D48016821F440010160AD
:105A9000016841F480010160022004F5207403F0E4
:105AA000D4FC37480125C0F8AC52022003F0CDFCED
:105AB0002560022003F0C9FC266070BD2DE9F04787
:105AC00005462E48016821F440010160016841F457
:105AD000800101602B4E0027C6F88072022003F07F
