:020000040800F2
:10000000903F012089E30008AD010008AF0100081E
:10001000B1010008B3010008B501000800000000AC
:10002000000000000000000000000000B701000810
:10003000B901000800000000F57601085DE1000844
:10004000A3E30008A3E30008A3E30008A3E3000878
:10005000A3E30008A3E30008A3E30008A3E3000868
:10006000A3E30008A3E30008A3E30008A3E3000858
:10007000A3E30008A3E3000813300008ED2F0008F5
:10008000A3E30008A3E30008A3E30008A3E3000838
:10009000A3E30008A3E30008A3E30008A3E3000828
:1000A000A3E30008A3E30008A3E30008A3E3000818
:1000B000A3E30008D5340008CB100108A3E300082F
:1000C000A3E30008A3E30008A3E30008A3E30008F8
:1000D000A3E300080FE30008A3E30008A3E300087C
:1000E000A3E30008A3E30008A3E30008A3E30008D8
:1000F000A3E30008A3E30008A3E30008A3E30008C8
:10010000A3E3000823270008A3E30008A3E30008F3
:10011000A3E30008A3E30008ED340008A3E300080C
:10012000A3E30008A3E30008A3E30008A3E3000897
:10013000A3E30008A3E30008A3E30008A3E3000887
:10014000A3E30008A3E30008A3E30008A3E3000877
:10015000A3E30008A3E30008A3E30008A3E3000867
:10016000A3E30008A3E30008A3E30008A3E3000857
:10017000A3E30008A3E30008A3E30008A3E3000847
:10018000A3E30008A3E30008DFF80CD01CF06EFA2C
:1001900000480047D3030008903F012030BF72B6EB
:1001A000704762B6704780F3088870477047FEE773
:1001B000FEE7FEE7FEE7704770470000564882B052
:1001C000016841F4700101605448016841F0010187
:1001D000016053494FF0000CC1F800C0026822F4DE
:1001E000102222F080720260031D4E4A1A600268DB
:1001F00022F4802202600A1DC2F800C0CDF800C0BF
:10020000CDF804C0026842F480320260026802F451
:1002100000320192009A521C0092019A1AB9009A77
:10022000B2F5A04FF2D1026812F4003F08BFCDF83A
:1002300004C034D0012201923B4AD2F800C04CF0F5
:10024000805CC2F800C0394AD2F800C04CF4404C7F
:10025000C2F800C00A680A600A6842F400420A60F4
:100260000A6842F4A0520A60314A1A60026842F0F9
:1002700080720260026812F0007FFBD02D4A40F2CB
:1002800005701060086820F003000860086840F0FE
:1002900002000860086800F00C000828FAD126491E
:1002A0004FF00060086002B0704730B41C4C20680A
:1002B000224D234910F00C0008D04FEA650C0428A9
:1002C00008BFC1F800C002D008280BD00D6020681C
:1002D0001C4AC0F30310105C0A6822FA00F00860A0
:1002E00030BC7047184A1068C0F380531068002B68
:1002F00000F03F0014BFBCFBF0F0B5FBF0F013685A
:100300001268C3F388135843C2F30142521C5200CF
:10031000B0FBF2F00860DAE788ED00E00038024058
:10032000083802401030002440380240007000407D
:1003300008544007003C024008ED00E00024F400AF
:10034000000000200400002004380240002482B095
:1003500010250A2322461421002000950DF019FED5
:10036000641CC82CA8BF00240A200DF03CFFF0E755
:100370000A24322564200DF036FF224629469620B5
:1003800018F0EFFF0A34782CA4BF00240A35F1E7F7
:1003900010B5002015F05CFF5249086015F045FAD1
:1003A00017F080F90323504A04460021AFF23F00C2
:1003B00016F0A2FD02234D4A0021AFF26F0016F0A5
:1003C0009BFD0A2016F0F3FF2046BDE8104017F011
:1003D0006DB930B583B04FF4A0600DF0E7FFA820F1
:1003E0000DF0CAFE4FF4E1300DF03FFF04F03AFE8D
:1003F00000F0B0F806F0C2F93D48006880470020E0
:1004000010F02AFA012010F027FA022010F024FA46
:1004100014F07AFC374C012237A1206812F037FD26
:10042000012236A1606812F032FD35494FF4784060
:10043000088019F06BFA4FF47F0017F023FE6FF07D
:100440007F4017F02AFE19F054FA2E4817F07AFE72
:100450000A2204212CA017F055FB282204212EA0EB
:1004600017F050FB4622042130A017F04BFB40F25E
:10047000DC500DF0B8FE19F03CFA19F0E9FB14F06D
:10048000CDFF00281CBF10244FF6FF7519D02DA0FA
:10049000CDE900401023C82232211E200DF020FE9D
:1004A000C8200DF0A0FE4223F02232211E2000952C
:1004B0000DF033FBC8200DF096FE14F0AFFF0028BE
:1004C000E5D115F062F81AF09CF80A23204A0021C1
:1004D000AFF2431016F010FD15F090F903B00020B4
:1004E00030BD000014000020BC070020BC06002026
:1004F000B00000206CC50020303A0000313A000006
:10050000E4000020740502082D202D2053544D33A3
:1005100032462D202D0000002D202D20554347551B
:1005200049332E3938202D202D0000002D202D207C
:100530005355434345535346554C4C59202D202D7C
:1005400000000000466F6E74204572726F722100C9
:10055000BC04002010B582B0012111200EF04EFC29
:100560001C20009000208DF8040003208DF8050069
:1005700001248DF8074069463A480EF00DF8022034
:100580008DF807000094694637480EF005F802B070
:1005900010BD2DE9F0410125344C334F314E002878
:1005A0000ABF20782570002814D0102130460EF0A4
:1005B00054F8B0B1082130460EF04FF888B104214C
:1005C00030460EF04AF860B1012138460EF045F889
:1005D000012806D0102130460EF03FF801283DD109
:1005E00029E00A200DF0FFFD002020701021304688
:1005F0000EF033F8002804BF0120BDE8F081082187
:1006000030460EF02AF8002804BF0220BDE8F08131
:10061000042130460EF021F8002804BF0320BDE875
:10062000F081012138460EF018F8012804BF04209B
:10063000BDE8F08112E0082130460EF00EF80128E6
:100640000CD1042130460EF008F8012806D1012112
:1006500038460EF002F8002808BF25700020BDE8DB
:10066000F08100000010024000000240180000204D
:1006700070B5464C0546022120460FF0E4FD0028E7
:10068000F9D0294620460FF0B2FD012120460FF097
:10069000DAFD0028F9D020460FF0A7FDC0B270BDEA
:1006A000F0B5012189B008460EF0A8FB012108032E
:1006B0000EF0C8FBE020022506908DF81C500024A7
:1006C0008DF81E4003208DF81D00314F01268DF856
:1006D0001F6006A938460DF05FFF05221146384617
:1006E0000DF0DEFF0522062138460DF0D9FF052268
:1006F000072138460DF0D4FF012108030EF0CFFB8F
:100700000021E8020EF0CBFBADF800404FF4827000
:10071000ADF802002802ADF80860ADF80A003820F4
:10072000ADF80440ADF80C00ADF806500720174DA9
:10073000ADF81000ADF80E40694628460FF040FCB9
:10074000012128460FF0F0FCFF24022128460FF07B
:100750007AFD0028F9D0214628460FF048FD0121F6
:1007600028460FF070FD0028F9D028460FF03DFD17
:1007700009B0F0BD01460548028822F03802028027
:1007800002881143018001210FF0CEBC00300140EE
:100790000000024070B5FF4D0024C5F89042902043
:1007A00005F52475FFF764FF0020FFF761FF0020C7
:1007B000FFF75EFF0020FFF75BFFFF20FFF758FF0A
:1007C00044EA0024FF20FFF753FF20430121296062
:1007D00070BD70B5012182B008460EF00FFB0121FB
:1007E00040200EF00BFB1020012400908DF80440F7
:1007F00000258DF8065003208DF805008DF8074080
:100800006946E5480DF0C8FE8020E44E0090694638
:1008100030460DF0C1FE802130460DF032FFDD4E36
:10082000C6F8904206F52476FFF73AFF0820FFF756
:10083000A1FF35609020FFF71BFF0020FFF718FF96
:100840000020FFF715FF0020FFF712FFFF20FFF742
:100850000FFF45EA0025FF20FFF70AFF2843346019
:10086000CF49088002B070BD10B5CA4C0020C4F852
:100870009002052004F52474FFF7FAFEFF20FFF72D
:10088000F7FE0121216010BD70B5C24C0021054664
:10089000C4F89012012004F52474FFF7E9FE2846FD
:1008A000FFF7E6FE0120206070BD10B5B94C0020B6
:1008B000C4F89002062004F52474FFF7D9FE012045
:1008C000206010BD10B5B34C0020C4F89002042085
:1008D00004F52474FFF7CCFE0120206010BD2DE943
:1008E000F041AC4F0546002016460C46C7F8900272
:1008F0000320FFF7BDFEC4F30740FFF7B9FEC4F3C2
:100900000720FFF7B5FEE0B2FFF7B2FE0024002E8D
:1009100007D9FF20FFF7ACFE2855601C84B2A64221
:10092000F7D80120C7F89002BDE8F08170B5002526
:10093000984C0126C4F890520520FFF799FEFF203D
:10094000FFF796FEC4F8906210F0010FF2D170BD6F
:100950002DE9F0478F4F4FF0000916460C4605462B
:10096000C7F890920620FFF783FE4FF00108C7F802
:100970009082C7F890920220FFF77AFEC4F30740F6
:10098000FFF776FEC4F30720FFF772FEE0B2FFF731
:100990006FFE0024002E06D9285DFFF769FE601C5B
:1009A00084B2A642F8D8C7F89082BDE8F047BDE708
:1009B0002DE9F05F0746C8B2C0F580740E461546B3
:1009C000A24298BF14464FF00009DFF8C8814FF0EB
:1009D000010BC8F890920620FFF74AFEC8F890B2C3
:1009E000C8F890920220FFF743FEC6F30740FFF7D6
:1009F0003FFEC6F30720FFF73BFEF0B2FFF738FEDD
:100A00004FF0000A002C09D917F80A00FFF730FE52
:100A10000AF101001FFA80FA5445F5D8C8F890B2DF
:100A2000FFF784FFA54208BFBDE8F09F2744281BBD
:100A300085B22644B5F5807F94BF2C464FF4807470
:100A4000C7E72DE9F0410446014656A01BF04CFED5
:100A5000504D24030027C5F89072062005F5247533
:100A6000FFF706FE01262E60FFF760FF2F602020B3
:100A7000FFF7FEFDC4F30740FFF7FAFDC4F30720BC
:100A8000FFF7F6FDE0B2FFF7F3FD2E60BDE8F041A1
:100A90004CE72DE9F74F82B0DFF810A10398934699
:100AA000000B00900398C0F30B05C5F58056B242C9
:100AB00098BF1646009800244FEA003835484FF496
:100AC0008059C0F890420320FFF7D2FDC8F30740D9
:100AD0000190FFF7CDFDC8F307200746FFF7C8FDDB
:100AE0002046FFF7C5FDFF20FFF7C2FD0AF804000E
:100AF000601C84B24C45F6D3264C0120C4F8900209
:100B00000020002E08D929181AF80110FF2903D156
:100B1000401C80B2B042F6D386427DD921A0009914
:100B20001BF0E2FD4FF00009C4F890920620FFF799
:100B30009FFD0120C4F89002FFF7F8FEC4F89092E0
:100B40002020FFF795FD0198FFF792FD3846FFF74B
:100B50008FFD4846FFF78CFD0120C4F89002FFF797
:100B6000E5FE0020002E08D902994219095C401CBC
:100B700080B20AF802108642F6D84FF48057D14668
:100B80003D11044C0020C4F89002062004F52474A2
:100B90000EE0000000004042000002400018024049
:100BA0001A00002066653A25780D0A00C00700206B
:100BB000FFF75EFD01202060002020600220FFF78B
:100BC00057FDC8F30740FFF753FDC8F30720FFF7B1
:100BD0004FFD08F0FF00FFF74BFD0024002D07D963
:100BE00019F80400FFF744FD601C84B2A542F7D851
:100BF00054490120C1F89002FFF798FEAF424FD050
:100C0000781B87B2A944A844B7F5807F94BF3D46BE
:100C10004FF48075B5E7FFE7DDE9029808F0FF00C3
:100C20003746C0F58075BD4228BF35460020454C8B
:100C3000C4F89002062004F52474FFF719FD012082
:100C40002060002020600220FFF712FDC8F307405B
:100C5000FFF70EFDC8F30720FFF70AFD08F0FF00BD
:100C6000FFF706FD0024002D07D919F80400FFF74F
:100C7000FFFC601C84B2A542F7D832490120C1F8BC
:100C80009002FFF753FEAF420AD0781B87B2A94407
:100C9000A844B7F5807F94BF3D464FF48075C5E703
:100CA000B34504BF05B0BDE8F08F00980025401C97
:100CB0000090029830440290039830440390ABEBCC
:100CC00006001FFA80FBBBF5805F94BF5E464FF4C1
:100CD0008056EFE670B51B4C0025C4F890520620F4
:100CE00004F52474FFF7C4FC01262660FFF71EFEFE
:100CF0002560C720FFF7BCFC2660BDE8704015E604
:100D000010B5104C0020C4F89002B92004F52474EA
:100D1000FFF7AEFC01202060BDE8104003200DF07D
:100D200046BA10B5074C0020C4F89002AB2004F579
:100D30002474FFF79DFC01202060BDE810400320D3
:100D40000DF035BA00004042FE4900200860091D40
:100D50000860091D0860091D0860FB490860091D3D
:100D60000860091D0860FA4AF8491160111D086001
:100D700070470021012813BF0028F64A5070262131
:100D800008467047F44A116821F0FF0108431060DB
:100D9000704710B5F14A0446116811F0450FFBD0B9
:100DA00004200FF03EFB20B104200FF042FB032093
:100DB00010BD01200FF035FB20B101200FF039FBF1
:100DC000012010BDE6480068A0421CBF102010BDE5
:100DD00040F2FF500FF02DFBE248006800F00800E1
:100DE00010BD2DE9F04782B00024DF4F00944FF092
:100DF000080A019410204FF04008C7F800A0C7E986
:100E000001084FF48069C7E903490E462546384674
:100E10000FF08BFA1020FFF7BCFF00281CBF02B0B8
:100E2000BDE8F087CB480089000438603720C7E967
:100E30000108C7E90359CC480FF077FA3720FFF7CC
:100E4000A8FF00281CBF02B0BDE8F0874FF0FF31BB
:100E5000C648C0E9001A302181600221C0E90315AB
:100E6000012141610FF086FA3320C7E90050C7F82D
:100E70001090C7E90285BC480FF057FA3320FFF7FE
:100E800088FF5FEA000A1CBF02B0BDE8F087B34FDD
:100E9000386840F22A6810EA080F04BF6D46DFF890
:100EA000D0920FD14FF400100FF0BBFA30B1D9F847
:100EB000000045F82400641C022C03D2386810EAB4
:100EC000080FEFD008200FF0ACFA30B108200FF077
:100ED000B0FA02B00420BDE8F08702200FF0A1FABA
:100EE00030B102200FF0A5FA02B00220BDE8F08771
:100EF00020200FF096FA30B120200FF09AFA02B0BD
:100F00000620BDE8F0874FF400700FF08AFA38B180
:100F10004FF400700FF08DFA02B00720BDE8F087A3
:100F200040F2FF500FF085FA009800BA7060019807
:100F300000BA306002B05046BDE8F0872DE9F041BC
:100F4000002582B02C4600950195002818BF022488
:100F50008448006810F0007F1EBF0E2002B0BDE87C
:100F6000F0817C4E6946308980B2FFF73AFF002855
:100F70001CBF02B0BDE8F081019810F4802F02BFC1
:100F8000252002B0BDE8F0813089774E000440276B
:100F900030603720C6E901074FF48068C6E903587E
:100FA00030460FF0C2F93720FFF7F3FE00281CBFD0
:100FB00002B0BDE8F0810620C6F81080C6E9004006
:100FC000C6E9027568480FF0B0F90620FFF7E1FEA8
:100FD00002B0BDE8F08110B504465E4800220178F9
:100FE00003290DD000291CBF0129022914D1B4F511
:100FF000805F05D0E0B2FFF7A1FF020002D00BE056
:10100000272010BD5448016821F4C05101600168D7
:101010002143016001680160104610BD524910B5BE
:10102000086007204860402088600020C8604FF4B6
:101030008060086108460FF078F9BDE8104007208D
:10104000A7E62DE9F0074349DFF8288100260B7851
:1010500080F856300989A0F85410D8F800100127FC
:101060000A0E4FEA921C80F800C0C2F3830C80F88D
:1010700001C002F0030282700A0CC2700A0A0271F7
:101080004171D8F80420110E4FEA011CC2F3074148
:101090004CEA111C01F00F0AA0F806C0C2F30721A8
:1010A00080F808A04FEAD11C80F809C0C1F3801C69
:1010B00080F80AC0C1F3401C80F80BC0C1F3001CCB
:1010C00080F80CC0C4464673DCF80850002B4FEA89
:1010D000156CC5F30744C5F307291CBF012B032B6F
:1010E00002D0022B4DD05CE08907090DD2B241EA53
:1010F000820141EA9C12CCF3C201026101750CF03D
:101100000701417561098175C4F38201C175A107A9
:101110004B0F494643EAD11303769B1C07FA03FCA5
:10112000521CA2FB0C394FEAEC7406FB0C9C02FB30
:1011300004CC07FA0AF2A3FB024902650CFB0292F7
:101140001AE00000002C0140242C0140FF07C000E1
:10115000382C01401C000020042C0140342C01409C
:10116000102C0140142C0140D8170020EC1700204F
:10117000802C01400418002003FB0622C0E9124223
:101180000FE09106890A41EA0C2141EA040202615A
:10119000521C530BD204C0E912234FF4007249468B
:1011A0000265C1F38012427689064A0EE9B242EA2C
:1011B000D112827601F07F01C176D8F80C20110E91
:1011C000CB090377C1F341134377C1F382038377DC
:1011D00089070B0FC2F3074143EA9113C377C1F3A9
:1011E000401380F8203080F8216001F0010180F880
:1011F0002210C2F30721CB0980F82330C1F38013FA
:1012000080F82430C1F3401380F82530C1F3001377
:1012100080F82630C1F3810380F8273001F0030104
:1012200080F82810C2F34601F94A80F8291080F8A6
:101230002A7011680B0E80F82C300B0CC1F3072CB0
:101240004CEA0323C3850B0651684FEA116C43EA4D
:101250000C43C1F3074C43EA0C23C1F3072C43EAC8
:101260000C03036380F8341091680B0E80F835305E
:101270000B0CC1F3072C1B0643EA0C43C9B243EA2B
:101280000123D16843EA1162826390F83C30C1F3D4
:10129000074243EA121380F83C30C1F307231207D8
:1012A00043EA1252C287C1F3460180F8401080F829
:1012B00041703046BDE8F007704710B5D54B0024AB
:1012C0004FF6FF711A6812F0450F09D011B112F0F4
:1012D000040F08D0032404200FF0ABF8204610BD03
:1012E000491EEFD2F3E701200FF09BF818B101245B
:1012F00020460FF09EF840F2FF500FF09AF820467B
:1013000010BD70B5C34B0C46064600251A6812F096
:10131000450FFBD004200FF084F820B104200FF01B
:1013200088F8032070BD01200FF07BF820B1012068
:101330000FF07FF8012070BDB7480068B04210D1AF
:1013400040F2FF500FF075F8B448026812F4604F95
:1013500009D012F4005F1CBF132070BD12F4804F3F
:1013600005D0102070BD100C2080284670BD12F4EE
:10137000004F14BF0F20284670BD01202DE9F84F03
:10138000ADF800000EF0CCFF002804BF2520BDE81A
:10139000F88FA34F387804287CD0A24C0025022077
:1013A000C4E900504FF48066C0202661C4E90205FC
:1013B00020460EF0BAFFFFF780FF002818BFBDE8F7
:1013C000F88FDFF85882D8F80010914808F1040926
:1013D0000160D9F80010416009F1040109688160D9
:1013E00091490968C16038784FF0030A4FF0400B0B
:1013F000002818BF012803D0062818BF022810D1E2
:10140000C4F808B0C4E9005AC4E9035685480EF090
:101410008CFF69460320FFF774FF002818BFBDE862
:10142000F88F3878032811D1BDF80000C4F808B04F
:101430000004C4E9000AC4E903567A480EF075FFB7
:10144000FFF73BFF002818BFBDE8F88F3878042865
:1014500020D0BDF80000B860000420600920606062
:10146000C0202661C4E902056E480EF05EFFFFF75A
:1014700024FF002818BFBDE8F88FD8F800106B488B
:101480000160D9F8001041606949096881606649C6
:101490000968C1600020BDE8F88F10B55D49086893
:1014A00010F0450FFBD004200EF0BBFF20B104204C
:1014B0000EF0BFFF032010BD40F2FF500EF0B9FF49
:1014C000002010BD10B5534B00244FF6FF711A6871
:1014D00012F0450F09D011B112F0040F08D0032407
:1014E00004200EF0A6FF204610BD491EEFD2F3E700
:1014F00012F0400F03D0002440200EF09AFF204647
:1015000010BD70B500254FF6FF7480200EF089FFE6
:1015100020B1002C04BF032070BD01E0641EF4D292
:1015200040F2FF500EF085FF284670BD2DE9F05FB8
:101530004FF0000A3F48762156460175C0F800A0DA
:10154000C0F804A0C0F808A0C0F80CA05446554646
:10155000D046C0F810A00EF0B7FE03200EF0DDFE5E
:101560003548016841F4807101604FF003092D484E
:101570000021016041608160C1604FF480610161C0
:101580000EF0D3FE4FF0000B4FF6FF7780200EF0E9
:1015900048FF20B1002F08BFCB4606D001E07F1ED8
:1015A000F4D240F2FF500EF044FF5FEA0B0008D087
:1015B0000AF1010101F0FF0ABAF14A0FD7D3BDE8E1
:1015C000F09F18484FF4D5714FF0000B01600821CF
:1015D00041604021C0E9021B090101610EF0A5FE36
:1015E0000C4FDA464FF6FF70396811F0450F0CD0FA
:1015F00010B111F0040F21D04FF0030A04200EF0B7
:1016000018FFBAF1000F26D120E0401EECD2F0E71F
:1016100014180020342C0140102C0140142C0140DF
:101620001C000020D8170020202C014004180020A6
:101630001C2C0140C0170020042C014011F0400F69
:101640001CBF4FF0000A4020D9D1DAE7FE48012143
:101650004FF080480170DFF8F4A33720CAE900B0EA
:101660004020CAE9020B0001CAF8100050460EF0F3
:101670005CFE3720FFF78DFB0100F5481CBF80465C
:101680004FF6FF7639D0002D78D175E03720CAE9C2
:1016900000B040252E01CAF81060CAE9025BEB4891
:1016A0000EF043FE3720FFF774FB002818BFBDE89B
:1016B000F09F2920CAF80080CAE90105CAE903B6EB
:1016C0005D46E2480EF031FEE249086810F0450F31
:1016D000FBD004200EF0A5FE20B104200EF0A9FEE0
:1016E000032104E040F2FF500EF0A3FE294699BB0F
:1016F000D9F80060F50F641C06E048F4801848F043
:10170000004881464FF6FF770DB9BC42BED3BC42BC
:101710003AD216F0804F27D0CB480222027023E045
:10172000CD48CAF800000120CAF804004020CAE9E8
:10173000020B0001CAF81000C4480EF0F6FD38682C
:1017400010F0450FFBD004200EF06BFE30B10420EA
:101750000EF06FFE494606E006E00FE040F2FF5053
:101760000EF067FE594611B10846BDE8F09FD8F863
:101770000000C50F641C86E7B442D1D3B4423CBF1D
:10178000B14880F80090EFD31B20BDE8F09F2DE911
:10179000F04184B000250121B0480DF02FFB01215C
:1017A000C8020DF04FFB0121C8020DF078FB4FF489
:1017B000F850009002208DF804008DF805000024F8
:1017C000A74E8DF8064001278DF807706946304610
:1017D0000CF0E2FE0421DFF88C820091694640465D
:1017E0000CF0DAFE0C22082130460CF059FF0C22D6
:1017F000092130460CF054FF0C220A2130460CF02F
:101800004FFF0C220B2130460CF04AFF0C221146F0
:1018100030460CF045FF0C22022140460CF040FF00
:101820000021F0140DF03BFB8F480460061D34606E
:10183000301D0460001D04608C480460001D0460BD
:10184000001D04608B498A480860081D046031202F
:101850008DF808008DF809408DF80A408DF80B705E
:1018600002A80CF0AAFDFFF761FE774FDFF80882AF
:10187000E8B9FFF782FDD0B94046FFF7E2FBB0B907
:10188000B8F854000104A8F150000160072141603C
:101890004021C0E90214090101610EF046FD072054
:1018A000FFF777FA18B9F014FFF795FB28B13978EC
:1018B00003291CBF04B0BDE8F08198F85600002849
:1018C00014BF01280225306820F0FF002843306053
:1018D0007C7004B00020BDE8F08110B500200EF04F
:1018E0001CFD002010BD70B5644E90B01546044636
:1018F00030460EF0F3FE0028FAD130460EF0CCFD53
:101900004FF0006000905E48CDE901040020CDE971
:1019100003504FF48061CDE90501890007918900EA
:10192000CDE908104FF440300A9004200B900320BA
:101930000C9048020D9080100E90694630460EF0D3
:1019400042FE202130460EF09BFE012130460EF073
:1019500085FE10B070BD0021012804D0491C40084C
:10196000C9B20128FAD1084670472DE9F05F174641
:101970000A9E05004FF0FF3464D042480021016008
:10198000DFF8C49099F80000022803D10602520A39
:1019900042EAC357DFF8F0A00020411ECAF8080051
:1019A000CAE900100121CAF80C00CAE90401504636
:1019B0000EF0E0FC2648006810F0007F1CBF0E20EF
:1019C000BDE8F09F701EB0F5006F77D2064275D16A
:1019D00030464FF00008012E06D0400808F1010102
:1019E00001F0FF080128F8D1DFF860B01020CBE942
:1019F00000604020CBF808000020CBF80C004FF42A
:101A00008060CBF8100058460EF08FFC1020FFF7D6
:101A1000C0F9002818BFBDE8F09F4FEA0810CAE9D6
:101A200001604FF0FF30CAF800000120CAF814002E
:101A300002204FF00008CAE9030813480EF09AFC90
:101A4000112023E03AE000001C000020D8170020FD
:101A5000142C0140342C01400080FF800C00400019
:101A600000080240000C0240002C0140242C0140E0
:101A7000FF07C000382C014028180020586402409D
:101A8000802C01402C2C0140EC170020CBE9007089
:101A90004020CBE902080001CBF81000F9480EF015
:101AA00044FC1120FFF775F9070018BFBDE8F09F4F
:101AB00099F8010028B101286BD093E02620BDE8F9
:101AC000F09FFEF76CFBDFF8C083D8F8000040F20F
:101AD0002A69EE4E10EA090F08BFDFF8B4A314D14B
:101AE0004FF400400EF09DFC002818BF002016D0D7
:101AF000316845F82010401C0828F9D35446203599
:101B0000D8F8000010EA090FEAD008200EF089FC8E
:101B100050B108200EF08DFC0420BDE8F09F002C91
:101B200018BF641EECD164E002200EF07AFC28B1EC
:101B300002200EF07EFC0220BDE8F09F20200EF077
:101B400070FC28B120200EF074FC0620BDE8F09F48
:101B50004FF400700EF065FC30B14FF400700EF0E1
:101B600068FC0720BDE8F09F4FF400100EF059FC10
:101B700040B1306845F8040B4FF400100EF051FCF2
:101B80000028F6D1FEF70DFB40F2FF500EF051FC9D
:101B900028E089F8038089F8028089F80480BD482C
:101BA000016840F22A3211430160BB48016841F0EC
:101BB00008010160002231462846FFF794FEB7482D
:101BC000016811F0006F01BF99F80410002999F81D
:101BD0000310002909D064B199F80300002818BF48
:101BE00099F803703846BDE8F09F002C18BF641EBA
:101BF000E6D10420BDE8F09F2DE9FF5FA84EDDE9A6
:101C00000E790098F060A448002592464FF0FF340A
:101C100005603078022803D10702510A41EAC35A0D
:101C2000A0484FF0FF318560C0E900150121C56073
:101C3000C0E904510EF09EFB9B48006810F0007F45
:101C40001EBF0E2004B0BDE8F09F781EB0F5006FF7
:101C500030D207422ED138464FF0000B012F06D06C
:101C600040080BF1010101F0FF0B0128F8D1DFF86A
:101C700014821020C8E900704020C8F80800002035
:101C8000C8F80C004FF48060C8F8100040460EF011
:101C90004CFB1020FFF77DF805001CBF04B0BDE829
:101CA000F09FB9F1010F40F2E98009FB07F9B9F1A2
:101CB000007F03D304B02620BDE8F09F79484FEAA7
:101CC0000B114FF0010BC0E901914FF0FF31C0F84B
:101CD00014B0016002210027C0E903170EF04AFB8F
:101CE0001220C8E900A04020C8E902070001C8F896
:101CF000100064480EF019FB1220FFF74AF80500A7
:101D00001CBF04B0BDE8F09F707840F22A3A10B1D1
:101D100001287DD0B2E0FEF742FADFF86CB1DBF8C3
:101D20000000DFF8689110EA0A0F18D14FF4004064
:101D30000EF077FB00281CBF0020F1681AD0D9F8FC
:101D4000002041F82020401C0828F8D301F1200091
:101D50004F4CF060DBF8000010EA0A0FE6D00820D4
:101D60000EF05FFB58B108200EF063FB04B00420B6
:101D7000BDE8F09F002C18BF641EEBD19AE0022052
:101D80000EF04FFB30B102200EF053FB04B00220E6
:101D9000BDE8F09F20200EF044FB30B120200EF073
:101DA00048FB04B00620BDE8F09F4FF400700EF031
:101DB00038FB38B14FF400700EF03BFB04B0072045
:101DC000BDE8F09F4FF400100EF02BFB58B1D9F88E
:101DD0000010F06840F8041BF0604FF400100EF0A3
:101DE00020FB0028F3D14FF480700EF01AFBD8B11D
:101DF000307800281CBF0128022815D10C20C8E922
:101E000000704020C8E902070001C8F8100000E097
:101E100011E01C480EF089FA0C20FEF7BAFF05000D
:101E20001CBF04B0BDE8F09FFEF7BBF940F2FF50C5
:101E30000EF0FFFA22E0F77086F802B0377115480D
:101E4000016841EA0A0101601348016841F0080194
:101E50000160002249460098FFF745FD0F480168E0
:101E600011F0006F22D02CB33079002804BFF07835
:101E70000028F9D0F078002818BFF578284604B07B
:101E8000BDE8F09FD8170020342C0140802C014081
:101E9000FFFF7F003C2C01402C2C014000640240DD
:101EA0001C000020EC170020142C0140002C18BF4F
:101EB000641ED4D10420E2E710B582B004460022AB
:101EC000FE48009201920089FD49000408600D203F
:101ED00048604020C1E902020001086108460EF096
:101EE00024FAF8490868019010F0450F04D10A68F7
:101EF000019212F0450FFAD001200EF092FA28B1AB
:101F000001200EF096FA02B0012010BD04200EF060
:101F100088FA28B104200EF08CFA02B0032010BD1C
:101F2000E94800680D281EBF102002B010BD40F225
:101F3000FF500EF07EFAE54800680090C0F34320A1
:101F4000207002B0002010BD2DE9F84F4FF00007BF
:101F50000A9E90469A4604008DF800703D46B146B0
:101F60007BD0DB480760DB48791E8760C0E900173B
:101F70000121C760C0E904710EF0FCF9D348006884
:101F800010F0007F1CBF0E20BDE8F88FCB48007812
:101F9000022804D14FEA5821060241EACA58701EAD
:101FA000B0F5006F77D2064275D130464FF0000A87
:101FB000012E06D040080AF1010101F0FF0A0128B4
:101FC000F8D1DFF8FCB21020CBE900604020CBE96B
:101FD00002070001CBF8100058460EF0A6F91020B9
:101FE000FEF7D7FE002818BFBDE8F88FB348008978
:101FF0000004CBF800000D20CBF804004020CBF803
:1020000008000020CBF80C004FF48060CBF81000E3
:10201000AB480EF08AF90D20FEF7BBFE002818BF72
:10202000BDE8F88FA94908684FF0FF3710F4807FAA
:1020300054D0002F54D01820CBE900804020002736
:10204000CBE902070001CBF810009D480EF06DF9B6
:102050001820FEF79EFE002800E01CE018BFBDE837
:10206000F88FDFF858829B484FEA0A1188F802700F
:10207000C0E901614FF0FF3101600121C760C0E993
:1020800004710EF077F998F801004FF0FF3A50B361
:10209000012876D0C5E02620BDE8F88F87487F1E4E
:1020A00000890004CBF800000D20CBF8040040208C
:1020B000CBF808000020CBF80C004FF48060CBF880
:1020C00010007F480EF031F90D20FEF762FE002867
:1020D00004BF7E480068A9D0BDE8F88F002FDDD18D
:1020E0002920BDE8F88FFEF75AF8764F386840F29D
:1020F0001A6810EA080F08BF774E29D14FF48040C4
:102100000EF08FF960B3A9EB0500202828BF00204E
:1021100010D210F0030F0EBF81088008411C002070
:1021200000290FD954F8042B3260401C2D1D814228
:10213000F8D807E054F820103160401C0828F9D383
:10214000203420356FF0404A386810EA080FD5D0A7
:1021500008200EF066F950B108200EF06AF970E020
:10216000BAF1000F18BFAAF1010AEDD169E002200F
:102170000EF057F930B102200EF05BF90220BDE8F5
:10218000F88F1CE010200EF04CF928B110200EF052
:1021900050F90520BDE8F88F4FF400700EF041F9BA
:1021A00030B14FF400700EF044F90720BDE8F88F0D
:1021B000FDF7F7FF40F2FF500EF03BF931E088F8F1
:1021C000037088F8027088F804704448016840F28F
:1021D0001A3211430160402231462046FFF783FB4B
:1021E0003B48016841F0080101603D48016811F079
:1021F000006F1ED0BAF1000F18BF4FF0FF301ED095
:1022000098F80410002904BF98F8031000291BD087
:10221000B8B198F8030000281CBF98F80300BDE887
:10222000F88F40F2FF500EF004F96846FFF744FEC5
:1022300012E0BAF1000F18BFAAF1010AD6D1FFF7D8
:10224000A6FA0420BDE8F88F002818BF401ED7D199
:10225000F7E76846FFF730FE002818BFBDE8F88FA3
:102260009DF80010072918BF0629F2D0BDE8F88FA5
:102270002DE9F84F0400DDE90A674FF000009046B1
:102280009A468DF80000054607FB06F965D0104810
:10229000002101600F484A1E8160C0E9002101222F
:1022A000C160C0E904120EF065F80848006810F03B
:1022B000007F1CBF0E20BDE8F88F13E01C0000203B
:1022C000D8170020342C0140102C0140142C014060
:1022D0002C2C0140EC170020802C01403C2C0140AC
:1022E00000640240FC480078022804D106024FEA4C
:1022F000582040EACA58701EB0F5006F2DD2064231
:102300002BD130464FF0000A012E06D040080AF1CA
:10231000010101F0FF0A0128F8D1DFF8C0B3102055
:10232000CBE900604020CBF808000020CBF80C007F
:102330004FF48060CBF8100058460DF0F6FF1020E7
:10234000FEF727FD002818BFBDE8F88F012F40F2E7
:1023500030817E43B6F1007F02D32620BDE8F88F9E
:10236000DD48007800281CBF0128022832D1DA4855
:1023700000890004CBF800003720CBF8040040208F
:10238000CBF808000020CBF80C004FF48060CBF8AD
:102390001000D2480DF0C9FF3720FEF7FAFC0028E4
:1023A00018BFBDE8F88F1720CBE900704020CBF8AC
:1023B00008000020CBF80C004FF48060CBF8100030
:1023C000C6480DF0B2FF1720FEF7E3FC002818BF47
:1023D000BDE8F88F1920CBE9008040200027CBE929
:1023E00002070001CBF81000BC480DF09EFF192039
:1023F000FEF7CFFC002818BFBDE8F88F4FEA0A119E
:10240000B748C0E901614FF0FF3101600121C760A9
:10241000C0E904710DF0AEFFDFF8BC8240F21A3A59
:1024200098F8010010B101287ED0C2E04FF0FF36CD
:10243000FDF7B5FEAB490A6812EA0A0F08BFDFF8DC
:10244000A8A22DD14FF480400DF0EBFF80B3A9EB93
:102450000500202828BF002011D210F0030F0EBF66
:1024600081088008411C0020002911D954F8042B50
:10247000CAF80020401C2D1D8142F7D808E054F80E
:102480002010CAF80010401C0828F8D3203420354A
:102490006FF040469348016840F21A300142D1D0B3
:1024A00008200DF0BEFF48B108200DF0C2FF8EE0FD
:1024B000FFE7002E18BF761EECD188E002200DF059
:1024C000B0FF28B102200DF0B4FF0220BDE8F88F64
:1024D00010200DF0A6FF28B110200DF0AAFF052056
:1024E000BDE8F88F4FF400700DF09BFF30B14FF452
:1024F00000700DF09EFF0720BDE8F88F4FF480704C
:102500000DF08FFFD8B198F8000000281CBF0128FB
:10251000022814D10C20CBE900704020CBE902073F
:102520000001CBF8100000E010E06C480DF0FDFE5B
:102530000C20FEF72EFC002818BFBDE8F88FFDF731
:1025400030FE40F2FF500DF074FF32E088F8037067
:10255000012088F8020088F804706448016841EAA4
:102560000A010160402231462046FFF7BCF960486D
:10257000016841F0080101605E494FF0FF300A68D0
:1025800012F0006F1DD0002818BF4FF0FF301CD094
:1025900098F80410002904BF98F80310002919D0F6
:1025A000A8B198F8030000281CBF98F80300BDE804
:1025B000F88F40F2FF500DF03CFF6846FFF77CFCBF
:1025C00010E0002818BF401ED9D1FFF7E0F8042022
:1025D000BDE8F88F002818BF401ED9D1F7E768463C
:1025E000FFF76AFC002818BFBDE8F88F9DF80010BF
:1025F000072918BF0629F2D0BDE8F88F70B54FF44F
:1026000080700DF00EFF394C334D20B3A8780021B7
:10261000012818BFE9700ED03748016841F4807175
:102620000160206820F49D7020F442402060012069
:102630002871E87870BD29480C22C0E900124022B8
:10264000C0E90221110101610DF06FFE0C20FEF7BF
:10265000A0FBE870E0E702200DF0E3FE58B1022095
:102660000DF0E7FE206820F49D7020F442402060C9
:102670000220E87070BD08200DF0D3FE58B108208C
:102680000DF0D7FE206820F49D7020F442402060B9
:102690000420E87070BD20200DF0C3FE58B120204A
:1026A0000DF0C7FE206820F49D7020F442402060A9
:1026B0000620E87070BD10200DF0B3FEF0B11020C0
:1026C0000DF0B7FE206820F49D7020F44240206099
:1026D0000520E87070BD00001C000020D817002005
:1026E000EC170020342C0140802C01403C2C014090
:1026F0002C2C014000640240382C01404FF4007043
:102700000DF08FFE0028E5D04FF400700DF091FE23
:10271000206820F49D7020F4424020600720E8707B
:10272000D8E76BE7002804BF2620704710B50446A1
:102730005E485F490089000408600D204860402021
:1027400088600020C8604FF48060086108460DF082
:10275000ECFD0D20FEF71DFB002818BF10BD5549EC
:102760000968216010BD08B550480021009100891A
:1027700002044F4802600D2242604022C0E902215B
:10278000110101610DF0D1FD0D20FEF702FB0028C3
:102790001CBFFF2008BD474800680090C0F34320DD
:1027A00008BD2DE9F047CF0D82B0154606464FF023
:1027B00000094FEA412810F0030F4FF4007A1AD0B5
:1027C0000024002D21D9610211EB0802CDF800A0F0
:1027D00047EBE1733848FFF7C8F881464FF40072C1
:1027E0003549304619F06DFC601CC4B206F5007620
:1027F000A542E8D809E0012D0BD0CDE900A2424660
:102800003B463046FFF7F8F9814602B04846BDE83E
:10281000F08742463B463046CDF800A0FFF7A5F8CA
:10282000F2E72DE9F04306460020CF0D83B01546B0
:102830004FEA412816F0030F4FF400791FD000240F
:10284000002D9CBF03B0BDE8F0834FF40072314609
:10285000194819F036FC4FEA442C1CEB0802CDF85D
:10286000009047EBEC731448FFF76EFB611CCCB291
:1028700006F50076A542E8D803B0BDE8F083012D47
:1028800009D0CDE9009242463B463046FFF7F0FCC6
:1028900003B0BDE8F08342463B463046CDF8009099
:1028A000FFF752FB03B0BDE8F08300001C000020DE
:1028B000D8170020142C01408018002010B582B0D9
:1028C000012102200CF09AFA4FF44070012400908C
:1028D0008DF8044000208DF8060003208DF80500D7
:1028E0008DF8074069469F480BF056FE9E48C0F899
:1028F000A042C0F8A44202B010BD70B5994801686A
:1029000021F440210160016841F480210160964C6E
:102910000120C4F8A402C4F8A002042004F528741D
:102920000BF045FC0025656004200BF040FC2560A1
:1029300070BD8C4810B5016821F440210160016828
:1029400041F480210160884C0020C4F8A002C4F842
:10295000A402042004F528740BF029FC0120206057
:102960006060BDE8104004200BF021BC2DE9F0416F
:102970007C4E0024306820F44020306030683060A5
:10298000794D0127C5F8A47238460BF010FCC5F844
:10299000A07201200BF00BFCD5F82402002100B33B
:1029A000601CC4B2FA2C18D9306820F44020306082
:1029B000306840F480203060C5F8A012C5F8A41239
:1029C00004200BF0F4FBC5F8A072C5F8A472042033
:1029D0000BF0EDFB0120BDE8F081D5F824020028C2
:1029E000DED1C5F8A0120020BDE8F08170B55E4CC4
:1029F0000025C4F8A0525B48016821F44021016021
:102A0000016841F480210160C4F8A452022004F559
:102A100028740BF0CCFB0120206002200BF0C7FBD8
:102A2000256070BD70B5504C0025C4F8A0524D48CB
:102A3000016821F440210160016841F480210160B6
:102A40000126C4F8A462022004F528740BF0AFFB41
:102A5000266002200BF0ABFB256070BD2DE9F04134
:102A600005464048016821F440210160016841F4B5
:102A7000802101603C4F4FF00008C7F8A082444617
:102A80000126E809C7F8A4026806050E02200BF02B
:102A90008EFBC7F8A06202200BF089FBC7F8A0826A
:102AA00002200BF084FB601CC4B2082CE9D3BDE803
:102AB000F0812DE9F047DFF8AC9082460024D9F888
:102AC000000020F44020C9F80000D9F80000C9F83F
:102AD0000000254F254626464FF00108C7F8A062A2
:102AE00002200BF064FBC7F8A0826006040ED7F842
:102AF000240200281CBF601CC4B201200BF057FB4D
:102B0000681CC5B2082DE9D3BAF1000FC7F8A0625E
:102B1000D9F8000020F44020C9F80000D9F80000DE
:102B200040F48020C9F800000ED0C7F8A46202204B
:102B30000BF03DFBC7F8A08202200BF038FBC7F872
:102B4000A0622046BDE8F087C7F8A48202200BF0FF
:102B50002EFBC7F8A08202200BF029FBC7F8A06269
:102B6000EFE700000004024000804042FFF7A6BEED
:102B700010B50446FFF7C1FE200AA02101EB40007A
:102B8000C0B2FFF76BFFFFF7F1FEE0B2FFF766FFA1
:102B9000FFF7ECFEFFF7B1FEA120FFF75FFFFFF7A5
:102BA000E5FE0020FFF785FF0446FFF7C2FE204642
:102BB00010BD70B50D460446FFF79FFE200AA02207
:102BC00002EB4000C0B2FFF749FFFFF7CFFEE0B2D3
:102BD000FFF744FFFFF7CAFE2846FFF73FFFFFF766
:102BE000C5FEFFF7A6FEBDE870400A200BF0FBBA59
:102BF0002DE9F04716000F4680464FF0000414BF41
:102C00004FF0A00ABDE8F08708EB0405E00027FAC2
:102C100000F000F0FF09FFF770FE280A0AEB400001
:102C2000C0B2FFF71BFFFFF7A1FEE8B2FFF716FFE8
:102C3000FFF79CFE4846FFF711FFFFF797FEFFF7EF
:102C400078FE0A200BF0CFFA601CC4B2A642DBD893
:102C5000BDE8F0872DE9F0470E0001464FF0000077
:102C600004461ABF01EB06084FF0A009BDE8F08743
:102C70000702A8EB0400451EFFF73FFE280A09EBF8
:102C80004000C0B2FFF7EAFEFFF770FEE8B2FFF7C0
:102C9000E5FEFFF76BFEFFF730FEA120FFF7DEFE3B
:102CA000FFF764FE0020FFF704FF0546FFF741FE33
:102CB000611CE819CCB2A642DAD8BDE8F08710B59D
:102CC000FF20FFF755FF55280AD05521FF20FFF7B9
:102CD00070FFFF20FFF74CFF55281CBF012010BDDF
:102CE000002010BD002A08BF70472DE9F0411446AE
:102CF0000E4605464FF0A0082F46681C85B2FFF728
:102D0000FCFD380A08EB4000C0B2FFF7A7FEFFF752
:102D10002DFEF8B2FFF7A2FEFFF728FEFFF7EDFD4C
:102D2000A120FFF79BFEFFF721FE0020FFF7C1FE69
:102D30000746FFF7FEFD601E040406F8017B240C25
:102D4000DAD1BDE8F0812DE9F0410546501E0E466E
:102D500084B22CBFA027BDE8F08196F80080FFF771
:102D6000CCFD280A07EB4000C0B2FFF777FEFFF763
:102D7000FDFDE8B2FFF772FEFFF7F8FD4046FFF7F2
:102D80006DFEFFF7F3FDFFF7D4FD0A200BF02BFAE1
:102D9000681C611E85B28CB206F10106DDD2BDE869
:102DA000F0810000F0B50C460546012185B01F46B4
:102DB000164688030CF03DF8012188030CF066F8F4
:102DC00000214FF480400CF061F8ADF80470002051
:102DD000ADF80040ADF8060002209F4C0290ADF81F
:102DE0000250ADF80C60694620460DF013F901223F
:102DF000022120460DF012FA012120460DF09DF926
:102E000005B0F0BD10B584B081F48071ADF800104C
:102E1000ADF80200ADF804300020ADF80600022045
:102E20008E4C0290ADF80C20694620460DF0BDF99D
:102E30000122114620460DF0F1F9012120460DF046
:102E40007CF904B010BD864970B5A1FB00100024C8
:102E5000844DC00804EB840135F81110814203D081
:102E6000611CCCB20B2CF5D300200BF0F1FE0B2C27
:102E700004BF012070BD04EB840005EB4004A18871
:102E800060880BF0DFFE7848016841F080610160E6
:102E9000016811F0006FFBD0E088217A40EA012040
:102EA000724940F400700880002070BD2DE9F041A7
:102EB0000F460546012190B0164648050BF09EFFCF
:102EC000DFF8AC8140460DF0E7FA40460DF006FC15
:102ED0000028FAD1674940460DF069FC6648002495
:102EE000CDE900404020CDE9025004960001CDE933
:102EF0000540400007908000089040110990400272
:102F0000CDE90A040C940D94694640460E940DF0E8
:102F10005AFB0022394640460DF0C0FB01214046D5
:102F20000DF0C6FB0122102140460DF003FC0F20DE
:102F30008DF83C008DF83D408DF83E4001208DF825
:102F40003F000FA80BF039FA10B0BDE8F081F0B5E2
:102F50000E460446012191B0154648050BF04EFF80
:102F6000464F38460DF098FA38460DF0B7FB00286A
:102F7000FAD1434938460DF01AFC4FF0C06000907A
:102F80004048CDE901040024CDE903450015CDE911
:102F90000540400007908000089040110990000211
:102FA000CDE90A040C940D94694638460E940DF050
:102FB0000AFB0022314638460DF070FB01213846ED
:102FC0000DF076FB0122102138460DF0B3FB0E20E8
:102FD0008DF83C008DF83D4001208DF83E008DF8C5
:102FE0003F000FA80BF0E9F911B0F0BD70B5264C09
:102FF0001F4D214628460DF0B5FB012818BF70BDB6
:10300000214628460DF0D3FB20480068BDE87040FB
:10301000004770B51E4C194D214628460DF0A2FB05
:10302000012818BF70BD214628460DF0C0FB174887
:103030004068BDE87040004701210D480DF00EBB0F
:1030400000210B480DF00ABB01210C480DF006BB16
:1030500000210A480DF002BB003800400034004057
:10306000CDCCCCCC0ECC010800380240203800403A
:10307000706002403DF000A00C38004058600240F3
:1030800000F0409F0C340040208000202C000020E5
:103090000080001870B50C460546FFF72EFC342062
:1030A000FFF7DCFCFFF762FC00281CBF012070BDAD
:1030B000C4F3002040EA4500C0B2FFF7CFFCFFF7A1
:1030C00055FC00281CBF022070BDE0B2FFF7C6FC13
:1030D000FFF74CFC00281CBF032070BDFFF729FC44
:1030E000E24820F81540002070BD2DE9F04182B083
:1030F000012106200BF082FE02248DF804400027F7
:103100004FF440508DF806700325DFF8648300907B
:103110008DF8055001268DF80760694640460BF092
:103120003BFA8DF804404C208DF80670D14C00908D
:103130008DF805508DF80760694620460BF02CFA93
:1031400005220C2140460BF0ABFA05220D2140462A
:103150000BF0A6FA0522032120460BF0A1FA052266
:10316000062120460BF09CFA0622022120460BF095
:1031700097FAFFF7A3FB00210846FFF78BFF002813
:103180001EBF012002B0BDE8F0811B210120FFF726
:1031900081FF4FF4D8710220FFF77CFF6C210320E0
:1031A000FFF778FF00210620FFF774FF10212B2086
:1031B000FFF770FF4FF480712F20FFF76BFF4FF484
:1031C00080713020FFF766FF02213120FFF762FF98
:1031D00008210A20FFF75EFF08210E20FFF75AFFA3
:1031E00002B00020BDE8F081A04931F8100070471E
:1031F00070B59E4C0D460028E18814BF41F00301D4
:1032000021F003010320FFF745FFA088002D14BF24
:1032100040F0030120F003010220BDE8704039E7CF
:1032200070B5924D00F00704B5F85E0020F007007D
:1032300040EA04012F20FFF72DFFB5F8600020F0D1
:10324000070040EA0401BDE87040302022E770B575
:10325000864D00F00704B5F85E0020F0700040EAEB
:1032600004112F20FFF716FFB5F8600020F0700062
:1032700040EA0411BDE8704030200BE72DE9F04131
:103280007A4C0F461646A188050014BF41F00C0188
:1032900021F00C010220FFF7FDFEB4F85810002DBC
:1032A00014BF41F0330121F033012C20FFF7F2FE6F
:1032B000B4F85E0087B120F0700040F050012F207C
:1032C000FFF7E8FEB4F8600020F0700040F0500115
:1032D0003020FFF7DFFE0BE020F070012F20FFF71A
:1032E000D9FEB4F8600020F070013020FFF7D2FE64
:1032F000B4F85E0066B140F007012F20FFF7CAFE68
:10330000B4F86000BDE8F04140F007013020C1E6AC
:1033100020F007012F20FFF7BDFEB4F86000BDE8E4
:10332000F04120F007013020B4E610B50024002859
:1033300018BF0124002918BF44F01604214632208A
:10334000FFF7A8FE2146BDE810403320A2E610B5E5
:1033500000F03F0421462D20FFF79CFE44F48071CD
:10336000BDE810402E2095E6800701F00301C00E55
:1033700040EA411104208DE610B50A4610F03F01E5
:1033800002F03F0408BF4021002C08BF4024342035
:10339000FFF780FE44F48071BDE81040352079E6E7
:1033A00010B510F03F0408BF402421463620FFF737
:1033B00071FE44F48071BDE8104037206AE600F0E9
:1033C0000F01292066E629490028898C14BF41F4A1
:1033D000807121F4807112205CE600F0030218294C
:1033E00088BF1821C1F11800C1B22048808C00F4B8
:1033F000807040EA4210014312204BE6002200F0A8
:103400000303182988BF1821C1F11800C0B242EA8D
:103410004311014313203DE6002200F00303182965
:1034200088BF1821C1F11800C0B242EA431101431C
:1034300014202FE6002200F00303182988BF18216A
:10344000C1F11800C0B242EA43110143152021E640
:10345000002200F00303182988BF1821C1F11800C9
:10346000C0B242EA43110143162013E634000020A3
:10347000000402400008024030B50D46044685B005
:10348000012102200BF0D5FC01940020ADF8005082
:10349000354CADF80200ADF80800694620460CF046
:1034A0003AF80122114620460CF021FC0121204669
:1034B0000CF0B1F81D208DF80C0001208DF80D00E6
:1034C00003218DF80E108DF80F0003A80AF075FF88
:1034D00005B030BD10B5244C012120460CF01BFC7A
:1034E0002046BDE8104001210CF020BC10B51F4C57
:1034F000012120460CF00FFC012801D11C49087065
:103500002046BDE8104001210CF010BC30B50D463E
:10351000044685B0012110200BF08BFC0194ADF81E
:1035200000500024114DADF80240ADF80840694646
:1035300028460BF0F0FF0122114628460CF0D7FB7D
:10354000012128460CF067F836208DF80C008DF824
:103550000D4003208DF80E0001208DF80F0003A808
:103560000AF02BFF05B030BD000400400010004001
:10357000A800002002200AF01ABE10B582B0012176
:1035800022200BF03BFC01248DF8044000208DF834
:10359000060000948DF807406946AA480AF0FCFF2F
:1035A000E00200908DF804406946A7480AF0F4FF55
:1035B00002B010BD70B5A448016821F4400101605B
:1035C000016841F480010160A04D0120C5F8AC0202
:1035D0009F4EC6F880021E2005F52B7506F5207655
:1035E0000AF0E5FD00242C6002200AF0E0FD3460C2
:1035F00070BD70B59448016821F440010160016814
:1036000041F48001016092480125C0F880521E20DB
:103610000AF0CDFD8D4C0020C4F8AC02022004F568
:103620002B740AF0C4FD256070BD2DE9F047864F6C
:103630000024386820F44000386038683860834DD2
:103640004FF00108C5F8AC82814EC6F88082022096
:103650000AF0ADFDD5F82C02A14608B3601CC4B237
:10366000FA2C16D9386820F440003860386840F4E5
:1036700080003860C6F880821E200AF098FDC5F8E8
:10368000AC9202200AF093FDC5F8AC820120BDE89F
:10369000F08702200AF08BFDD5F82C020028DDD13E
:1036A000C6F880920020BDE8F08770B5684D002410
:1036B000C5F880426448016821F440010160016856
:1036C00041F480010160022005F520750AF06FFDCC
:1036D0005E48C0F8AC4202200AF069FD0120286073
:1036E00002200AF064FD2C6070BD70B5584E0024B5
:1036F000C6F880425448016821F440010160016825
:1037000041F480010160022006F520760AF04FFDA9
:103710004E480125C0F8AC5202200AF048FD356041
:1037200002200AF044FD346070BD2DE9F0470546E3
:103730004548016821F440010160016841F48001BD
:103740000160434E4FF00008C6F8808202200AF064
:103750002EFD0024DFF8F4900127E809C9F8AC0237
:103760006806050EC6F8807202200AF020FDC6F831
:10377000808202200AF01BFD601CC4B2082CECD32E
:10378000BDE8F0872DE9F05FDFF8BCA08346002498
:10379000DAF8000020F44000CAF80000DAF800006F
:1037A000CAF800001E200AF002FD0025284EDFF8AE
:1037B0009C902F464FF00108C6F8807202200AF054
:1037C000F6FCC6F880826006040ED9F82C020028A8
:1037D0001CBF601CC4B2681CC5B2082DECD3BBF181
:1037E000000FC6F88072DAF8000020F44000CAF832
:1037F0000000DAF8000040F48000CAF800004FF042
:10380000020010D00AF0D3FCC9F8AC7202200AF012
:10381000CEFCC6F8808202200AF0C9FCC6F880728D
:103820002046BDE8F09F0AF0C2FCC9F8AC82022035
:103830000AF0BDFCC6F8808202200AF0B8FCC6F887
:103840008072EDE700040240001402400080424212
:10385000008040422DE9F04116460D4604460027FF
:10386000FFF7A8FE7020FFF760FFFFF7DEFEE0B273
:10387000FFF75BFFFFF7D9FE0024002E0AD9285D71
:10388000FFF753FFFFF7D1FE070003D1601CC4B25E
:10389000B442F4D3FFF7ADFE3846BDE8F0812DE920
:1038A000F04115460E460446FFF784FE7020FFF7F0
:1038B0003CFFFFF7BAFEE0B2FFF737FFFFF7B5FEB8
:1038C000FFF778FE7120FFF730FFFFF7AEFE002410
:1038D000002D88BF6F1E0AD9BC4214BF01200020F2
:1038E000FFF750FF3055601CC4B2AC42F4D3BDE8C2
:1038F000F041FFF77EBE70B584B0012106200BF0C9
:103900007DFA0220002402908DF80C408DF80E40C4
:1039100003208DF80D0001258DF80F5002A98C4869
:103920000AF03AFE680302908DF80C5002A989480B
:103930000AF032FEFFF721FE874EC6F8B44214208B
:1039400006F52D760AF04FFC356032200AF04BFC6C
:103950008DF80040012269460020FFF77BFF01221D
:103960006946A420FFF776FF16208DF8000001229B
:1039700069468020FFF76EFF0C208DF800000122C1
:1039800069468820FFF766FF02226946A120FFF7FB
:1039900086FF9DF80000302807BF9DF8010003282E
:1039A000012004B018BF70BD43F203016BA018F0F2
:1039B0009BFE04B0002070BD2DE9F14FDFF8A8B1E7
:1039C000002582B09BF80000DFF8A491401CC1B232
:1039D00066482C46A0FB0120C008404200EB800056
:1039E0008BF8001011EB400001D00A297ED2012291
:1039F00002A90220FFF753FF9DF8080010F00F0FF7
:103A000074D000F00F0006287FD2FF2101FA00F0E9
:103A1000C04340F0C00089F820004FF0000A99F838
:103A200020100120A84001425DD05248E8460426FB
:103A300010F81540FFF7BEFD7020FFF776FEFFF788
:103A4000F4FDE0B2FFF771FEFFF7EFFDFFF7B2FD07
:103A50007120FFF76AFEFFF7E8FD0024771EBC42E5
:103A600014BF01200020FFF78DFE08F80400601C41
:103A7000C4B2B442F3D3FFF7BCFD99F830009DF80F
:103A8000001010F0010F9DF8010001F00F010ED0A1
:103A900000EB012109EB4500C1829DF802209DF851
:103AA000031002F00F0201EB022181810FE000EB15
:103AB0000120C0F5F07109EB450081819DF80220DD
:103AC0009DF8031002F00F0201EB0221C1829DF864
:103AD000000000F0F000802805D009EB4500A0F8B8
:103AE00016A0A0F80CA0681CC5B200E00DE0052DE2
:103AF00095D3B9F80C100124002902BFB9F81600BB
:103B000000288DF808A08BF800A09DF8080010F0A0
:103B10001F0F11D199F8200010F0800F18BF20F06E
:103B2000800007D14FF6FF71A9F80C10A9F8161004
:103B300000F0E00089F820009BF80000F02884BF26
:103B40000A208BF80000204603B0BDE8F08F00008B
:103B5000000402400008024000004142435450204B
:103B600049443A25780D0A00A9000020CDCCCCCCE0
:103B7000B00000207CCC01082DE9F04115460E462E
:103B800004460027FFF716FD2820FFF7CEFDFFF7BC
:103B90004CFD200AFFF7C9FDFFF747FDE0B2FFF734
:103BA000C4FDFFF742FD0024002D0AD9305DFFF768
:103BB000BCFDFFF73AFD070003D1601CC4B2AC4264
:103BC000F4D3FFF716FD3846BDE8F08108B50021B3
:103BD0008DF800108DF80100D4489DF80020435C5A
:103BE000491C1A44C9B28DF80020B829F5D3D0B2C7
:103BF000C043401C8DF80000B822CC4948F2470071
:103C0000FFF7BAFF0222694648F2FF00FFF7B4FF50
:103C1000002008BD2DE9F04115460E460446FFF789
:103C2000C9FC2820FFF781FDFFF7FFFC200AFFF702
:103C30007CFDFFF7FAFCE0B2FFF777FDFFF7F5FC3C
:103C4000FFF7B8FC2920FFF770FDFFF7EEFC00241A
:103C5000002D88BF6F1E0AD9BC4214BF012000206E
:103C6000FFF790FD3055601CC4B2AC42F4D3BDE800
:103C7000F041FFF7BEBC2DE9F04186B001210620DE
:103C80000BF0BCF800248DF804408DF806400320AA
:103C90008DF80500DFF898820227012500978DF83E
:103CA0000750694640460AF077FC680300908DF89B
:103CB000045069469F480AF06FFCFFF75EFC9E4E79
:103CC000C6F8B4420A2006F52D760AF08CFA356063
:103CD0000A200AF088FA8DF8045000978DF8074002
:103CE000694640460AF058FC64200AF07CFA042237
:103CF00002A948F24010FFF78DFF8DF80C4002A991
:103D00008EA018F0F1FC90A102A818F006FA002885
:103D10001EBF012006B0BDE8F0818DF808700122B9
:103D200002A948F24000FFF727FF012202A948F24A
:103D30004700FFF76FFF9DF80810602924D284A088
:103D400018F0D2FC01218DF810408DF81110774940
:103D500000209DF810200B5C401C1A44C0B28DF866
:103D60001020B828F5D3D0B2C043401C8DF8100005
:103D7000B8226E4948F24700FFF7FEFE022204A96E
:103D800048F2FF00FFF7F8FE0A200AF02CFA8DF83F
:103D90000840012202A948F24000FFF7EDFE06B0FC
:103DA0000020BDE8F0812DE9F1476E4D002483B07D
:103DB00028786E4F401CC1B26B48A146A0FB012081
:103DC000C008404200EB8000297011EB400001D098
:103DD0000A297DD2012203A948F24E10FFF71AFFEB
:103DE0009DF80C004FF0000810F0800F0BD000F091
:103DF0000F00062807D28DF80480012201A948F29D
:103E00004E10FFF7B9FE9DF80C0010F00F0F6ED0AA
:103E100000F00F0006286AD2FF2101FA00F08DF8A9
:103E20000400C04397F8206040F0C00087F82000ED
:103E3000B889B882F88ADFF838A1F8834FF0010911
:103E400097F8200009FA04F1084225D03AF8140046
:103E500004226946FFF7DEFE97F830009DF8011056
:103E600010F0010F9DF8000000EB012107EB44006A
:103E70000AD0C1829DF802109DF8032001EB0221B7
:103E8000C1F54871818107E081819DF802109DF89C
:103E9000032001EB0221C182601CC4B2052CCFD3E8
:103EA0003449BA894FF001090B883846934206D34A
:103EB000C28A4988914228BF85F8008017D29DF8B0
:103EC0000C1001F00F01012908D9C189818100E09E
:103ED0000DE0018BF98285F8008008E0818A8181FC
:103EE000C18BC18280218DF80C1087F820609DF86D
:103EF0000C0000F08F0080280FD197F8200010F000
:103F0000800F18BF20F0800005D14FF6FF71B981F6
:103F1000F98200F0E00087F820002878F02884BFBC
:103F20000A202870484604B0BDE8F08786CC010816
:103F30000004024000080240000041424354502067
:103F400049443A25730D0A00393134370000000026
:103F500044656661756C74205665723A25640D0A75
:103F600000000000AA000020CDCCCCCCB000002086
:103F70003ECD0108801A00202DE9F04115460E467D
:103F800004460027FFF716FBB220FFF7CEFBFFF732
:103F90004CFB200AFFF7C9FBFFF747FBE0B2FFF736
:103FA000C4FBFFF742FB0024002D0AD9305DFFF768
:103FB000BCFBFFF73AFB070003D1601CC4B2AC4264
:103FC000F4D3FFF716FB3846BDE8F0812DE9F04148
:103FD00015460E460446FFF7EDFAB220FFF7A5FBA3
:103FE000FFF723FB200AFFF7A0FBFFF71EFBE0B261
:103FF000FFF79BFBFFF719FBFFF7DCFAB320FFF796
:1040000094FBFFF712FB0024002D88BF6F1E0AD916
:10401000BC4214BF01200020FFF7B4FB3055601CE8
:10402000C4B2AC42F4D3BDE8F041FFF7E2BAF8B550
:1040300000218DF8001000281CBF80208DF80000A2
:104040006D460126FFF7B6FAB220FFF76EFBFFF7C9
:10405000ECFA0D20FFF769FBFFF7E7FA0020FFF706
:1040600064FBFFF7E2FA0024285DFFF75EFBFFF731
:10407000DCFA18B9601CC4B2B442F5D3FFF7B9FA40
:10408000F8BD70B584B000248DF8084001210620E9
:104090000AF0B4FE022000908DF804408DF806402E
:1040A00003208DF8050001258DF8075069469A48D0
:1040B0000AF072FA680300908DF804506946974838
:1040C0000AF06AFAFFF759FA954EC6F8B44264202E
:1040D00006F52D760AF087F8356064200AF083F83B
:1040E00080208DF80C0003AD0126FFF763FAB220A3
:1040F000FFF71BFBFFF799FA0D20FFF716FBFFF701
:1041000094FA0020FFF711FBFFF78FFA285DFFF705
:104110000CFBFFF78AFA18B9601CC4B2B442F5D39D
:10412000FFF767FA012202A94FF45060FFF74EFF34
:104130009DF808107BA018F0D7FA9DF80800802899
:104140000CBF0020012004B070BD2DE9F14FDFF855
:10415000E0A100252DED068B82B02C469AF80000D8
:10416000DFF8D491401CC1B272488AF80010A0FB5D
:104170000120C008404200EB800011EB400001D05C
:104180000A2974D2012208A90020FFF71FFF9DF819
:10419000200010F01F0F6BD000F01F0040F0C00097
:1041A00089F820004FF0010B9FED65AB9FED668B0A
:1041B0009FED679B99F820000BFA05F1084272D039
:1041C00065486F46042630F81540FFF7F3F9B22032
:1041D000FFF7ABFAFFF729FA200AFFF7A6FAFFF775
:1041E00024FAE0B2FFF7A1FAFFF71FFAFFF7E2F9AE
:1041F000B320FFF79AFAFFF718FA0024A6F1010896
:10420000444514BF01200020FFF7BCFA3855601C5C
:10421000C4B2B442F4D3FFF7ECF999F830009DF83A
:10422000021010F0010F9DF8030000EB012020D0D8
:1042300018F0A3F853EC182B18F02DF818F0AAF882
:1042400009EB4504E0829DF801009DF8001000EBA9
:10425000012018F092F853EC192B18F01CF853ECCD
:104260001A2B18F015F818F095F8A0811BE02BE038
:104270003CE018F082F853EC182B18F00CF818F00A
:1042800089F809EB4504A0819DF801009DF8001014
:1042900000EB012018F071F853EC192B17F0FBFF1D
:1042A00018F078F8E082681CC5B2052D82D3B9F801
:1042B0000C2001240021002A02BFB9F816000028B2
:1042C0008DF820108AF800109DF8200010F01F0FC4
:1042D0000CD09AF80000F02884BF0A208AF8000069
:1042E000204602B0BDEC068BBDE8F88F99F820108F
:1042F00011F0800F11BF21F080004FF6FF70A9F878
:104300000C00A9F8160008BF01F0E00089F82000B1
:10431000DFE7000000000000000402400008024047
:10432000000041424354502049443A25780D0A0088
:10433000AB000020CDCCCCCCB000002000000000B1
:1043400000000000000089407B14AE47E17AD43FB2
:10435000D881734694F6D23F48CD01080000000092
:1043600038B5FC4C002000906168884794F8200024
:1043700010F0800008BF38BDA189F74802888A4242
:1043800098BF38BDE18A4088884288BF012038BD87
:104390002DE9F0470024DFF8C493F14E0546A0460E
:1043A000012715F0800F14BFC9F8AC72C9F8AC82B0
:1043B0006806050EC6F88082012009F0F8FEC6F8EE
:1043C0008072601CC4B2082CEBD3BDE8F0872DE9E5
:1043D000F05FDFF88C93002405462746C9F8804239
:1043E000DFF878B3CBF8AC42DFF878A3CAF8B44270
:1043F00026464FF0010815F0800F14BFCBF8AC82B1
:10440000CBF8AC726806050EC9F88072012009F07D
:10441000CEFEC9F88082701CC6B2082EEBD30620EF
:1044200009F0C5FEC9F88072012009F0C0FEC9F884
:104430008082012009F0BBFEC9F8807200254FF68A
:10444000FF7606EA4404C9F88072012009F0AFFE45
:10445000C9F88082D9F8080200281CBF601C84B209
:10446000681CC5B2102DECD32009CAF8B482BDE88F
:10447000F09F70B584B0064600246D463046FFF7C5
:10448000A6FF25F81400601C84B2052CF6D3002189
:1044900001F1010C1FFA8CF005280DD235F811201E
:1044A00035F810309A4284BF25F8113025F81020D5
:1044B000401C80B20528F1D31FFA8CF10429E7D300
:1044C0000021012035F81020401C114480B289B22F
:1044D0000428F7D34AF6AB20484304B0400C70BD23
:1044E0002DE9F041A04E04460F463078FFF7C1FF9A
:1044F00005467078FFF7BDFF258038800120BDE8B4
:10450000F081F0B5984F064685B00D463878FFF734
:10451000B0FF04467878FFF7ACFFADF80840ADF87F
:1045200000003878FFF7A5FF04467878FFF7A1FF71
:10453000BDF80820ADF80C40ADF8040094429CBFD3
:1045400004F132018A4205D3A2429CBF02F132013A
:104550008C421AD2BDF80030834224BF00F13201F0
:10456000994205D883429CBF03F1320188420CD2A4
:10457000101940083080BDF80000BDF80410084450
:104580004008288005B00120F0BD05B00020F0BD36
:104590002DE9F041054675480C460B46028005F1B1
:1045A0000D0082B2193880B209F03FFB04F10D0012
:1045B00083B2193881B22A46104609F036FB671CCF
:1045C0006E1CB9B2B0B201F0C5F8B9B26F1EB8B284
:1045D00001F0C0F8A4F101081FFA88F1B0B201F0AF
:1045E000B9F81FFA88F1B8B201F0B4F821462846AC
:1045F000BDE8F041062209F088BB70B506465B486D
:104600000C460280304601F0A5F8751CA8B2214680
:1046100001F0A0F8641CA1B2304601F09BF8A1B2F1
:10462000A8B2BDE8704001F095B84D4910B5D1F879
:104630000412484C51B194F8200010F0800F1CBFB8
:1046400020F0800084F8200041D047E0002804F1E9
:10465000160104F10C0002D0FFF753FF2AE0FFF728
:1046600050FF38B3B4F92C0094ED091A00EE100A8B
:10467000A08900EE900AB8EEC00AF8EE600A01EEDA
:10468000200ABCEEC00A10EE100AA081B4F92E0078
:1046900094ED0A1A00EE100AE08A00EE900AB8EED5
:1046A000C00AF8EE600A01EE200ABCEEC00A10EE65
:1046B000100AE08294F8200010F0800F0ED1C02084
:1046C00084F82000A089A082E08AE08306E0002030
:1046D000A082E0834FF6FF70A081E08294F8200072
:1046E00000F0800010BD10B51A4C04222DED028B95
:1046F000282094ED090A9FED1E8A20EE080ABDEEDF
:10470000C00A10EE101AFEF773FA94ED0A0A04229A
:104710002C2020EE080ABDEEC00A10EE101AFEF79B
:1047200067FAB4F92C1002223020FEF761FAB4F9CE
:104730002E1002223220FEF75BFA94F8301034205B
:10474000FEF737FABDEC028B0A21BDE81040352098
:10475000FEF72FBAB0000020801A002000804242ED
:104760000080404200004142AC000020E4000020F4
:1047700020BCBE4C9FEDFE0AFE4880ED090A9FED6D
:10478000FE0A6FF0140180ED0A0A8185C91CC185FB
:10479000002180F83010001FD0210170902141705D
:1047A000012070472DE9FF4F83B08B4610A94FF4CD
:1047B000784091E8C007F1491024F24D0880F0A03C
:1047C000CDE900406B882A88A021282009F088FCC8
:1047D000EDA0CDE900406B882A88A021782009F05F
:1047E0007FFCEAA0CDE900406B882A88B42128200C
:1047F00009F076FCE6A0CDE900406B882A88B42158
:10480000782009F06DFCE3A0CDE900406B882A8890
:10481000C821282009F064FCDFA0CDE900406B88A6
:104820002A88C821782009F05BFCDCA0CDE9004093
:104830006B882A88DC21282009F052FCD8A0CDE919
:1048400000406B882A88DC21782009F049FCD5A03B
:10485000CDE900406B882A88F021282009F040FC2F
:1048600004230094A0214020039A09F092FB042322
:104870005A46A0219020009409F08BFB0094042359
:10488000B4214020059A09F084FB04230094B4214C
:104890009020069A09F07DFB04233246C82140206F
:1048A000009409F076FB04233A46C8219020009436
:1048B00009F06FFB04234246DC214020009409F0FC
:1048C00068FB04234A46DC219020009409F061FB38
:1048D00003235246F0216020009409F05AFB07B0F0
:1048E000BDE8F08F2DE9F04FA44E1F202DED0E8B6B
:1048F0008BB000252C46AD4930804FF6FF70088004
:1049000001F003FF4FF4784030804FF6FF7001F064
:10491000FCFE00273780A64E10202821366864232D
:10492000CDE90006A022084609F0DAFB14214FF475
:1049300078420846FFF72CFEDFF8388288F82070AE
:104940009FED9C0A88ED090A9FED9BCB9FED9CDBB8
:104950009FED9DBB8B4FB6EE00EA4FF0900AA8F199
:1049600004094FF0D00BD8F804100120884798F8BC
:10497000200000F0C001402949D120F0400088F813
:10498000200006A8B8F80C1020F8251000EB8500D0
:10499000B8F816104180681C0024C5B2012D06D05D
:1049A000022D13D0032D20D0042D53D02FE014213D
:1049B0004FF6FF720846FFF7EBFD38884FF4784258
:1049C000143880B21421FFF7E3FD20E038884FF659
:1049D000FF72143880B21421FFF7DAFD78884FF4A3
:1049E0007842143881B214200FE078884FF6FF72B5
:1049F000143881B21420FFF7CBFD78884FF4784249
:104A0000143881B23888143880B2FFF7C1FD0A200B
:104A100009F0E9FB601C84B2B4F57A7FA3D99FED5D
:104A2000540A88ED090A9FED540A6FF0140088EDCE
:104A30000A0AA8F82C00C01CA8F82E00002088F84C
:104A4000300089F800B089F801A00BB0BDEC0E8BE6
:104A5000BDE8F08FBDF81800BDF81C10411A48BF22
:104A60004942BDF81A00BDF81E20801A48BF4042D6
:104A700049434043084417F080FC41EC100B17F009
:104A800043FE51EC100B17F085FC85B2BDF82000F9
:104A9000BDF82410411A48BF4942BDF82200BDF8B4
:104AA0002620801A48BF404249434043084417F03B
:104AB00064FC41EC100B17F027FE51EC100B17F0C3
:104AC00069FC00EE105A86B2F8EE400A00EE106A59
:104AD000B8EE401A80EE810A10EE100A17F073FC4F
:104AE000B0EE4C9AF0EE6C9A41EC180B53EC192B8B
:104AF00017F07CFC6CD3B0EE4DAAF0EE6DAA53EC2F
:104B00001A2B51EC180B17F089FC61D3002D18BF3C
:104B1000002E5DD0BDF81800BDF82010411A48BF26
:104B20004942BDF81A00BDF82220801A48BF404211
:104B300049434043084417F020FC41EC100B17F0A8
:104B4000E3FD51EC100B17F025FC85B2BDF81C00FD
:104B5000BDF82410411A48BF4942BDF81E00BDF8F7
:104B60002620801A48BF404249434043084430E071
:104B70001101873DB0000020247FB03DE4000020FB
:104B800078313A00801A002079313A0078323A00C0
:104B900079323A0078333A0079333A0078343A007F
:104BA00079343A006661632069733A00E6000020B8
:104BB00054CD010800000000666666666666EE3F3A
:104BC000CDCCCCCCCCCCF03F000000000000594054
:104BD00058E017F0D2FB41EC100B17F095FD51ECAB
:104BE000100B17F0D7FB00EE105A80B2F8EE400A17
:104BF00000EE100AB8EE401A80EE810A10EE100A9C
:104C000017F0E1FB41EC180B53EC192B17F0EEFBFE
:104C100006D353EC1A2B51EC180B17F0FFFB63D2A1
:104C200078880025143881B238884FF6FF7214381E
:104C300080B2FFF7ADFC14214FF478420846FFF72D
:104C4000A7FC53EC1B2B51EC180B17F024FB17F0AF
:104C5000A1FB80B2BDF82610BDF82430BDF822209B
:104C6000CDE90310CDE90123BDF820000090BDF887
:104C70001E30BDF81C20BDF81A10BDF81800FFF753
:104C800091FD70E678880025143881B238884FF697
:104C9000FF72143880B2FFF77BFC14214FF4784286
:104CA0000846FFF775FC53EC1B2B51EC180B17F063
:104CB000F2FA17F06FFB80B2BDF82630BDF8242061
:104CC000BDF82210CDE90330CDE90112BDF8200076
:104CD0000090BDF81E30BDF81C20BDF81A10BDF8BC
:104CE0001800FFF75FFD3EE6BDF81C00BDF8201080
:104CF000411A48BF4942BDF81E00BDF82220801A63
:104D000048BF404249434043084417F036FB41EC5A
:104D1000100B17F0F9FC51EC100B17F03BFB85B2B0
:104D2000BDF81800BDF82410411A48BF4942BDF82B
:104D30001A00BDF82620801A48BF4042494340432C
:104D4000084417F01AFB41EC100B17F0DDFC51EC96
:104D5000100B17F01FFB00EE105A80B2F8EE400A5D
:104D600000EE100AB8EE401A80EE810A10EE100A2A
:104D700017F029FB41EC180B53EC192B17F036FBFD
:104D8000FFF44EAF53EC1A2B51EC180B17F046FB07
:104D9000FFF446AFBDF81C10BDF818000A1A00EE6B
:104DA000102A3A880844B8EEC01AA2F1280300EE8F
:104DB000103AB8EEC00AC0EE010A00EE100AB8EED2
:104DC000401A00EE102AB8EE400AC8ED090A00EEBB
:104DD000C10AFDEEE00A20EE0E0ABDEEC00A10EE9A
:104DE000100AA8F82C00BDF82230BDF81A00191AD4
:104DF00000EE101A79881844B8EEC01AA1F1280CF8
:104E000000EE10CAF8EEC01A81EE810A01EE100A17
:104E1000F8EE411A01EE101AB8EE411A88ED0A0AAE
:104E200000EE611A21EE0E1ABDEEC11A11EE100A43
:104E3000A8F82E0010EE900A0028B8BF40420228C1
:104E400008DCBDEEC00A10EE100A0028B8BF4042D0
:104E500002282DDDA1F1140081B2A2F11400002579
:104E600080B24FF6FF72FFF793FB14214FF47842A4
:104E70000846FFF78DFB66A11020CDE900017B8875
:104E80003A881A21282009F02BF998F830000028D8
:104E90000CBF0120002088F83000002819BF89F8D5
:104EA00000A089F801B089F800B089F801A05AE59E
:104EB0005C491F2008804FF6FF7001F026FC5AA1C4
:104EC0001020CDE900017B883A886E21232009F06B
:104ED00007F94FF47A7009F086F998ED090A9FED09
:104EE000588A0422282020EE080ABDEEC00A10EEDF
:104EF000101AFDF77DFE98ED0A0A04222C2020EE00
:104F0000080ABDEEC00A10EE101AFDF771FEB8F9DE
:104F10002C1002223020FDF76BFEB8F92E10022271
:104F20003220FDF765FE98F830103420FDF741FE81
:104F30000A213520FDF73DFE4FF6FF7001F0E5FB3D
:104F400083E5F0B53F4D404C83B0A888A0F5AA4159
:104F5000103941D0A0F5C851633954D00121262021
:104F600009F04CFF0620009000208DF804008DF819
:104F7000060003208DF80500344E01258DF80750FA
:104F80006946304609F008FB00958DF804506946E3
:104F9000304609F001FB680300908DF80450694623
:104FA0002B4809F0F9FAE80200908DF804506946A0
:104FB000284809F0F1FA271F04F10C053878FFF7AB
:104FC00058FA06467878FFF754FA2E80E082FFF709
:104FD000D1FB03B00120F0BDFEF74DFE002808BF55
:104FE0001D4802D0FFF74DF81C48606094F830006F
:104FF000A97940F0800001F00101084384F83000F5
:1050000003B00020F0BDFEF776FC15486060EDE7C8
:105010005450204E65656420726561646A757374CE
:1050200021000000E4000020546F75636820536382
:105030007265656E2041646A757374204F4B210060
:1050400020BCBE4C801A0020B000002000040240AA
:105050000008024000140240A73D00084B41000830
:10506000B93900082DE9F04798B001217A2009F0FC
:10507000C5FE0121084609F0D3FE01258DF8045034
:1050800000244FF400408DF80640022600908DF871
:1050900005608DF807506946B44809F07DFA8DF82F
:1050A00004604FF633708DF806400327DFF8C082A6
:1050B00000908DF805708DF807506946404609F05C
:1050C0006BFA8DF804604FF683708DF80640DFF8B8
:1050D000A49200908DF805708DF8075069464846F7
:1050E00009F05AFA8DF804604FF23F008DF806403F
:1050F000DFF884A200908DF805708DF8075069469E
:10510000504609F049FA8DF804608DF806408DF894
:1051100005708DF8075040F23F40984D0090694669
:10512000284609F039FA0C220021404609F0B8FA65
:105130000C220121404609F0B3FA0C22042140461A
:1051400009F0AEFA0C220521404609F0A9FA0C221A
:105150000821404609F0A4FA0C220921404609F032
:105160009FFA0C220A21404609F09AFA0C220B21E0
:10517000404609F095FA0C221146404609F090FA93
:105180000C220D21404609F08BFA0C220E214046DC
:1051900009F086FA0C220F21404609F081FA0C2210
:1051A0000021484609F07CFA0C220121484609F00A
:1051B00077FA0C220721484609F072FA0C220821DE
:1051C000484609F06DFA0C220921484609F068FAB0
:1051D0000C220A21484609F063FA0C220B214846AA
:1051E00009F05EFA0C221146484609F059FA0C22E1
:1051F0000D21484609F054FA0C220E21484609F0C8
:105200004FFA0C220F21484609F04AFA0C220021DD
:10521000504609F045FA0C220121504609F040FAA7
:105220000C220221504609F03BFA0C220321504681
:1052300009F036FA0C220421504609F031FA0C220A
:105240000521504609F02CFA0C221146504609F06F
:1052500027FA0C220D21504609F022FA0C220E21C9
:10526000504609F01DFA0C220F21504609F018FA99
:105270000C220021284609F013FA0C2201212846AD
:1052800009F00EFA0C220221284609F009FA0C2234
:105290000321284609F004FA0C220421284609F0CB
:1052A000FFF90C220521284609F0FAF90C220A21FF
:1052B000284609F0F5F90820CDE91240119416941A
:1052C00004201794CDE9020414941020CDE9044081
:1052D000159406940002CDE90A4011A80994CDE97D
:1052E0000E400894079410900C940D9402A809F0B5
:1052F000FDF90121042009F073FA18B0BDE8F08728
:10530000002A08BF704710F801CB4FF0D04303F8D4
:1053100001C0491C521EF6D17047002A08BF7047D1
:105320004FF0D0435B5C491C00F8013B521EF7D1A3
:10533000704703B401A901224FF0D04311F801CB0B
:1053400003F800C0401C521EF6D102B0704781B075
:10535000694601224FF0D0431B5C401C01F8013B21
:10536000521EF7D19DF8000001B0704700040240C2
:10537000000C0240001002400014024000180240DD
:10538000FB484FF0D8410089A1F87E0070474FF0EC
:10539000D84222F87E0F5180704701B4BDF800005A
:1053A000ADF80000BDF800004FF0D841A1F8800032
:1053B00001B0704701B4BDF80000ADF80000BDF8C1
:1053C00000004FF0D841A1F87E0001B070472DE9F0
:1053D000F84FDFF89C930C0A4A46B9F804509389B9
:1053E0005289A5F513464FEA1028C7B201F0FF0C09
:1053F0004FF0D84B413E1CBFA5F5A046B6F544760C
:1054000027D0DFF86C93A5F5D04ABAF1040A99F8D1
:105410000660B9F80090A9EB000EAEF1010E56D06F
:10542000A5F5C85ABAF1630A7ED0A5F5A049B9F529
:10543000A26900F03B81012E08BF1FFA8EF0ABF885
:105440007E20ABF88000ABF87E30ABF88010BDE872
:10545000F88FADF80020BDF80000ADF80000BDF8F1
:105460000000ABF87E00ADF80080BDF80000ADF89C
:105470000000BDF80000ABF88000ADF80070BDF88A
:105480000000ADF80000BDF80000ABF88000ADF8FA
:105490000030BDF80000ADF80000BDF80000ABF82A
:1054A0007E00ADF80040BDF80000ADF80000BDF88A
:1054B0000000ABF88000ADF800C0BDF80000ADF80A
:1054C0000000BDF80000ABF88000BDE8F88F012EA9
:1054D00008BF1FFA8EF0ADF80020BDF80010ADF83F
:1054E0000010BDF80010ABF87E10010AADF80010F6
:1054F000BDF80010ADF80010BDF80010ABF880103A
:10550000C0B2ADF80000BDF80000ADF80000BDF875
:105510000000ABF88000ADF80030BDF80000ADF839
:105520000000BDF8000000E017E0ABF87E00ADF829
:105530000040BDF80000ADF80000BDF80000ABF879
:105540008000ADF800C0BDF80000ADF80000BDF867
:105550000000ABF88000BDE8F88F8549002E6DD0C3
:10556000ADF80020BDF80000ADF80000BDF8000067
:10557000ABF87E00ADF80080BDF80000ADF800008B
:10558000BDF80000ABF88000ADF80070BDF8000079
:10559000ADF80000BDF80000ABF88000A9F10100F3
:1055A000020AADF80020BDF80020ADF80020BDF8DB
:1055B0000020ABF88020C0B2ADF80000BDF80000BC
:1055C000ADF80000BDF80000ABF88000ADF8003089
:1055D000BDF80000ADF80000BDF80000ABF87E009B
:1055E000ADF80040BDF80000ADF80000BDF80000C7
:1055F000ABF88000ADF800C0BDF80000ADF80000C9
:10560000BDF80000ABF880004888401E010AADF8E4
:105610000010BDF80010ADF80010BDF80010ABF898
:105620008010C0B2ADF80000BDF80000ADF8000079
:10563000BDF80000ABF88000BDE8F88F1FFA8EF0CF
:10564000ADF80020BDF80020ADF80020BDF8002026
:10565000ABF87E200022ADF80020BDF80050ADF878
:105660000050BDF80050ABF88050ADF80020BDF8F8
:105670000020ADF80020BDF80020ABF88020020A21
:10568000ADF80020BDF80020ADF80020BDF80020E6
:10569000ABF88020C0B2ADF80000BDF80000ADF856
:1056A0000000BDF80000ABF880008FE7ADF80020E7
:1056B000BDF80000ADF80000BDF80000ABF87E00BA
:1056C000ADF80080BDF80000ADF80000BDF80000A6
:1056D000ABF88000501CADF80000BDF80000ADF83C
:1056E0000000BDF80000ABF87E00ADF80070BDF81A
:1056F0000000ADF80000BDF80000ABF88000ADF888
:105700000030BDF80000ADF80000BDF80000ABF8B7
:105710007E00ADF80040BDF80000ADF80000BDF817
:105720000000ABF88000581CADF80000BDF8000088
:10573000ADF80000BDF80000ABF87E00ADF800C089
:10574000BDF80000ADF80000BDF80000ABF8800027
:10575000BDE8F88F00B5FFF73AFE054801894FF024
:10576000D84020F87E1F03490988418000BD000011
:10577000801A0020E4000020FE4B1A80EAE730B5D2
:1057800091B00146002408A80DF0CDFF054640F277
:10579000FF11002007910BF042F90690DDB90028B7
:1057A00018BF6D4617D0694608A80EF00BF890B9DF
:1057B0009DF8090078B10698007800280CBF05F123
:1057C000090006980FF0D6FA00F0F000502804BF48
:1057D000601C84B2E7E711B0204630BD4FF0D840DE
:1057E00081B0B0F88000ADF80000BDF8000001B055
:1057F000704738B5ADF80000BDF80000ADF8000006
:10580000BDF800004FF0D84424F87E0F052008F0C2
:10581000CEFC6088ADF80000BDF8000038BD4FF048
:10582000D841A1F880007047C0F34511C20AC002F8
:1058300000EB4110104480B27047401EC0B2FCD251
:1058400070472DE9F841CC4E00252C463288824223
:1058500087BF72888A420020BDE8F881FFF7B7FD54
:10586000B18849F2413741F663184FF0D84645F206
:10587000103345F2105CB9421CBFA1F5D040B0F125
:10588000040003D0994218BF41450BD12E20ADF83A
:105890000000BDF80000ADF80000BDF80000A6F85B
:1058A0007E0019E061450CD14FF43850ADF800008E
:1058B000BDF80000ADF80000BDF80000A6F87E00BD
:1058C0000AE02220ADF80000BDF80000ADF80000AD
:1058D000BDF80000A6F87E00A1F51340203808BFEF
:1058E000022002D1401EC0B2FCD2B6F88000ADF852
:1058F0000000BDF80000414514BF0220BDE8F8815A
:10590000401EC0B2FCD2B6F88000ADF80000BDF871
:105910000000B9421ABF9942614502220DD1521EC0
:10592000D2B2FCD2B6F88020ADF80020BDF800401D
:10593000C2B24FF6FF7505EA0225A1F51342253ADA
:105940001ABFA1F58A42B2F13502BDE8F881A1F58E
:105950008A42313A1FBFA1F53542B2F10502A1F5E5
:105960004542B2F1050208BFBDE8F881B9421CBF4B
:105970009942614508D100F47840A90A40EA4110F3
:1059800040EAD420BDE8F881C0F34511C20AC00244
:1059900000EB4110104480B2BDE8F881764881B038
:1059A0004FF0D8428088A0F5134141391CBFA0F5C3
:1059B000D041B1F1040115D0A0F5A64110391CBFAA
:1059C000A0F5C851B1F163010CD0A0F5AA4110397E
:1059D00015D0072140F27310A2F87E10A2F88000C3
:1059E00001B070472920ADF80000BDF80000ADF807
:1059F0000000BDF80000A2F87E0001B070474FF42F
:105A00002450ADF80000BDF80000ADF80000BDF86E
:105A10000000A2F87E0001B07047574881B04FF0F7
:105A2000D8428088A0F5134141391CBFA0F5D04170
:105A3000B1F1040114D0A0F5A64110391CBFA0F5A6
:105A4000C851B1F163010BD0A0F5AA41103914D0AF
:105A500007210020A2F87E10A2F8800001B0704754
:105A60002820ADF80000BDF80000ADF80000BDF83A
:105A70000000A2F87E0001B070474FF42050ADF84E
:105A80000000BDF80000ADF80000BDF80000A2F86D
:105A90007E0001B070472DE9F801DFF8DCC000217D
:105AA00062469CF80630928846F6040641F6631476
:105AB000012B0BD0002B08BFA2421BD1082819D202
:105AC000DFE800F0090B0D0F11131517B24218BFD4
:105AD000A242F3D10EE006200CE007200AE00420E9
