:020000040800F2
:1000000078DE012019AC0008AD010008AF0100083E
:10001000B3010008B7010008BB01000800000000A0
:10002000000000000000000000000000BF01000808
:10003000C101000800000000C9B90208BDA90008FC
:1000400033AC000833AC000833AC000833AC000814
:1000500033AC000833AC000833AC000833AC000804
:1000600033AC000833AC000833AC000833AC0008F4
:1000700033AC000833AC0008E9850008CB850008E4
:1000800033AC000833AC000833AC000833AC0008D4
:1000900033AC000833AC000833AC000833AC0008C4
:1000A00033AC000833AC000833AC000833AC0008B4
:1000B00033AC0008E98A0008A5DF000833AC00086B
:1000C00033AC000833AC000833AC000833AC000894
:1000D00033AC000887AB000833AC000833AC000831
:1000E00033AC000833AC000833AC000833AC000874
:1000F00033AC000833AC000833AC000833AC000864
:1001000033AC00089D7D000833AC000833AC000818
:1001100033AC000833AC0008118B000833AC000886
:1001200033AC000833AC000833AC000833AC000833
:1001300033AC000833AC000833AC000833AC000823
:1001400033AC000833AC000833AC000833AC000813
:1001500033AC000833AC000833AC000833AC000803
:1001600033AC000833AC000833AC000833AC0008F3
:1001700033AC000833AC000833AC000833AC0008E3
:1001800033AC000833AC0008DFF80CD02CF0C0FA18
:1001900000480047DF05000878DE012030BF72B656
:1001A000704762B6704780F308887047704700BF99
:1001B000FEE700BFFEE700BFFEE700BFFEE77047B7
:1001C000704700000CB50020019000907648006850
:1001D00040F480307449086000BF7348006800F440
:1001E000003000900198401C0190009818B90198C7
:1001F000B0F5A04FF1D16C48006800F4003010B1A8
:100200000120009001E0002000900098012846D1D4
:1002100065484030006840F08050634940310860D4
:100220006248006840F44040604908605E48083019
:1002300000685D49083108600846006840F40040E5
:1002400008600846006840F4A05008605848091F3C
:100250000860081F006840F08070091F086000BF38
:100260005148006800F000700028F9D040F2057095
:10027000504908604C480830006820F003004A49A3
:10028000083108600846006840F00200086000BFBE
:1002900045480830006800F00C000828F8D10CBD73
:1002A00010B54548006840F47000434908603E4876
:1002B000006840F001003C49086000203A490831DC
:1002C0000860394800683D490840374908603C48A3
:1002D000091D0860081F006820F48020091F0860BD
:1002E000002031490C310860FFF76CFF4FF00060CF
:1002F00031498039086010BD70B50020002202230A
:1003000000240221284D08352D6805F00C0020B18D
:10031000042806D0082834D107E02A4D2A4E35603B
:1003200033E02A4D284E35602FE01F4D2D1D2D68DE
:10033000C5F380541C4D2D1D2D6805F03F0154B1AF
:10034000224DB5FBF1F5184E361D3668C6F38816FA
:1003500005FB06F209E01B4DB5FBF1F5124E361D0B
:100360003668C6F3881605FB06F20F4D2D1D2D6865
:10037000C5F301456D1C6B00B2FBF3F5124E356001
:1003800003E0104D104E356000BF00BF064D08352C
:100390002D68C5F303150E4E705D0B4D2D68C540DD
:1003A000094E356070BD000000380240007000400A
:1003B00008544007003C024088ED00E0FFFFF6FED5
:1003C000103000240024F4000000002000127A0005
:1003D000040000201CB54FF6FF7000F063FC4FF4E2
:1003E0007840FE490880FEA010210B46C822CDE9C6
:1003F00000100A211E2005F0F2FBFDA010210B4683
:10040000C822CDE900101E21084605F0E8FBFCA03B
:1004100010210B46C822CDE9001032211E2005F024
:10042000DEFBFBA010210B46C822CDE900104B21BA
:100430001E2005F0D4FBFCA010210B46C822CDE9FC
:1004400000105F211E2005F0CAFBFDA010210B4605
:10045000C822CDE90010D221502005F0C0FBFB4896
:10046000028878231946002005F0B4F9F74802887D
:1004700046231946002005F0ADF9462396220021B7
:10048000104605F0A7F91F20D4490880F0A01021DC
:100490000B46C822CDE900101E21A02005F09FFBCD
:1004A000EEA010210B46C822CDE900103221A02079
:1004B00005F095FB1CBD0EB574E000F0BAFD4FF4DD
:1004C0007840C649088001201021E6A20B46CDE9FC
:1004D0000021029078221421084612F0FAFE012031
:1004E0001021E3A20B46CDE90021029078221421CD
:1004F000872012F0EEFE53E0002009F082FB002876
:100500004BD0DE488089142821DDDC4880894628CC
:100510001DDADA48C08A282819DDD848C08A64283C
:1005200015DA1F20AD49088001201021CDA20B460D
:10053000CDE90021029078221421084612F0C9FE6C
:100540004FF496700AF096FA13F04EFC29E0CB486F
:100550008089872821DDC9488089DC281DDAC748C1
:10056000C08A282819DDC548C08A462815DA1F2008
:100570009A49088001201021BDA20B46CDE9002137
:10058000029078221421872012F0A3FE4FF4967077
:100590000AF070FA12F0A7F903E001200AF06AFAF3
:1005A000AAE700BF89E770B50446002500BF002018
:1005B0002AF061F8B249086029F062FA2BF0DCF900
:1005C00005460423AF4A0021AFF215102AF0B4FD0E
:1005D0000A202BF031F828462BF0D2F970BD1CB55B
:1005E0004FF4A0600AF02AFBA8200AF0F3F94FF4B8
:1005F000E1300AF076FA00F045FA05F02FFB01F041
:1006000007FC9E490868804700200DF078F802201A
:100610000DF075F811F088FC9B49012208689BA138
:100620000FF01AFE98490122486899A10FF014FEB4
:100630004FF4A0600AF002FB00F024FA01F0E8FB9E
:1006400005F00CFB05F038FC08F038F8002101201B
:1006500008F0B3F800221146104608F004F9002112
:10066000012008F033F91921084608F060F93C2010
:1006700008F074F942F2CF0142F20F7008F008FA64
:1006800000200DF03CF802200DF039F811F04CFC80
:100690007D49012208687DA10FF0DEFD4FF478400E
:1006A0004E49088020E07BA010210B46C822CDE9EE
:1006B000001032211E2005F092FAC8200AF0DAF963
:1006C0004FF6FF704223F022322100901E2000F0EE
:1006D0001CFBC8200AF0CEF97148006808B9012057
:1006E00000E000206E49086012F0E7FC0028DAD133
:1006F00029F089F80A236B4A0021AFF255102AF03D
:100700001BFD29F0A5F900201CBDF8B505460E46D5
:1007100014461F4604B9F8BD2819401E82B233465C
:1007200031462846009700F0F0FA00BFF3E72DE9C4
:10073000F05F0746884616469A4640F2C32070434B
:100740004FF47A71B0FBF1F000F1010906FB06F0FD
:1007500000EB560B344671040A0CB91B88B25346A1
:100760004146FFF7D2FF012535E005FB05F004FB0C
:10077000040058451AD94C4517D96B1E5B041A0C56
:1007800008EB040399B27B1B5B1C98B25346FFF73E
:10079000BCFF6B1E5B041A0CA8EB040399B27B1B15
:1007A0005B1C98B25346FFF7B0FF641E63041A0C3B
:1007B00008EB050399B23B1B98B25346FFF7A5FF20
:1007C00063041A0CA8EB050399B23B1B98B253467D
:1007D000FFF79BFF6D1C4D45C7D965E01800002051
:1007E0004578706C6F7265722053544D333200003F
:1007F00055434F534949205445535432000000009B
:1008000041544F4D40414C49454E54454B0000002A
:100810004B4559303A445331204B45595F55503A76
:1008200041444A55535400004B4559313A424545DD
:100830005020204B4559323A434C4541520000006C
:10084000546F756368204172656100004C0C002094
:100850004350553A202020250000000053454D3AD2
:1008600030303000CAD3C6B5B2A5B7C5C6F7000050
:10087000CEC4BCFEB2E9BFB4C6F70000B40000208D
:1008800014000020480B00200CC90120303A000061
:10089000313A0000466F6E74204572726F7221000B
:1008A000A482424248040020BDE8F09F02468A42EA
:1008B00002DD501A80B27047881A80B2FBE72DE93A
:1008C000FF4F85B080468946129F0020039002901A
:1008D000B84507DB0798B84204DBB94502DB089846
:1008E000B84202DA09B0BDE8F08F0798A0EB08041F
:1008F0000898A0EB0905CDF80480CDF80090002CF5
:1009000002DD4FF0010A06E014B94FF0000A02E0E0
:100910004FF0FF3A6442002D02DD4FF0010B06E07C
:1009200015B94FF0000B02E04FF0FF3B6D42AC42B7
:1009300001DD264600E02E460020049023E0009AC8
:1009400091B2019A90B23A46139BFFF7F0FE0398DA
:10095000204403900298284402900398B04205DD99
:100960000398801B03900198504401900298B04274
:1009700005DD0298801B029000985844009004986E
:10098000401C80B20490711C04988842D7DD00BFDF
:10099000A8E70FE0601CC4B20A200AF06BF8082C2C
:1009A00002D1012033490860642C03D100240020C7
:1009B00030490860EEE70EB54CE02F484168002052
:1009C00088472D4890F8200000F08000D0B32A48D6
:1009D00080892A49098888423CDA2748C08A274901
:1009E0004988884236DA2448C08A782832DDBDF842
:1009F00008004FF6FF71884207D11F488089ADF883
:100A000008001D48C08AADF80A002AF0B5FF044668
:100A10004FF478400221184DCDE90010EB8AAA89E5
:100A2000BDF80A10BDF80800FFF749FF20462AF07C
:100A3000A7FF28468089ADF808002846C08AADF88F
:100A40000A0007E0FFE74FF6FF70ADF808000A2044
:100A50000AF010F8B1E70CE0002005F01DF904469B
:100A600024B121460648006829F046FF0A200AF012
:100A700001F8F1E7A4824242B40000204C0C0020AF
:100A8000140000201CB5012120200AF04FFF4FF474
:100A9000C060009001208DF8040000208DF8060051
:100AA00003208DF8050001208DF8070069460448F1
:100AB0000AF0BAF94FF4C06101480AF031FA1CBDDE
:100AC00000140240FC480089FC4908807047FB4A3A
:100AD00010804FF0D842A2F88010704701B5BDF8E1
:100AE00000000090BDF80000F449891C088008BD92
:100AF00001B5BDF800000090BDF80000EF49088086
:100B000008BD30B504460D46EB48808849F24131B6
:100B1000884205D0E848808845F21031884214D1D7
:100B2000E5494889FFF7E4FF2012FFF7D7FFE0B25D
:100B3000FFF7D4FFE0498889FFF7DAFF2812FFF7B3
:100B4000CDFFE8B2FFF7CAFFABE0DB48808846F68E
:100B5000040188421DD1D8488079012804D1D648A3
:100B60000088401E001B84B2D3494889FFF7C0FFAC
:100B70002012FFF7B3FFE0B2FFF7B0FFCE4988893C
:100B8000FFF7B6FF2812FFF7A9FFE8B2FFF7A6FFAD
:100B900087E0C948808841F66311884247D1C6483A
:100BA0008079A8B9C4480088401E001B84B2C2499D
:100BB0004889FFF79DFF0020FFF790FF0020FFF717
:100BC0008DFF2012FFF78AFFE0B2FFF787FF16E0E4
:100BD000B9494889FFF78CFF2012FFF77FFFE0B289
:100BE000FFF77CFFB4490988491EC1F30F20FFF7C6
:100BF00075FFB1490978491EC8B2FFF76FFFAE49CA
:100C00008889FFF775FF2812FFF768FFE8B2FFF742
:100C100065FFA9494988491EC1F30F20FFF75EFF10
:100C2000A5498978491EC8B2FFF758FF39E0A248A4
:100C3000808845F21051884220D19F494889FFF7AA
:100C400057FF2012FFF74AFF9B494989491C88B288
:100C5000FFF74EFFE0B2FFF741FF97498889FFF7A2
:100C600047FF2812FFF73AFF93498989491C88B248
:100C7000FFF73EFFE8B2FFF731FF12E08E488079C0
:100C8000012804D18C480088401E001B84B28A4988
:100C900048892146FFF71BFF874988892946FFF7C6
:100CA00016FF30BD70B5044600268348058840888D
:100CB00045438148808846F60401884216D17E4823
:100CC0008079012812D100207B4988712A2048812F
:100CD0002B20888100210846FFF713FF0120764969
:100CE00088712B2048812A20888103E00021084652
:100CF000FFF707FFFFF7E6FE002603E06F48801CC2
:100D00000480761CAE42F9D370BD2DE9FC4F054638
:100D10000E4617469846DDF82C9000200190664854
:100D2000808846F60401884229D1634880790128E9
:100D300025D1AB46354660480088C01B401E86B2B0
:100D400047465D480088A0EB0B00401E1FFA80F864
:100D50000020594988712A2048812B2088814346E8
:100D60003A4631462846CDF80090FFF7CEFF0120E5
:100D7000514988712B2048812A2088811DE0781BE9
:100D8000401C80B20190344615E021462846FFF70A
:100D9000B8FEFFF797FE4FF0000A07E04FF0D8408B
:100DA000A0F880900AF101001FFA80FA01988245AC
:100DB000F4DB601C84B24445E7DDBDE8FC8F2DE91F
:100DC000FE4F202100200CF065FD04462421002068
:100DD0000CF060FD81463AA148460FF0AEFE074692
:100DE0001AE00020102139A20B46CDE90021029023
:100DF000F022AA211E2012F06CFAC82009F03AFE57
:100E00004FF6FF70BA23F022AA2100901E20FFF7B0
:100E10007CFFC82009F02EFE29A148460FF08DFE68
:100E20000028DED140F2FF10E0610020E1690CF003
:100E300031FDA0610020E1690CF02CFD80460C2101
:100E400000200CF027FD06461AE00020102124A205
:100E50000B46CDE900210290F022AA211E2012F0BB
:100E600038FAC82009F006FE4FF6FF70BA23F022C8
:100E7000AA2100901E20FFF748FFC82009F0FAFDC4
:100E8000A0690028E1D0B8F1000FDED0002EDCD040
:100E90000BA148460FF051FE074667B900253BE01D
:100EA000B9F806B0214648460FF096FE07460FB93E
:100EB000607AE8B931E031E04C0C00207E00006C33
:100EC000303A2F504943545552450000504943543D
:100ED000555245CEC4BCFEBCD0B4EDCEF3210000CB
:100EE000C4DAB4E6B7D6C5E4CAA7B0DC2100000076
:100EF000A069007808B1A06901E004F10900824608
:100F0000504611F057F8074607F0F000502803D17B
:100F100026F815B0681C85B2C2E700BF27F0E0F8DC
:100F20000125AFF2640148460FF007FE074664E072
:100F300036F8151048460EF056F9214648460FF08F
:100F40004BFE0746A069007808B1A06901E004F1F2
:100F500009008246FEA140462AF0D6FE5146404690
:100F60002AF0A5FE052D3CD2DFE805F0030F1A2577
:100F7000300001204FF4A071F0230022CDE90010D1
:100F80001146404627F05EF930E0012030210B4643
:100F90008C22CDE900102321404627F053F925E0AB
:100FA000012030210B46F022CDE9001023214046DC
:100FB00027F048F91AE0012030210B468C22CDE9B8
:100FC00000108721404627F03DF90FE00120302135
:100FD0000B46F022CDE900108721404627F032F978
:100FE00004E040F2FF70FFF75DFE00BF00BF681C29
:100FF00085B2052D01DB002501E0002F98D000BF50
:1010000048460FF0DEFD494600200CF02AFC002087
:10101000A1690CF026FC214600200CF022FC414680
:1010200000200CF01EFC314600200CF01AFCBDE83C
:10103000FE8F2DE9FE4F202100200CF02BFC0446F2
:10104000242100200CF026FC8146C4A148460FF064
:1010500074FD07461AE000201021C3A20B46CDE91B
:1010600000210290F022AA211E2012F032F9C8209D
:1010700009F000FD4FF6FF70BA23F022AA2100907C
:101080001E20FFF742FEC82009F0F4FCB3A1484639
:101090000FF053FD0028DED140F2FF10E061002088
:1010A000E1690CF0F7FBA0610020E1690CF0F2FBB4
:1010B0008046062100200CF0EDFB06461BE00020D8
:1010C0001021AFF2E4120B46CDE900210290F0228C
:1010D000AA211E2012F0FDF8C82009F0CBFC4FF623
:1010E000FF70BA23F022AA2100901E20FFF70DFE08
:1010F000C82009F0BFFCA0690028E0D0B8F1000FBB
:10110000DDD0002EDBD095A148460FF016FD074636
:1011100017BB00251EE0B9F806B0214648460FF07F
:101120005BFD07460FB9607A00B914E0A06900784A
:1011300008B1A06901E004F109008246504610F0B0
:1011400039FF074607F0F000502803D126F815B004
:10115000681C85B2DFE700BF26F0C2FF00257FA133
:1011600048460FF0EAFC074649E036F815104846B5
:101170000EF039F8214648460FF02EFD0746A069CB
:10118000007808B1A06901E004F1090082467BA162
:1011900040462AF0B9FD514640462AF088FD25B167
:1011A000012D0ED0022D22D116E001204FF4A071A6
:1011B000F0230022CDE900101146404627F042F806
:1011C00016E0012030210B462822CDE90010232112
:1011D000404627F037F80BE0012030210B4628224B
:1011E000CDE900109621404627F02CF800E000BF22
:1011F00000BF681C85B2032D01DB002501E0002F34
:10120000B3D000BF48460FF0DCFC494600200CF08C
:1012100028FB0020A1690CF024FB214600200CF0E3
:1012200020FB414600200CF01CFB314600200CF056
:1012300018FBBDE8FE8FF0B591B0054600262946A3
:1012400008A80FF07AFC044640F2FF100790002037
:1012500007990CF01FFB069004BB0698F0B11BE049
:10126000694608A80FF0B8FC044614B99DF80900B7
:1012700000B912E00698007808B1069801E00DF177
:1012800009000746384610F095FE044604F0F000C9
:10129000502801D1701C86B2E2E700BF304611B081
:1012A000F0BD08B5384800880090BDF8000008BDC2
:1012B00010B504462046FFF71BFC052009F0B0FBE3
:1012C000FFF7EFFF10BD30490880704730B5014689
:1012D00001F01F04C1F34513CA0AE50205EB4315EB
:1012E0001544A8B230BD00BF0100A0F10102D0B288
:1012F000FAD170472DE9F04105460E46002400273B
:10130000A04622480088A84203DD20484088B04219
:1013100002DC0020BDE8F08131462846FFF7F1FBF2
:101320001A48808849F24131884232D01748808873
:1013300046F6040188422CD01448808845F21031CA
:10134000884226D01148808841F6631188421FE008
:10135000303A2F504943545552452F00303A2F41CF
:10136000505049434F4E000041505049434F4ECEDC
:10137000C4BCFEBCD0B4EDCEF3210000303A2F4106
:10138000505049434F4E2F008000006C4C0C002001
:1013900003D12E20FFF7ACFB0DE0FD48808845F21D
:1013A0001051884204D14FF43850FFF7A1FB02E0FE
:1013B0002220FFF79DFBF648808849F220318842C1
:1013C00002D10220FFF78FFFFFF76BFF0446F048C2
:1013D000808841F66311884201D120469AE70220B5
:1013E000FFF781FFFFF75DFF0446E948808849F277
:1013F000413188420BD0E648808845F2103188425E
:1014000005D0E348808845F2105188420AD1022075
:10141000FFF769FFFFF745FF8046E7B24FF6FF7021
:1014200000EA0727DA48808849F22531884216D039
:10143000D748808844F23551884210D0D4488088FB
:10144000091F88420BD0D24880884BF20551884250
:1014500005D0CF4880884CF20551884201D1204602
:1014600058E7CB48808849F2413188420BD0C848C0
:10147000808845F21031884205D0C548808845F201
:101480001051884207D1E012C002B91240EA41105F
:1014900040EAE8203EE72046FFF718FF3AE700B5AC
:1014A000BB48808849F24131884211D0B8488088D1
:1014B00046F6040188420BD0B548808845F21031C9
:1014C000884205D0B248808841F66311884203D132
:1014D0002920FFF70DFB0FE0AD48808845F2105141
:1014E000884204D14FF42450FFF702FB04E040F29D
:1014F00073110720FFF7EBFA00BD00B5A448808800
:1015000049F24131884211D0A148808846F6040151
:1015100088420BD09E48808845F21031884205D021
:101520009B48808841F66311884203D12820FFF749
:10153000DFFA0EE09648808845F21051884204D1C7
:101540004FF42050FFF7D4FA03E000210720FFF703
:10155000BEFA00BDF0B50546002400278C4880790E
:1015600001280BD18A48808846F60401884205D0BC
:101570008748808841F66311884208D18448807981
:10158000F0B98348808841F66311884218D1082D4C
:1015900015D2DFE805F00406080A0C0E1012062525
:1015A0000DE007250BE0042509E0052507E00125EE
:1015B00005E0002503E0032501E0022500BF00BF90
:1015C0007348808849F24131884217D0704880883A
:1015D00046F60401884211D06D48808845F21031EA
:1015E00088420BD06A48808845F21051884205D065
:1015F0006748808841F6631188427DD1082D1CD24E
:10160000DFE805F00406090C0F12151800BF14E0FE
:1016100044F0800411E044F040040EE044F0C004C3
:101620000BE044F0200408E044F0600405E044F0DE
:10163000A00402E044F0E00400BF00BF54488088EA
:1016400045F21051884202D14FF4585700E0362736
:101650004F48808845F2103188420DD04C48808830
:1016600045F21051884207D04948808841F66311FD
:10167000884201D044F008044548808846F60401B9
:10168000884201D144F0020421463846FFF71FFA90
:101690003F48808841F6631188421DD004F0200045
:1016A00068B13B4800883A494988884214DA38488A
:1016B0000688408836490880084646800CE0344851
:1016C000008833494988884206DD314806884088C9
:1016D0002F490880084646802D48808845F21051E1
:1016E000884257D12A494889FFF702FA0020FFF7BC
:1016F000F5F92749498900E07BE0491C88B2FFF7EA
:10170000F7F90020FFF7EAF921494989891C88B2D5
:10171000FFF7EEF91E490988491EC1F30F20FFF7B4
:10172000DDF91B494989C91C88B2FFF7E1F918495D
:101730000978491EC8B2FFF7D1F915498889FFF722
:10174000D7F90020FFF7CAF911498989491C88B2E5
:10175000FFF7CEF90020FFF7C1F90D498989891CEF
:1017600088B2FFF7C5F90A494988491EC1F30F201D
:10177000FFF7B4F906498989C91C88B2FFF7B8F99F
:1017800003498978491EC8B2FFF7A8F958E000005C
:101790004C0C0020FC494889FFF7AAF90020FFF70C
:1017A0009DF90020FFF79AF9F7490988491EC1F30E
:1017B0000F20FFF793F9F4490978491EC8B2FFF7E3
:1017C0008DF9F1498889FFF793F90020FFF786F931
:1017D0000020FFF783F9EC494988491EC1F30F2027
:1017E000FFF77CF9E8498978491EC8B2FFF776F916
:1017F00026E0082D1CD2DFE805F004070A0D0F12C1
:10180000151844F0300413E044F0100410E044F0E4
:1018100020040DE000BF0BE044F0380408E044F081
:10182000280405E044F0180402E044F0080400BF76
:1018300000BF032744F4805421463846FFF747F998
:10184000F0BD30B504460D4629462046FFF759F94C
:10185000FFF738F9CD480088CD49088030BD70B514
:1018600004460D461646C848808849F241318842F0
:1018700005D0C548808845F21031884214D1C2494C
:101880004889FFF735F92012FFF728F9E0B2FFF792
:1018900025F9BD498889FFF72BF92812FFF71EF9B2
:1018A000E8B2FFF71BF98CE0B748808845F2105189
:1018B000884220D1B4494889FFF71AF92012FFF76E
:1018C0000DF9B1494989491C88B2FFF711F9E0B215
:1018D000FFF704F9AC498889FFF70AF92812FFF7E6
:1018E000FDF8A9498989491C88B2FFF701F9E8B2D6
:1018F000FFF7F4F865E0A448808841F66311884258
:1019000028D1A148807920B99F480088401E001B3B
:1019100084B29D494889FFF7EBF82012FFF7DEF803
:10192000E0B2FFF7DBF82012FFF7D8F8E0B2FFF7DC
:10193000D5F895498889FFF7DBF82812FFF7CEF82C
:10194000E8B2FFF7CBF82812FFF7C8F8E8B2FFF7C4
:10195000C5F836E08C48808846F6040188421DD1DF
:1019600089488079012804D187480088401E001BDF
:1019700084B285494889FFF7BBF82012FFF7AEF81B
:10198000E0B2FFF7ABF880498889FFF7B1F8281279
:10199000FFF7A4F8E8B2FFF7A1F812E07A488079DF
:1019A000012804D178480088401E001B84B2764983
:1019B00048892146FFF78BF8734988892946FFF744
:1019C00086F8714800897249891E08804FF0D84016
:1019D000A0F8806070BD70B52DED048B0446BE206C
:1019E000FFF786F80520FFF779F820462AF061FC1A
:1019F00041EC190B9FED670B53EC102B2AF067FBA2
:101A000041EC180B2AF062FC85B22846FFF766F815
:101A10000120FFF763F8FF20FFF760F80020FFF7D1
:101A20005DF80020FFF75AF8BDEC048B70BD10B5CF
:101A30000446002C66D154498871F02008804FF488
:101A4000A07048800846808849F2413188420BD016
:101A50004D48808846F60401884205D04A4880886F
:101A600045F2103188421AD12C20474908812A209A
:101A700048812B2088810846808846F604018842E8
:101A800005D04148808845F21031884206D14FF494
:101A9000A0703D4908804FF4F0704880ACE03A48AF
:101AA000808845F21051884210D14FF430503649A9
:101AB00008814FF4285048814FF42C5088814FF40E
:101AC000F07008804FF44870488095E02E48808878
:101AD00041F6631188420DD12C202B4908812B201F
:101AE00048812A2088814FF4F07008804FF44870B4
:101AF000488081E02220244908812020488121203B
:101B0000888179E00120204988714FF4A070088015
:101B1000F02048800846808849F24131884205D04B
:101B20001948808845F21031884207D12C20164987
:101B300008812A2048812B2088814AE01248808829
:101B400046F60401884207D12C200F4908812B203A
:101B500048812A2088813CE00B48808845F210515A
:101B600088421BD14FF43050074908814FF4285068
:101B700048814FF42C5088814FF4487008804FF40E
:101B8000F070488025E000004C0C00201800002078
:101B90008000006C6666666666660440FE48808863
:101BA00041F6631188420DD12C20FB4908812A207F
:101BB00048812B2088814FF4487008804FF4F070E2
:101BC000488006E02220F449088121204881202015
:101BD0008881F148808846F60401884205D0EE48A5
:101BE000808845F21031884206D14FF4F070EA49FE
:101BF00008804FF4A07048800020FFF7ABFC10BDB8
:101C00002DE9F04F86B004460D469046994604EB08
:101C10000800401E86B205EB0900401E87B2DE4870
:101C2000808849F24131884215D0DB48808845F2EE
:101C3000103188420FD0D848808846F60401884287
:101C400009D0D5488079012826D1D348808841F62B
:101C50006311884220D1D0494889FEF749FF2012FC
:101C6000FEF73CFFE0B2FEF739FF3012FEF736FF19
:101C7000F0B2FEF733FFC8498889FEF739FF281212
:101C8000FEF72CFFE8B2FEF729FF3812FEF726FF19
:101C9000F8B2FEF723FFB8E0BF48808841F6631131
:101CA000884234D1BC480088A0EB0800001B84B2F5
:101CB00005EB0900401E1FFA80F9B7494889FEF775
:101CC00017FF2012FEF70AFFE0B2FEF707FF04EB52
:101CD0000801491EC1F30F20FEF700FF04EB0801C5
:101CE000491EC8B2FEF7FAFEAB498889FEF700FF2D
:101CF0002812FEF7F3FEE8B2FEF7F0FE4FEA2920C5
:101D0000FEF7ECFE09F0FF00FEF7E8FE7DE0A248DA
:101D1000808845F21051884244D19F494889FEF796
:101D2000E7FE2012FEF7DAFE9B494989491C88B27A
:101D3000FEF7DEFEE0B2FEF7D1FE97494989891C25
:101D400088B2FEF7D5FE3012FEF7C8FE92494989E7
:101D5000C91C88B2FEF7CCFEF0B2FEF7BFFE8E497A
:101D60008889FEF7C5FE2812FEF7B8FE8A498989E0
:101D7000491C88B2FEF7BCFEE8B2FEF7AFFE86490A
:101D80008989891C88B2FEF7B3FE3812FEF7A6FED9
:101D900081498989C91C88B2FEF7AAFEF8B2FEF70C
:101DA0009DFE32E07C48807901280ED1AA46BB46D0
:101DB00079480088801B401E80B2019076480088D8
:101DC000001B401E80B2009003E0A246B34601957E
:101DD00000975020059051200490522003905320EA
:101DE000029051460598FEF772FE59460498FEF798
:101DF0006EFE01990398FEF76AFE00990298FEF7BD
:101E000066FE29462046FEF77CFE06B0BDE8F08F50
:101E100000B5A1B00020209001217A2009F086FDB4
:101E20000121084609F0BAFD4FF400401E90012040
:101E30008DF87C0000208DF87E0002208DF87D005A
:101E400001208DF87F001EA9544808F0EDFF4CF2E8
:101E500033701E9002208DF87C0000208DF87E00EB
:101E600003208DF87D0001208DF87F001EA94C48CD
:101E700008F0DAFF4FF680701E9002208DF87C008B
:101E800000208DF87E0003208DF87D0001208DF864
:101E90007F001EA9434808F0C7FF4FF480501E90F2
:101EA00002208DF87C0000208DF87E0003208DF844
:101EB0007D0001208DF87F001EA93B4808F0B4FF8B
:101EC0004FF480501E9002208DF87C0000208DF889
:101ED0007E0003208DF87D0001208DF87F001EA973
:101EE000324808F0A1FF0C2200212D4809F027F804
:101EF0000C2201212A4809F022F80C22042128484A
:101F000009F01DF80C220521254809F018F80C22CB
:101F10000821234809F013F80C220921204809F070
:101F20000EF80C220A211E4809F009F80C220E2195
:101F30001B4809F004F80C220F21194808F0FFFF94
:101F40000C220721174808F0FAFF0C220821154837
:101F500008F0F5FF0C220921124808F0F0FF0C22CE
:101F60000A21104808F0EBFF0C220B210D4808F065
:101F7000E6FF0C2211460B4808F0E1FF0C220D2170
:101F8000084808F0DCFF0C220E21064808F0D7FFB5
:101F90000C220F2103480BE04C0C002000040240EF
:101FA000000C0240001002400014024000180240E1
:101FB00008F0C5FF0C221146FE4808F0C0FF0C22B5
:101FC0001146FD4808F0BBFF0F2008900020099043
:101FD0003C200A9000200B900C900D900E90092050
:101FE00001900020029008200390002004900590AA
:101FF0000690079006200F9000201090119010205E
:1020000012900020139015901490169017904FF492
:1020100080501890002019904FF480401A900020B2
:102020001B9008A81C9001A81D900FA808F0DBFFCA
:102030000121062009F062F8322008F01BFD012181
:102040000020FEF744FD322008F014FD0020FFF7C9
:102050002FF9DA49888008468088FF280ADB08467D
:1020600080884FF6FF71884204D0D4488088B0F54C
:10207000134F7CD1D320FEF73BFDFFF712F9CF4978
:102080008880FFF70EF9CD498880FFF70AF9CB4920
:102090008880084680884FF6FF7101EA0020C74912
:1020A0008880FFF7FEF8C54989880843C3498880BE
:1020B0000846808849F24131884258D0BF20FEF757
:1020C00017FDFFF7EEF8BD498880FFF7EAF8BB4936
:1020D0008880FFF7E6F8B9498880FFF7E2F8B7494A
:1020E0008880084680884FF6FF7101EA0020B349D6
:1020F0008880FFF7D6F8B14989880843AF498880BE
:102100000846808846F6040188427AD0D420FEF73B
:10211000EFFCFFF7C6F8A9498880FFF7C2F8A74986
:102120008880FFF7BEF8A5498880084680884FF66A
:10213000FF7101EA0020A1498880FFF7B2F89F49AA
:10214000898808439D4988800846808845F2103177
:10215000884256D04FF45A40FEF7CAFCFFF7A1F868
:10216000964988804FF45B40FEF7C2FC00E048E0EF
:10217000FFF797F891498880084680884FF6FF71ED
:1021800001EA00208D4988804FF45C40FEF7B0FCE6
:10219000FFF787F889498988084388498880084675
:1021A0008088B0F5004F02D145F2105088808348F6
:1021B000808845F21051884223D0A120FEF798FC78
:1021C000FFF76FF87D498880FFF76BF87B498880BF
:1021D000084680884FF6FF7101EA00207749888021
:1021E000FFF75FF875498988084374498880084675
:1021F000808845F26171884203D141F663106F49CE
:1022000088806E48808849F24131884211D06B48FD
:10221000808845F2103188420BD06848808845F2AA
:102220001051884205D06548808841F66311884284
:102230001DD16348006820F00F004FF02041C1F825
:102240001C010846D0F81C0120F47060C1F81C0184
:102250000846D0F81C0140F00300C1F81C010846F4
:10226000D0F81C0140F40070C1F81C0128E053486C
:10227000808846F60401884205D0504880884CF298
:10228000055188421CD14E48006820F00F004FF0E5
:102290002041C1F81C010846D0F81C0120F47060F0
:1022A000C1F81C010846D0F81C0140F00A00C1F832
:1022B0001C010846D0F81C0140F44060C1F81C0124
:1022C0003E4881883FA02AF011FC3C48808849F2B2
:1022D000413188426DD1CF20FEF70AFC0020FEF785
:1022E000FDFBC120FEF7FAFB3020FEF7F7FBED20E7
:1022F000FEF7FEFB6420FEF7F1FB0320FEF7EEFB8A
:102300001220FEF7EBFB8120FEF7E8FBE820FEF74A
:10231000EFFB8520FEF7E2FB1020FEF7DFFB7A20C3
:10232000FEF7DCFBCB20FEF7E3FB3920FEF7D6FB04
:102330002C20FEF7D3FB0020FEF7D0FB3420FEF765
:10234000CDFB0220FEF7CAFBF720FEF7D1FB2020D1
:10235000FEF7C4FBEA20FEF7CBFB0020FEF7BEFB36
:102360000020FEF7BBFBC020FEF7C2FB1B20FEF7E0
:10237000B5FBC120FEF7BCFB0120FEF7AFFBC5207B
:10238000FEF7B6FB3020FEF7A9FB3020FEF7A6FBD8
:10239000C720FEF7ADFBB720FEF7A0FB3620FEF707
:1023A000A7FB4820FEF79AFB3A20FEF7A1FB552039
:1023B00010E0B8E000140240001802404C0C00206D
:1023C0001C0100A0204C43442049443A25780D0AC2
:1023D00000000000FEF782FBB120FEF789FB002021
:1023E000FEF77CFB1A20FEF779FBB620FEF780FB98
:1023F0000A20FEF773FBA220FEF770FBF220FEF727
:1024000077FB0020FEF76AFB2620FEF771FB012018
:10241000FEF764FBE020FEF76BFB0F20FEF75EFB90
:102420002A20FEF75BFB2820FEF758FB0820FEF76A
:1024300055FB0E20FEF752FB0820FEF74FFB542001
:10244000FEF74CFBA920FEF749FB4320FEF746FBB5
:102450000A20FEF743FB0F20FEF740FB0020FEF7AB
:102460003DFB0020FEF73AFB0020FEF737FB002083
:10247000FEF734FBE120FEF73BFB0020FEF72EFBCE
:102480001520FEF72BFB1720FEF728FB0720FEF791
:1024900025FB1120FEF722FB0620FEF71FFB2B2059
:1024A000FEF71CFB5620FEF719FB3C20FEF716FB3F
:1024B0000520FEF713FB1020FEF710FB0F20FEF7A0
:1024C0000DFB3F20FEF70AFB3F20FEF707FB0F2026
:1024D000FEF704FB2B20FEF70BFB0020FEF7FEFAB5
:1024E0000020FEF7FBFA0120FEF7F8FA3F20FEF786
:1024F000F5FA2A20FEF7FCFA0020FEF7EFFA00209A
:10250000FEF7ECFA0020FEF7E9FAEF20FEF7E6FA14
:102510001120FEF7EDFA782008F0ACFA2920FEF73A
:10252000E7FA03F01DB9FE48808846F604018842A8
:102530007ED11120FEF7DCFA142008F09BFAD0209F
:10254000FEF7D6FA0720FEF7C9FA4220FEF7C6FAD0
:102550001D20FEF7C3FAD120FEF7CAFA0020FEF7CD
:10256000BDFA1A20FEF7BAFA0920FEF7B7FAD22010
:10257000FEF7BEFA0120FEF7B1FA2220FEF7AEFA0E
:10258000C020FEF7B5FA1020FEF7A8FA3B20FEF7B0
:10259000A5FA0020FEF7A2FA0220FEF79FFA11200A
:1025A000FEF79CFAC520FEF7A3FA0320FEF796FA81
:1025B000C820FEF79DFA0020FEF790FA2520FEF7CE
:1025C0008DFA2120FEF78AFA0520FEF787FA00200F
:1025D000FEF784FA0A20FEF781FA6520FEF77EFAFC
:1025E0002520FEF77BFA7720FEF778FA5020FEF7D9
:1025F00075FA0F20FEF772FA0020FEF76FFAF82046
:10260000FEF776FA0120FEF769FAFE20FEF770FA6F
:102610000020FEF763FA0220FEF760FA2020FEF7A2
:1026200067FA3620FEF764FA0820FEF757FA00E052
:102630002AE03A20FEF75CFA5520FEF74FFA2B20ED
:10264000FEF756FA0020FEF749FA0020FEF746FA98
:102650000120FEF743FA3F20FEF740FA2A20FEF75A
:1026600047FA0020FEF73AFA0020FEF737FA012079
:10267000FEF734FADF20FEF731FA782008F0FAF995
:102680002920FEF735FA4CE7A548808845F210313D
:10269000884240F07C87ED20FEF72AFA0120FEF701
:1026A0001DFAFE20FEF71AFAEE20FEF721FADE20D0
:1026B000FEF714FA2120FEF711FAF120FEF718FABE
:1026C0000120FEF70BFADF20FEF712FA1020FEF7CA
:1026D00005FAC420FEF70CFA8F20FEF7FFF9C6209A
:1026E000FEF706FA0020FEF7F9F9E220FEF7F6F908
:1026F000E220FEF7F3F9E220FEF7F0F9BF20FEF743
:10270000F7F9AA20FEF7EAF9B020FEF7F1F90D205B
:10271000FEF7E4F90020FEF7E1F90D20FEF7DEF9FF
:102720000020FEF7DBF91120FEF7D8F90020FEF7B4
:10273000D5F91920FEF7D2F90020FEF7CFF92120B4
:10274000FEF7CCF90020FEF7C9F92D20FEF7C6F9F7
:102750000020FEF7C3F93D20FEF7C0F90020FEF788
:10276000BDF95D20FEF7BAF90020FEF7B7F95D204C
:10277000FEF7B4F90020FEF7B1F9B120FEF7B8F981
:102780008020FEF7ABF90020FEF7A8F98B20FEF7BA
:10279000A5F90020FEF7A2F99620FEF79FF9002088
:1027A000FEF79CF9B220FEF7A3F90020FEF796F998
:1027B0000020FEF793F90220FEF790F90020FEF7C3
:1027C0008DF90320FEF78AF90020FEF787F9B32080
:1027D000FEF78EF90020FEF781F90020FEF77EF962
:1027E0000020FEF77BF90020FEF778F90020FEF7C5
:1027F00075F90020FEF772F90020FEF76FF900204E
:10280000FEF76CF90020FEF769F90020FEF766F983
:102810000020FEF763F90020FEF760F90020FEF7C4
:102820005DF90020FEF75AF90020FEF757F9002065
:10283000FEF754F90020FEF751F90020FEF74EF99B
:102840000020FEF74BF90020FEF748F90020FEF7C4
:1028500045F90020FEF742F90020FEF73FF900207D
:10286000FEF73CF9B420FEF743F98B20FEF736F96A
:102870000020FEF733F99620FEF730F90020FEF72E
:102880002DF9A120FEF72AF90020FEF727F9B5203F
:10289000FEF72EF90220FEF721F90020FEF71EF9BF
:1028A0000320FEF71BF90020FEF718F90420FEF7BD
:1028B00015F90020FEF712F9B620FEF719F90020ED
:1028C000FEF70CF90020FEF709F9B720FEF710F922
:1028D0000020FEF703F90020FEF700F93F20FEF785
:1028E000FDF80020FEF7FAF85E20FEF7F7F800206A
:1028F000FEF7F4F86420FEF7F1F80020FEF7EEF89A
:102900008C20FEF7EBF80020FEF7E8F8AC20FEF78D
:10291000E5F80020FEF7E2F8DC20FEF7DFF801E042
:102920004C0C00200020FEF7D9F87020FEF7D6F8F6
:102930000020FEF7D3F89020FEF7D0F80020FEF735
:10294000CDF8EB20FEF7CAF80020FEF7C7F8DC2030
:10295000FEF7C4F80020FEF7C1F8B820FEF7C8F86B
:102960000020FEF7BBF80020FEF7B8F80020FEF7C5
:10297000B5F80020FEF7B2F80020FEF7AFF800200F
:10298000FEF7ACF80020FEF7A9F80020FEF7A6F845
:10299000BA20FEF7ADF82420FEF7A0F80020FEF7DD
:1029A0009DF80020FEF79AF80020FEF797F8C12066
:1029B000FEF79EF82020FEF791F80020FEF78EF833
:1029C0005420FEF78BF80020FEF788F8FF20FEF772
:1029D00085F80020FEF782F8C220FEF789F80A2069
:1029E000FEF77CF80020FEF779F80420FEF776F871
:1029F0000020FEF773F8C320FEF77AF83C20FEF7BC
:102A00006DF80020FEF76AF83A20FEF767F800201C
:102A1000FEF764F83920FEF761F80020FEF75EF853
:102A20003720FEF75BF80020FEF758F83C20FEF751
:102A300055F80020FEF752F83620FEF74FF8002038
:102A4000FEF74CF83220FEF749F80020FEF746F872
:102A50002F20FEF743F80020FEF740F82C20FEF769
:102A60003DF80020FEF73AF82920FEF737F800205D
:102A7000FEF734F82620FEF731F80020FEF72EF896
:102A80002420FEF72BF80020FEF728F82420FEF77C
:102A900025F80020FEF722F82320FEF71FF800207B
:102AA000FEF71CF83C20FEF719F80020FEF716F898
:102AB0003620FEF713F80020FEF710F83220FEF75C
:102AC0000DF80020FEF70AF82F20FEF707F8002087
:102AD000FEF704F82C20FEF701F80020FDF7FEFFBA
:102AE0002920FDF7FBFF0020FDF7F8FF2620FDF76A
:102AF000F5FF0020FDF7F2FF2420FDF7EFFF002097
:102B0000FDF7ECFF2420FDF7E9FF0020FDF7E6FFCD
:102B10002320FDF7E3FF0020FDF7E0FFC420FDF7D1
:102B2000E7FF6220FDF7DAFF0020FDF7D7FF052061
:102B3000FDF7D4FF0020FDF7D1FF8420FDF7CEFF85
:102B40000020FDF7CBFFF020FDF7C8FF0020FDF7C8
:102B5000C5FF1820FDF7C2FF0020FDF7BFFFA4202E
:102B6000FDF7BCFF0020FDF7B9FF1820FDF7B6FF09
:102B70000020FDF7B3FF5020FDF7B0FF0020FDF768
:102B8000ADFF0C20FDF7AAFF0020FDF7A7FF1720DF
:102B9000FDF7A4FF0020FDF7A1FF9520FDF79EFFA4
:102BA0000020FDF79BFFF320FDF798FF0020FDF7C5
:102BB00095FFE620FDF792FF0020FDF78FFFC5206F
:102BC000FDF796FF3220FDF789FF0020FDF786FF15
:102BD0004420FDF783FF0020FDF780FF6520FDF70F
:102BE0007DFF0020FDF77AFF7620FDF777FF0020BC
:102BF000FDF774FF8820FDF771FF0020FDF76EFFE1
:102C0000C620FDF775FF2020FDF768FF0020FDF7C7
:102C100065FF1720FDF762FF0020FDF75FFF012031
:102C2000FDF75CFF0020FDF759FFC720FDF760FFAF
:102C30000020FDF753FF0020FDF750FF0020FDF7B7
:102C40004DFF0020FDF74AFFC820FDF751FF00208F
:102C5000FDF744FF0020FDF741FF0020FDF73EFF98
:102C60000020FDF73BFFC920FDF742FF0020FDF7E4
:102C700035FF0020FDF732FF0020FDF72FFF002079
:102C8000FDF72CFF0020FDF729FF0020FDF726FFB0
:102C90000020FDF723FF0020FDF720FF0020FDF7B7
:102CA0001DFF0020FDF71AFF0020FDF717FF002091
:102CB000FDF714FF0020FDF711FF0020FDF70EFFC8
:102CC0000020FDF70BFF0020FDF708FFE020FDF7D7
:102CD0000FFF1620FDF702FF0020FDF7FFFE1C206E
:102CE000FDF7FCFE0020FDF7F9FE2120FDF7F6FEC2
:102CF0000020FDF7F3FE3620FDF7F0FE0020FDF783
:102D0000EDFE4620FDF7EAFE0020FDF7E7FE52202B
:102D1000FDF7E4FE0020FDF7E1FE6420FDF7DEFE96
:102D20000020FDF7DBFE7A20FDF7D8FE0020FDF73E
:102D3000D5FE8B20FDF7D2FE0020FDF7CFFE9920B7
:102D4000FDF7CCFE0020FDF7C9FEA820FDF7C6FE6A
:102D50000020FDF7C3FEB920FDF7C0FE0020FDF7FF
:102D6000BDFEC420FDF7BAFE0020FDF7B7FECA2065
:102D7000FDF7B4FE0020FDF7B1FED220FDF7AEFE58
:102D80000020FDF7ABFED920FDF7A8FE0020FDF7DF
:102D9000A5FEE020FDF7A2FE0020FDF79FFEF32038
:102DA000FDF79CFE0020FDF799FEE120FDF7A0FE57
:102DB0001620FDF793FE0020FDF790FE1C20FDF786
:102DC0008DFE0020FDF78AFE2220FDF787FE002001
:102DD000FDF784FE3620FDF781FE0020FDF77EFE24
:102DE0004520FDF77BFE0020FDF778FE5220FDF721
:102DF00075FE0020FDF772FE6420FDF76FFE0020D7
:102E0000FDF76CFE7A20FDF769FE0020FDF766FEF7
:102E10008B20FDF763FE0020FDF760FE9920FDF793
:102E20005DFE0020FDF75AFEA820FDF757FE0020AA
:102E3000FDF754FEB920FDF751FE0020FDF74EFED0
:102E4000C420FDF74BFE0020FDF748FECA20FDF729
:102E500045FE0020FDF742FED220FDF73FFE002098
:102E6000FDF73CFED820FDF739FE0020FDF736FEC9
:102E7000E020FDF733FE0020FDF730FEF320FDF7E4
:102E80002DFE0020FDF72AFEE220FDF731FE052091
:102E9000FDF724FE0020FDF721FE0B20FDF71EFEAE
:102EA0000020FDF71BFE1B20FDF718FE0020FDF79C
:102EB00015FE3420FDF712FE0020FDF70FFE442022
:102EC000FDF70CFE0020FDF709FE4F20FDF706FE82
:102ED0000020FDF703FE6120FDF700FE0020FDF756
:102EE000FDFD7920FDF7FAFD0020FDF7F7FD8820B4
:102EF000FDF7F4FD0020FDF7F1FD9720FDF7EEFD55
:102F00000020FDF7EBFDA620FDF7E8FD0020FDF712
:102F1000E5FDB720FDF7E2FD0020FDF7DFFDC22053
:102F2000FDF7DCFD0020FDF7D9FDC720FDF7D6FD3C
:102F30000020FDF7D3FDD120FDF7D0FD0020FDF7E7
:102F4000CDFDD620FDF7CAFD0020FDF7C7FDDD2031
:102F5000FDF7C4FD0020FDF7C1FDF320FDF7BEFD28
:102F60000020FDF7BBFDE320FDF7C2FD0520FDF7C6
:102F7000B5FD0020FDF7B2FD0A20FDF7AFFD0020F2
:102F8000FDF7ACFD1C20FDF7A9FD0020FDF7A6FD17
:102F90003320FDF7A3FD0020FDF7A0FD4420FDF741
:102FA0009DFD0020FDF79AFD5020FDF797FD0020C4
:102FB000FDF794FD6220FDF791FD0020FDF78EFDE9
:102FC0007820FDF78BFD0020FDF788FD8820FDF7B8
:102FD00085FD0020FDF782FD9720FDF77FFD002095
:102FE000FDF77CFDA620FDF779FD0020FDF776FDBD
:102FF000B720FDF773FD0020FDF770FDC220FDF73F
:103000006DFD0020FDF76AFDC720FDF767FD00207C
:10301000FDF764FDD120FDF761FD0020FDF75EFDA9
:10302000D520FDF75BFD0020FDF758FDDD20FDF705
:1030300055FD0020FDF752FDF320FDF74FFD002068
:10304000FDF74CFDE420FDF753FD0120FDF746FDA3
:103050000020FDF743FD0120FDF740FD0020FDF7B6
:103060003DFD0220FDF73AFD0020FDF737FD2A2047
:10307000FDF734FD0020FDF731FD3C20FDF72EFD6E
:103080000020FDF72BFD4B20FDF728FD0020FDF76C
:1030900025FD5D20FDF722FD0020FDF71FFD7420BA
:1030A000FDF71CFD0020FDF719FD8420FDF716FD3E
:1030B0000020FDF713FD9320FDF710FD0020FDF724
:1030C0000DFDA220FDF70AFD0020FDF707FDB3204E
:1030D000FDF704FD0020FDF701FDBE20FDF7FEFC1D
:1030E0000020FDF7FBFCC420FDF7F8FC0020FDF7F5
:1030F000F5FCCD20FDF7F2FC0020FDF7EFFCD3201E
:10310000FDF7ECFC0020FDF7E9FCDD20FDF7E6FC17
:103110000020FDF7E3FCF320FDF7E0FC0020FDF7C5
:10312000DDFCE520FDF7E4FC0020FDF7D7FC0020E6
:10313000FDF7D4FC0020FDF7D1FC0020FDF7CEFC0C
:103140000220FDF7CBFC0020FDF7C8FC2920FDF78D
:10315000C5FC0020FDF7C2FC3C20FDF7BFFC0020B1
:10316000FDF7BCFC4B20FDF7B9FC0020FDF7B6FCD9
:103170005D20FDF7B3FC0020FDF7B0FC7420FDF7E7
:10318000ADFC0020FDF7AAFC8420FDF7A7FC002081
:10319000FDF7A4FC9320FDF7A1FC0020FDF79EFCA9
:1031A000A220FDF79BFC0020FDF798FCB320FDF763
:1031B00095FC0020FDF792FCBE20FDF78FFC00205F
:1031C000FDF78CFCC420FDF789FC0020FDF786FC90
:1031D000CD20FDF783FC0020FDF780FCD320FDF718
:1031E0007DFC0020FDF77AFCDC20FDF777FC002059
:1031F000FDF774FCF320FDF771FC0020FDF76EFC79
:10320000E620FDF775FC1120FDF768FC0020FDF7B6
:1032100065FC3420FDF762FC0020FDF75FFC5620C2
:10322000FDF75CFC0020FDF759FC7620FDF756FC0D
:103230000020FDF753FC7720FDF750FC0020FDF740
:103240004DFC6620FDF74AFC0020FDF747FC882076
:10325000FDF744FC0020FDF741FC9920FDF73EFC02
:103260000020FDF73BFCBB20FDF738FC0020FDF7FC
:1032700035FC9920FDF732FC0020FDF72FFC66207D
:10328000FDF72CFC0020FDF729FC5520FDF726FC5E
:103290000020FDF723FC5520FDF720FC0020FDF762
:1032A0001DFC4520FDF71AFC0020FDF717FC43200C
:1032B000FDF714FC0020FDF711FC4420FDF70EFC87
:1032C0000020FDF70BFCE720FDF712FC3220FDF794
:1032D00005FC0020FDF702FC5520FDF7FFFB002058
:1032E000FDF7FCFB7620FDF7F9FB0020FDF7F6FB70
:1032F0006620FDF7F3FB0020FDF7F0FB6720FDF7EC
:10330000EDFB0020FDF7EAFB6720FDF7E7FB00205F
:10331000FDF7E4FB8720FDF7E1FB0020FDF7DEFB76
:103320009920FDF7DBFB0020FDF7D8FBBB20FDF764
:10333000D5FB0020FDF7D2FB9920FDF7CFFB002045
:10334000FDF7CCFB7720FDF7C9FB0020FDF7C6FB9E
:103350004420FDF7C3FB0020FDF7C0FB5620FDF71E
:10336000BDFB0020FDF7BAFB2320FDF7B7FB0020D3
:10337000FDF7B4FB3320FDF7B1FB0020FDF7AEFBFA
:103380004520FDF7ABFB0020FDF7A8FBE820FDF78B
:10339000AFFB0020FDF7A2FB0020FDF79FFB99206B
:1033A000FDF79CFB0020FDF799FB8720FDF796FBBE
:1033B0000020FDF793FB8820FDF790FB0020FDF730
:1033C0008DFB7720FDF78AFB0020FDF787FB662049
:1033D000FDF784FB0020FDF781FB8820FDF77EFBD5
:1033E0000020FDF77BFBAA20FDF778FB0020FDF70E
:1033F00075FBBB20FDF772FB0020FDF76FFB9920EA
:10340000FDF76CFB0020FDF769FB6620FDF766FB0E
:103410000020FDF763FB5520FDF760FB0020FDF762
:103420005DFB5520FDF75AFB0020FDF757FB4420BC
:10343000FDF754FB0020FDF751FB4420FDF74EFB48
:103440000020FDF74BFB5520FDF748FB0020FDF762
:1034500045FBE920FDF74CFBAA20FDF73FFB0020D0
:10346000FDF73CFB0020FDF739FB0020FDF736FBA4
:103470000020FDF73DFBAA20FDF730FBCF20FDF734
:1034800037FB0020FDF72AFB0020FDF727FB00207B
:10349000FDF724FB0020FDF721FB0020FDF71EFBBC
:1034A0000020FDF71BFB0020FDF718FB0020FDF7B7
:1034B00015FB0020FDF712FB0020FDF70FFB00209D
:1034C000FDF70CFB0020FDF709FB0020FDF706FBD4
:1034D0000020FDF703FB0020FDF700FB0020FDF7B7
:1034E000FDFA0020FDF7FAFAF020FDF701FB0020BD
:1034F000FDF7F4FA5020FDF7F1FA0020FDF7EEFA9F
:103500000020FDF7EBFA0020FDF7E8FAF320FDF7C5
:10351000EFFA0020FDF7E2FAF920FDF7E9FA0620BC
:10352000FDF7DCFA1020FDF7D9FA2920FDF7D6FACD
:103530000020FDF7D3FA3A20FDF7DAFA5520FDF71F
:10354000CDFA1120FDF7D4FA642007F093FA292070
:10355000FDF7CEFA3520FDF7CBFA0020FDF7BEFAD5
:103560005120FDF7C5FAFF20FDF7B8FA5320FDF70B
:10357000BFFA2C20FDF7B2FA5520FDF7B9FA8220E8
:10358000FDF7ACFA2C20FDF7B3FA02F0E9B8FE48DB
:10359000808845F2105188427ED155214FF4704009
:1035A000FDF795FAAA214FF20100FDF790FA52219A
:1035B0004FF20200FDF78BFA08214FF20300FDF7EE
:1035C00086FA01214FF20400FDF781FA0D214FF434
:1035D0003040FDF77CFA0D214BF20100FDF777FA40
:1035E0000D214BF20200FDF772FA34214FF4364000
:1035F000FDF76DFA34214BF20160FDF768FA3421D2
:103600004BF20260FDF763FA0D214FF43140FDF7F4
:103610005EFA0D214BF20110FDF759FA0D214BF224
:103620000210FDF754FA34214FF43740FDF74FFAFA
:1036300034214BF20170FDF74AFA34214BF202704B
:10364000FDF745FA00214FF43240FDF740FA002122
:103650004BF20120FDF73BFA00214BF20220FDF76F
:1036600036FA24214FF43840FDF731FA24214BF685
:103670000100FDF72CFA24214BF60200FDF727FA92
:1036800001214FF43F40FDF722FA0F214FF4334060
:10369000FDF71DFA0F2100E0FEE34BF20130FDF7CC
:1036A00016FA0F214BF20230FDF711FA34214FF4D4
:1036B0003940FDF70CFA34214BF60110FDF707FAFB
:1036C00034214BF60210FDF702FA08214FF4354081
:1036D000FDF7FDF908214BF20150FDF7F8F908213B
:1036E0004BF20250FDF7F3F903214FF44240FDF78E
:1036F000EEF924214FF43A40FDF7E9F924214BF685
:103700000120FDF7E4F924214BF60220FDF7DFF953
:1037100000214FF43C40FDF7DAF978214BF60140E7
:10372000FDF7D5F900214BF60240FDF7D0F9002155
:103730004FF43D40FDF7CBF978214BF60150FDF7F2
:10374000C6F900214BF60250FDF7C1F900214FF4F4
:103750003E40FDF7BCF964214BF60160FDF7B7F977
:1037600000214FF45140FDF7B2F933214DF2011021
:10377000FDF7ADF900214DF20210FDF7A8F9342153
:103780004DF20310FDF7A3F900214DF20410FDF7EF
:103790009EF93A214DF20510FDF799F900214DF2FD
:1037A0000610FDF794F94A214DF20710FDF78FF945
:1037B00000214DF20810FDF78AF95C214DF2091045
:1037C000FDF785F900214DF20A10FDF780F98121FE
:1037D0004DF20B10FDF77BF900214DF20C10FDF7B7
:1037E00076F9A6214DF20D10FDF771F900214DF289
:1037F0000E10FDF76CF9E5214DF20F10FDF767F99A
:1038000001214DF21010FDF762F913214DF2111054
:10381000FDF75DF901214DF21210FDF758F9542121
:103820004DF21310FDF753F901214DF21410FDF77D
:103830004EF982214DF21510FDF749F901214DF2A3
:103840001610FDF744F9CA214DF21710FDF73FF9A4
:1038500002214DF21810FDF73AF900214DF219102E
:10386000FDF735F902214DF21A10FDF730F901216B
:103870004DF21B10FDF72BF902214DF21C10FDF744
:1038800026F934214DF21D10FDF721F902214DF2E8
:103890001E10FDF71CF967214DF21F10FDF717F9F7
:1038A00002214DF22010FDF712F984214DF2211072
:1038B000FDF70DF902214DF22210FDF708F9A421C0
:1038C0004DF22310FDF703F902214DF22410FDF70C
:1038D000FEF8B7214DF22510FDF7F9F802214DF25F
:1038E0002610FDF7F4F8CF214DF22710FDF7EFF881
:1038F00002214DF22810FDF7EAF8DE214DF22910E1
:10390000FDF7E5F802214DF22A10FDF7E0F8F2216B
:103910004DF22B10FDF7DBF802214DF22C10FDF7D4
:10392000D6F8FE214DF22D10FDF7D1F803214DF20E
:103930002E10FDF7CCF810214DF22F10FDF7C7F82F
:1039400003214DF23010FDF7C2F833214DF2311052
:10395000FDF7BDF803214DF23210FDF7B8F86D21E7
:103960004DF23310FDF7B3F800214FF45240FDF74C
:10397000AEF833214DF20120FDF7A9F800214DF2F8
:103980000220FDF7A4F801E04C0C002034214DF298
:103990000320FDF79CF800214DF20420FDF797F875
:1039A0003A214DF20520FDF792F800214DF2062054
:1039B000FDF78DF84A214DF20720FDF788F8002128
:1039C0004DF20820FDF783F85C214DF20920FDF748
:1039D0007EF800214DF20A20FDF779F881214DF2A1
:1039E0000B20FDF774F800214DF20C20FDF76FF865
:1039F000A6214DF20D20FDF76AF800214DF20E20B0
:103A0000FDF765F8E5214DF20F20FDF760F8012183
:103A10004DF21020FDF75BF813214DF21120FDF758
:103A200056F801214DF21220FDF751F854214DF2C4
:103A30001320FDF74CF801214DF21420FDF747F853
:103A400082214DF21520FDF742F801214DF216209A
:103A5000FDF73DF8CA214DF21720FDF738F8022195
:103A60004DF21820FDF733F800214DF21920FDF733
:103A70002EF802214DF21A20FDF729F801214DF20E
:103A80001B20FDF724F802214DF21C20FDF71FF842
:103A900034214DF21D20FDF71AF802214DF21E20AF
:103AA000FDF715F867214DF21F20FDF710F80221F0
:103AB0004DF22020FDF70BF884214DF22120FDF777
:103AC00006F802214DF22220FDF701F8A4214DF263
:103AD0002320FCF7FCFF02214DF22420FCF7F7FF26
:103AE000B7214DF22520FCF7F2FF02214DF22620EE
:103AF000FCF7EDFFCF214DF22720FCF7E8FF022174
:103B00004DF22820FCF7E3FFDE214DF22920FCF7DF
:103B1000DEFF02214DF22A20FCF7D9FFF2214DF2FF
:103B20002B20FCF7D4FF02214DF22C20FCF7CFFF15
:103B3000FE214DF22D20FCF7CAFF03214DF22E206D
:103B4000FCF7C5FF10214DF22F20FCF7C0FF032129
:103B50004DF23020FCF7BBFF33214DF23120FCF752
:103B6000B6FF03214DF23220FCF7B1FF6D214DF27B
:103B70003320FCF7ACFF00214FF45340FCF7A7FFC4
:103B800033214DF20130FCF7A2FF00214DF202304B
:103B9000FCF79DFF34214DF20330FCF798FF002124
:103BA0004DF20430FCF793FF3A214DF20530FCF75B
:103BB0008EFF00214DF20630FCF789FF4A214DF2BD
:103BC0000730FCF784FF00214DF20830FCF77FFF3F
:103BD0005C214DF20930FCF77AFF00214DF20A30EA
:103BE000FCF775FF81214DF20B30FCF770FF0021CF
:103BF0004DF20C30FCF76BFFA6214DF20D30FCF7B7
:103C000066FF00214DF20E30FCF761FFE5214DF219
:103C10000F30FCF75CFF01214DF21030FCF757FF2D
:103C200013214DF21130FCF752FF01214DF21230F9
:103C3000FCF74DFF54214DF21330FCF748FF0121F2
:103C40004DF21430FCF743FF82214DF21530FCF7A2
:103C50003EFF01214DF21630FCF739FFCA214DF22B
:103C60001730FCF734FF02214DF21830FCF72FFF1C
:103C700000214DF21930FCF72AFF02214DF21A30D3
:103C8000FCF725FF01214DF21B30FCF720FF02213C
:103C90004DF21C30FCF71BFF34214DF21D30FCF7B8
:103CA00016FF02214DF21E30FCF711FF67214DF285
:103CB0001F30FCF70CFF02214DF22030FCF707FF0C
:103CC00084214DF22130FCF702FF02214DF2223017
:103CD000FCF7FDFEA4214DF22330FCF7F8FE022193
:103CE0004DF22430FCF7F3FEB7214DF22530FCF7FE
:103CF000EEFE02214DF22630FCF7E9FECF214DF217
:103D00002730FCF7E4FE02214DF22830FCF7DFFEFD
:103D1000DE214DF22930FCF7DAFE02214DF22A3085
:103D2000FCF7D5FEF2214DF22B30FCF7D0FE02213C
:103D30004DF22C30FCF7CBFEFE214DF22D30FCF77E
:103D4000C6FE03214DF22E30FCF7C1FE10214DF2CC
:103D50002F30FCF7BCFE03214DF23030FCF7B7FEEC
:103D600033214DF23130FCF7B2FE03214DF23230F7
:103D7000FCF7ADFE6D214DF23330FCF7A8FE0021BB
:103D80004FF45440FCF7A3FE33214DF20140FCF701
:103D90009EFE00214DF20240FCF799FE34214DF2C7
:103DA0000340FCF794FE00214DF20440FCF78FFE27
:103DB0003A214DF20540FCF78AFE00214DF2064003
:103DC000FCF785FE4A214DF20740FCF780FE0021FA
:103DD0004DF20840FCF77BFE5C214DF20940FCF7F8
:103DE00076FE00214DF20A40FCF771FE81214DF272
:103DF0000B40FCF76CFE00214DF20C40FCF767FE17
:103E0000A6214DF20D40FCF762FE00214DF20E405E
:103E1000FCF75DFEE5214DF20F40FCF758FE012155
:103E20004DF21040FCF753FE13214DF21140FCF708
:103E30004EFE01214DF21240FCF749FE54214DF295
:103E40001340FCF744FE01214DF21440FCF73FFE05
:103E500082214DF21540FCF73AFE01214DF2164049
:103E6000FCF735FECA214DF21740FCF730FE022167
:103E70004DF21840FCF72BFE00214DF21940FCF7E3
:103E800026FE02214DF21A40FCF721FE01214DF2DF
:103E90001B40FCF71CFE00E004E302214DF21C4035
:103EA000FCF715FE34214DF21D40FCF710FE0221F7
:103EB0004DF21E40FCF70BFE67214DF21F40FCF750
:103EC00006FE02214DF22040FCF701FE84214DF256
:103ED0002140FCF7FCFD02214DF22240FCF7F7FDEA
:103EE000A4214DF22340FCF7F2FD02214DF22440C3
:103EF000FCF7EDFDB7214DF22540FCF7E8FD02216E
:103F00004DF22640FCF7E3FDCF214DF22740FCF7B0
:103F1000DEFD02214DF22840FCF7D9FDDE214DF2F5
:103F20002940FCF7D4FD02214DF22A40FCF7CFFDD9
:103F3000F2214DF22B40FCF7CAFD02214DF22C403C
:103F4000FCF7C5FDFE214DF22D40FCF7C0FD03211D
:103F50004DF22E40FCF7BBFD10214DF22F40FCF737
:103F6000B6FD03214DF23040FCF7B1FD33214DF297
:103F70003140FCF7ACFD03214DF23240FCF7A7FDC8
:103F80006D214DF23340FCF7A2FD00214FF4554066
:103F9000FCF79DFD33214DF20150FCF798FD002107
:103FA0004DF20250FCF793FD34214DF20350FCF723
:103FB0008EFD00214DF20450FCF789FD3A214DF2AF
:103FC0000550FCF784FD00214DF20650FCF77FFD03
:103FD0004A214DF20750FCF77AFD00214DF20850BE
:103FE000FCF775FD5C214DF20950FCF770FD0021D6
:103FF0004DF20A50FCF76BFD81214DF20B50FCF79E
:1040000066FD00214DF20C50FCF761FDA6214DF23A
:104010000D50FCF75CFD00214DF20E50FCF757FDF2
:10402000E5214DF20F50FCF752FD01214DF21050E9
:10403000FCF74DFD13214DF21150FCF748FD012115
:104040004DF21250FCF743FD54214DF21350FCF792
:104050003EFD01214DF21450FCF739FD82214DF255
:104060001550FCF734FD01214DF21650FCF72FFDE1
:10407000CA214DF21750FCF72AFD02214DF21850CB
:10408000FCF725FD00214DF21950FCF720FD02211F
:104090004DF21A50FCF71BFD01214DF21B50FCF7AD
:1040A00016FD02214DF21C50FCF711FD34214DF29A
:1040B0001D50FCF70CFD02214DF21E50FCF707FDD0
:1040C00067214DF21F50FCF702FD02214DF22050F6
:1040D000FCF7FDFC84214DF22150FCF7F8FC022195
:1040E0004DF22250FCF7F3FCA4214DF22350FCF7D3
:1040F000EEFC02214DF22450FCF7E9FCB7214DF211
:104100002550FCF7E4FC02214DF22650FCF7DFFCC1
:10411000CF214DF22750FCF7DAFC02214DF2285056
:10412000FCF7D5FCDE214DF22950FCF7D0FC022132
:104130004DF22A50FCF7CBFCF2214DF22B50FCF74C
:10414000C6FC02214DF22C50FCF7C1FCFE214DF2C1
:104150002D50FCF7BCFC03214DF22E50FCF7B7FCB0
:1041600010214DF22F50FCF7B2FC03214DF23050DC
:10417000FCF7ADFC33214DF23150FCF7A8FC0321D4
:104180004DF23250FCF7A3FC6D214DF23350FCF799
:104190009EFC00214FF45640FCF799FC33214DF270
:1041A0000160FCF794FC00214DF20260FCF78FFCEB
:1041B00034214DF20360FCF78AFC00214DF20460CB
:1041C000FCF785FC3A214DF20560FCF780FC0021EC
:1041D0004DF20660FCF77BFC4A214DF20760FCF7CC
:1041E00076FC00214DF20860FCF771FC5C214DF279
:1041F0000960FCF76CFC00214DF20A60FCF767FCDB
:1042000081214DF20B60FCF762FC00214DF20C6045
:10421000FCF75DFCA6214DF20D60FCF758FC002177
:104220004DF20E60FCF753FCE5214DF20F60FCF7F8
:104230004EFC01214DF21060FCF749FC13214DF2B8
:104240001160FCF744FC01214DF21260FCF73FFCC9
:1042500054214DF21360FCF73AFC01214DF2146039
:10426000FCF735FC82214DF21560FCF730FC012192
:104270004DF21660FCF72BFCCA214DF21760FCF7DB
:1042800026FC02214DF21860FCF721FC00214DF2C2
:104290001960FCF71CFC02214DF21A60FCF717FCB8
:1042A00001214DF21B60FCF712FC02214DF21C6053
:1042B000FCF70DFC34214DF21D60FCF708FC0221D7
:1042C0004DF21E60FCF703FC67214DF21F60FCF706
:1042D000FEFB02214DF22060FCF7F9FB84214DF238
:1042E0002160FCF7F4FB02214DF22260FCF7EFFBAA
:1042F000A4214DF22360FCF7EAFB02214DF2246079
:10430000FCF7E5FBB7214DF22560FCF7E0FB02214D
:104310004DF22660FCF7DBFBCF214DF22760FCF766
:10432000D6FB02214DF22860FCF7D1FBDE214DF2D5
:104330002960FCF7CCFB02214DF22A60FCF7C7FB99
:10434000F2214DF22B60FCF7C2FB02214DF22C60F2
:10435000FCF7BDFBFE214DF22D60FCF7B8FB0321FD
:104360004DF22E60FCF7B3FB10214DF22F60FCF7ED
:10437000AEFB03214DF23060FCF7A9FB33214DF277
:104380003160FCF7A4FB03214DF23260FCF79FFB88
:104390006D214DF23360FCF79AFB55214FF47040CC
:1043A000FCF795FBAA214FF20100FCF790FB52218C
:1043B0004FF20200FCF78BFB08214FF20300FCF7E1
:1043C00086FB00214FF20400FCF781FBCC214FF467
:1043D0003140FCF77CFB00214BF20110FCF777FB2E
:1043E00005214FF43640FCF772FB70214FF4374043
:1043F000FCF76DFB70214BF20170FCF768FB0121AB
:104400004FF43840FCF763FB03214BF60100FCF747
:104410005EFB03214BF60200FCF759FB03214BF630
:104420000300FCF754FB02214FF43C40FCF74FFB28
:1044300000214BF60140FCF74AFB00214BF60240FD
:10444000FCF745FBD0214FF44940FCF740FB02212B
:104450004CF60110FCF73BFB50214CF60210FCF728
:1044600036FB50214CF60310FCF731FB50214CF683
:104470000410FCF72CFB00214FF45450FCF727FBF1
:1044800055214FF46850FCF722FB4FF48850FCF79D
:104490002FFB782006F0C4FA4FF42450FCF728FBD9
:1044A00001F05EB9FE48808849F2253188427DD10D
:1044B00047F6F001E520FCF70AFB4FF4807101207C
:1044C000FCF705FB4FF4E0610220FCF700FB41F232
:1044D00030010320FCF7FBFA00210420FCF7F7FA77
:1044E00040F202210820FCF7F2FA00210920FCF733
:1044F000EEFA00210A20FCF7EAFA00210C20FCF772
:10450000E6FA00210D20FCF7E2FA00210F20FCF76B
:10451000DEFA00211020FCF7DAFA07211120FCF75F
:10452000D6FA00211220FCF7D2FA00211320FCF762
:10453000CEFA00210720FCF7CAFA41F29061102060
:10454000FCF7C5FA40F227211120FCF7C0FA9D21A3
:104550001220FCF7BCFA4FF4C8511320FCF7B7FA4D
:1045600025212920FCF7B3FA0D212B20FCF7AFFA07
:1045700007213020FCF7ABFA40F203313120FCF781
:10458000A6FA03213220FCF7A2FA40F206213520D8
:10459000FCF79DFA08213620FCF799FA40F2064113
:1045A0003720FCF794FA4FF4417100E058E03820CE
:1045B000FCF78DFA07213920FCF789FA40F20261F5
:1045C0003C20FCF784FA08213D20FCF780FA00210A
:1045D0005020FCF77CFAEF215120FCF778FA0021FB
:1045E0005220FCF774FA40F23F115320FCF76FFAA7
:1045F0004FF427416020FCF76AFA01216120FCF7A3
:1046000066FA00216A20FCF762FA00218020FCF79C
:104610005EFA00218120FCF75AFA00218220FCF783
:1046200056FA00218320FCF752FA00218420FCF77F
:104630004EFA00218520FCF74AFA10219020FCF761
:1046400046FA4FF4C0619220FCF741FA40F2331170
:104650000720FCF73CFA22210020FCF738FA1FE77C
:104660008F48808849F2283188427DD141F28F01FC
:10467000EC20FCF72CFA41F23421EF20FCF727FA6A
:104680004FF480710120FCF722FA4FF4E061022020
:10469000FCF71DFA41F230010320FCF718FA002163
:1046A0000420FCF714FA40F202210820FCF70FFA6C
:1046B00000210920FCF70BFA00210A20FCF707FA79
:1046C00001210C20FCF703FA00210D20FCF7FFF973
:1046D00000210F20FCF7FBF900211020FCF7F7F96F
:1046E00007211120FCF7F3F900211220FCF7EFF964
:1046F00000211320FCF7EBF901210720FCF7E7F973
:10470000322006F0B7F941F290411020FCF7DFF9B2
:1047100040F227211120FCF7DAF9322006F0AAF93D
:104720008A211220FCF7D3F9322006F0A3F94FF4C6
:10473000D0511320FCF7CBF906212920FCF7C7F94B
:104740000D212B20FCF7C3F9322006F093F900214C
:104750002020FCF7BCF900212120FCF7B8F9322019
:1047600006F088F9002100E075E03020FCF7AFF991
:1047700040F204613120FCF7AAF940F20531322001
:10478000FCF7A5F900213520FCF7A1F940F6094115
:104790003620FCF79CF94FF401713720FCF797F9AC
:1047A00040F201313820FCF792F940F207713920CC
:1047B000FCF78DF900213C20FCF789F940F60A212D
:1047C0003D20FCF784F9322006F054F900215020F6
:1047D000FCF77DF9EF215120FCF779F900215220F7
:1047E000FCF775F940F23F115320FCF770F94FF4D4
:1047F00027416020FCF76BF901216120FCF767F984
:1048000000216A20FCF763F900218020FCF75FF9A2
:1048100000218120FCF75BF900218220FCF757F989
:1048200000218320FCF753F900218420FCF74FF985
:1048300000218520FCF74BF910219020FCF747F967
:104840004FF4C0619220FCF742F940F23311072087
:10485000FCF73DF924E61248808849F2203188426D
:104860007ED100210846FCF732F94FF48071012017
:10487000FCF72DF94FF4E0610220FCF728F941F232
:1048800030010320FCF723F900210420FCF71FF975
:1048900040F202210820FCF71AF90021092001E06A
:1048A0004C0C0020FCF713F900210A20FCF70FF94B
:1048B00001210C20FCF70BF900210D20FCF707F972
:1048C00000210F20FCF703F9322006F0D3F840F264
:1048D00001110720FCF7FBF8322006F0CBF84FF46B
:1048E00086511020FCF7F3F807211120FCF7EFF8B0
:1048F0004FF488711220FCF7EAF84FF4306113206E
:10490000FCF7E5F800212920FCF7E1F844F210015A
:104910002B20FCF7DCF800215020FCF7D8F8EF2121
:104920005120FCF7D4F800215220FCF7D0F840F2D7
:104930003F115320FCF7CBF84FF41C516020FCF7DB
:10494000C6F801216120FCF7C2F800216A20FCF7BB
:10495000BEF800218020FCF7BAF80021812000E099
:1049600030E0FCF7B4F800218220FCF7B0F8002119
:104970008320FCF7ACF800218420FCF7A8F8002184
:104980008520FCF7A4F810219020FCF7A0F8002166
:104990009220FCF79CF801219320FCF798F84FF443
:1049A00088719520FCF793F800219720FCF78FF889
:1049B00000219820FCF78BF840F273110720FCF7D8
:1049C00086F86DE5FE48808849F2313188427DD114
:1049D00041F21401E720FCF77AF84FF480710120CE
:1049E000FCF775F84FF400710220FCF770F841F203
:1049F00038010320FCF76BF840F202210820FCF795
:104A000066F800210920FCF762F800210A20FCF773
:104A10005EF800210C20FCF75AF800210D20FCF76D
:104A200056F800210F20FCF752F800211020FCF767
:104A30004EF807211120FCF74AF800211220FCF75C
:104A400046F800211320FCF742F8C82006F012F8BF
:104A500041F290611020FCF73AF840F22721112032
:104A6000FCF735F8322006F005F80C211220FCF78F
:104A70002EF8322005F0FEFF4FF400611320FCF702
:104A800026F811212920FCF722F80B212B20FCF716
:104A90001EF8322005F0EEFF00212020FCF717F869
:104AA00040F23F112120FCF712F800213020FCF7E2
:104AB0000EF84FF483713120FCF709F80021322001
:104AC000FCF705F84FF40171352000E064E0FBF7D6
:104AD000FEFF41F20A613620FBF7F9FF40F2077151
:104AE0003720FBF7F4FF4FF483713820FBF7EFFF1B
:104AF00040F207713920FBF7EAFF40F202413C2007
:104B0000FBF7E5FF40F60F413D20FBF7E0FF0021FA
:104B10005020FBF7DCFFEF215120FBF7D8FF0021ED
:104B20005220FBF7D4FF40F23F115320FBF7CFFF99
:104B30004FF41C516020FBF7CAFF01216120FBF7F5
:104B4000C6FF00216A20FBF7C2FF00218020FBF78F
:104B5000BEFF00218120FBF7BAFF00218220FBF776
:104B6000B6FF00218320FBF7B2FF00218420FBF772
:104B7000AEFF00218520FBF7AAFF10219020FBF754
:104B8000A6FF4FF4C0619220FBF7A1FF40F2331162
:104B90000720FBF79CFF83E48948808845F20841A1
:104BA00088427DD14FF480710120FBF790FF4FF4D4
:104BB000E0610220FBF78BFF41F230010320FBF79D
:104BC00086FF00210420FBF782FF40F20721082026
:104BD000FBF77DFF00210920FBF779FF00210A2068
:104BE000FBF775FF00210C20FBF771FF00210D2062
:104BF000FBF76DFF00210F20FBF769FF142005F084
:104C000039FF41F2B0611020FBF761FF0121112053
:104C1000FBF75DFF01211720FBF759FF4FF49C7153
:104C20001220FBF754FF4FF400611320FBF74FFFF6
:104C300009212920FBF74BFF09212A20FBF747FF19
:104C40000021A420FBF743FF00215020FBF73FFF8A
:104C5000EF215120FBF73BFF00215220FBF737FFEC
:104C600040F23F115320FBF732FF4FF41C516020FC
:104C7000FBF72DFF01216120FBF729FF00216A20AE
:104C8000FBF725FF00218020FBF721FF0021812079
:104C9000FBF71DFF00218220FBF719FF002100E038
:104CA00024E08320FBF713FF00218420FBF70FFF94
:104CB00000218520FBF70BFF13219020FBF707FF56
:104CC00000219220FBF703FF03219320FBF7FFFE57
:104CD0004FF488719520FBF7FAFE40F2731107201C
:104CE000FBF7F5FE322005F0C5FEB8E434488088B5
:104CF00041F2055188427DD100210720FBF7E7FEF4
:104D0000322005F0B7FE4FF48E711220FBF7DFFE64
:104D10000121A420FBF7DBFE0F210820FBF7D7FEC3
:104D200008210A20FBF7D3FE08210D20FBF7CFFE58
:104D300040F207713020FBF7CAFE07213120FBF754
:104D4000C6FE40F203613220FBF7C1FE4FF4E06182
:104D50003320FBF7BCFE40F202213420FBF7B7FE04
:104D600002213520FBF7B3FE41F60F713620FBF729
:104D7000AEFE40F207713720FBF7A9FE0021382074
:104D8000FBF7A5FE00213920FBF7A1FE40F20771D9
:104D90003A20FBF79CFE00213B20FBF798FE072101
:104DA0003C20FBF794FE00213D20FBF790FE3220D3
:104DB00005F060FE01210720FBF789FE012101E0DB
:104DC0004C0C00201720FBF782FE322005F052FE2B
:104DD0004FF4BD511020FBF77AFE40F2172111204D
:104DE000FBF775FE4FF48F711220FBF770FE4FF446
:104DF000706100E098E01320FBF769FE00212A2093
:104E0000FBF765FE0A212920FBF761FE4FF49F7135
:104E10001220FBF75CFE00215020FBF758FEEF212B
:104E20005120FBF754FE00215220FBF750FE40F2C8
:104E30003F115320FBF74BFE4FF41C516020FBF752
:104E400046FE01216120FBF742FE00216A20FBF7AC
:104E50003EFE00218020FBF73AFE00218120FBF777
:104E600036FE00218220FBF732FE00218320FBF773
:104E70002EFE00218420FBF72AFE00218520FBF76F
:104E800026FE13219020FBF722FE4FF44071922062
:104E9000FBF71DFE05219320FBF719FE002195204D
:104EA000FBF715FE00219720FBF711FE002198204B
:104EB000FBF70DFE4FF480710120FBF708FE4FF465
:104EC000E0610220FBF703FE41F238010320FBF70B
:104ED000FEFD00210420FBF7FAFD00210C20FBF76A
:104EE000F6FD00210F20FBF7F2FD00212020FBF74B
:104EF000EEFD00212120FBF7EAFD21210720FBF731
:104F0000E6FD142005F0B6FD61210720FBF7DFFD6B
:104F1000142005F0AFFD40F273110720FBF7D7FD19
:104F2000142005F0A7FD95E4FE4880884BF205515A
:104F300088427CD100210846FBF7C9FD00210846C4
:104F4000FBF7C5FD00210846FBF7C1FD002108461F
:104F5000FBF7BDFD0121A420FBF7B9FD142005F0EE
:104F600089FD4FF41C516020FBF7B1FD40F2022196
:104F70000820FBF7ACFD4FF405713020FBF7A7FDCF
:104F800043F215713120FBF7A2FD40F2046132209B
:104F9000FBF79DFD40F616613320FBF798FD42F2CA
:104FA00011213420FBF793FD4FF4A8513520FBF776
:104FB0008EFD48F207513620FBF789FD41F207418B
:104FC0003720FBF784FD41F203413820FBF77FFDDA
:104FD00020213920FBF77BFD1A219020FBF777FD7C
:104FE00000211020FBF773FD07211120FBF76FFD57
:104FF00000211220FBF76BFD00211320FBF767FD5A
:10500000142005F037FD4FF4E6611020FBF75FFD3B
:1050100040F237111120FBF75AFD142005F02AFD4C
:105020004FF4DC711220FBF752FD142000E085E004
:1050300005F020FD4FF470611320FBF748FD80213F
:105040002A20FBF744FD48212920FBF740FD1420CE
:1050500005F010FD4FF480710120FBF738FD4FF48F
:10506000E0610220FBF733FD41F238010320FBF73A
:105070002EFD40F202210820FBF729FD00210A2025
:10508000FBF725FD00210C20FBF721FD00210D2061
:10509000FBF71DFD30210E20FBF719FD00215020EC
:1050A000FBF715FDEF215120FBF711FD00215220E8
:1050B000FBF70DFD40F23F115320FBF708FD4FF4C5
:1050C0001C516020FBF703FD01216120FBF7FFFC71
:1050D00000216A20FBF7FBFC11219020FBF7F7FC75
:1050E0004FF4C0619220FBF7F2FC40F202419320A2
:1050F000FBF7EDFC02219420FBF7E9FC142005F0FE
:10510000B9FC01210720FBF7E2FC142005F0B2FCFA
:1051100061210720FBF7DBFC40F273110720FBF74E
:10512000D6FC00212020FBF7D2FC00212120FBF738
:10513000CEFC22210020FBF7CAFC11E379488088CD
:105140004CF2055188427CD100210846FBF7BFFC98
:1051500000210846FBF7BBFC142005F08BFC002166
:105160000846FBF7B4FC00210846FBF7B0FC002121
:105170000846FBF7ACFC00210846FBF7A8FC012120
:10518000A420FBF7A4FC142005F074FC4FF41C5180
:105190006020FBF79CFC40F606010820FBF797FC1B
:1051A00040F203713020FBF792FC01213120FBF724
:1051B0008EFC04213220FBF78AFC4FF481713320EE
:1051C000FBF785FC4FF440713420FBF780FC40F284
:1051D00003113520FBF77BFC1F213620FBF777FC02
:1051E00040F203713720FBF772FC01213820FBF7F6
:1051F0006EFC04213920FBF76AFC15219020FBF797
:1052000066FC4FF482611020FBF761FC40F24721FD
:105210001120FBF75CFC4FF4DE711220FBF757FC0A
:105220004FF460611320FBF752FC782005F022FC5C
:105230004FF480710120FBF74AFC4FF4007102200B
:1052400000E052E0FBF743FC41F230010320FBF7A2
:105250003EFC08210A20FBF73AFC00210C20FBF75A
:1052600036FC20210E20FBF732FC00210F20FBF73B
:105270002EFC00212020FBF72AFC00212120FBF737
:1052800026FC3D212A20FBF722FC142005F0F2FB2E
:105290002D212920FBF71BFC00215020FBF717FCD8
:1052A0004DF2EF015120FBF712FC00215220FBF7D9
:1052B0000EFC40F23F115320FBF709FC0021612056
:1052C000FBF705FC00216A20FBF701FC4FF440715D
:1052D0009220FBF7FCFB05219320FBF7F8FB4FF432
:1052E00080710720FBF7F3FB3AE20E48808844F216
:1052F000315188427ED101210020FBF7E8FB0A20D2
:1053000005F0B8FB41F228611020FBF7E0FB0E210D
:105310001220FBF7DCFB40F639211320FBF7D7FB0B
:105320000A2001E04C0C002005F0A4FB40211120D4
:10533000FBF7CDFB50211520FBF7C9FB0A2005F038
:1053400099FB1E211220FBF7C2FB0A2005F092FBFD
:105350004FF4B1511020FBF7BAFB42F6392113206C
:10536000FBF7B5FB0A2005F085FB4FF480710120A7
:10537000FBF7ADFB4FF440710220FBF7A8FB41F2B5
:1053800038010320FBF7A3FB40F202210820FBF7C2
:105390009EFB08210A20FBF79AFB00213020FBF737
:1053A00096FB40F202413120FBF791FB4FF48371F1
:1053B0003220FBF78CFB40F203513320FBF787FBD5
:1053C0004FF482713420FBF782FB40F2013135202B
:1053D000FBF77DFB40F207713620FBF778FB40F2CC
:1053E00005313720FBF773FB4FF402713820FBF7D0
:1053F0006EFB00E03EE040F60B713920FBF767FBE7
:1054000002214120FBF763FB4FF41C516020FBF7A6
:105410005EFB01216120FBF75AFB4FF404719020E1
:10542000FBF755FB4FF485719220FBF750FB0421ED
:105430009320FBF74CFB4FF48071A020FBF747FB58
:1054400001210720FBF743FB21210720FBF73FFB4E
:1054500023210720FBF73BFB33210720FBF737FB1A
:1054600040F233110720FBF732FB0021A020FBF7AD
:105470002EFB75E1FE48808844F2355188427CD18C
:1054800030211520FBF723FB10219A20FBF71FFB8F
:1054900020211120FBF71BFB43F228411020FBF7D2
:1054A00016FB02211220FBF712FB41F238011320F8
:1054B000FBF70DFB282005F0DDFA12210846FBF76B
:1054C00006FB282005F0D6FA43F220411020FBF716
:1054D000FEFA43F238011320FBF7F9FA462005F0F3
:1054E000C9FA00213020FBF7F2FA40F202413120E4
:1054F000FBF7EDFA40F207313220FBF7E8FA4FF400
:1055000041713320FBF7E3FA04213420FBF7DFFA83
:1055100040F201413520FBF7DAFA40F207713620FC
:10552000FBF7D5FA40F205313720FBF7D0FA4FF4FC
:10553000C2613820FBF7CBFA4FF4C2613920FBF788
:10554000C6FA4FF480710120FBF7C1FA4FF44071A5
:105550000220FBF7BCFA41F230010320FBF7B7FA57
:1055600040F608010820FBF7B2FA08210A20FBF7F1
:10557000AEFA4FF41C51602000E033E0FBF7A7FACD
:1055800001216120FBF7A3FA4FF49F719020FBF7F4
:105590009EFA4FF480719220FBF799FA4FF48071D4
:1055A0009320FBF794FA4FF44051A020FBF78FFAB9
:1055B0001021A320FBF78BFA01210720FBF787FAC4
:1055C00021210720FBF783FA23210720FBF77FFA2D
:1055D00033210720FBF77BFA40F233110720FBF75A
:1055E00076FABDE0A248808841F663118842F8D17E
:1055F000E220FBF77DFA1D20FBF770FA0220FBF793
:105600006DFA0420FBF76AFA642005F009FAE0203D
:10561000FBF76EFA0120FBF761FA0A2005F02AFA7F
:10562000E020FBF765FA0320FBF758FA0C2005F0A1
:1056300021FA0120FBF75CFA0A2005F01BFAE620AC
:10564000FBF756FA2F20FBF749FAFF20FBF746FA43
:10565000FF20FBF743FAB020FBF74AFA2020FBF7C4
:105660003DFA0020FBF73AFA0320FBF737FA40F245
:105670001F30FBF733FA0120FBF730FA40F2DF105E
:10568000FBF72CFA0020FBF729FAB420FBF730FADD
:105690000420FBF723FA40F21F40FBF71FFA00201B
:1056A000FBF71CFA2E20FBF719FA0020FBF716FA7D
:1056B0000020FBF713FA0020FBF710FA0020FBF79D
:1056C0000DFAB620FBF714FA0220FBF707FA4FF4A5
:1056D0000370FBF703FA0020FBF700FA1720FBF733
:1056E000FDF91520FBF7FAF90020FBF7F7F9002088
:1056F000FBF7F4F9F020FBF7FBF90320FBF7EEF9D9
:105700002920FBF7F5F9D020FBF7F2F90020FBF791
:10571000E5F9BE20FBF7ECF90520FBF7DFF9FE20E9
:10572000FBF7DCF90120FBF7D9F90020FBF7D6F9EC
:105730000020FBF7D3F90020FBF7D0F9B820FBF7E6
:10574000D7F90320FBF7CAF90120FBF7C7F9BA2004
:10575000FBF7CEF90120FBF7C1F96420FCF73BF918
:105760000020FCF764F90120424908604FF6FF7001
:10577000FBF798FA21B000BD2DE9F84F07460D461A
:1057800090469946DDF828B0A8EB0700401C1FFAA8
:1057900080FAA9EB0500401C80B20090002414E0C0
:1057A000281981B23846FBF7ACF9FBF78BF90026D4
:1057B00007E004FB0A603BF810002F490880701CCA
:1057C00086B25645F5DB601C84B200988442E7DB64
:1057D000BDE8F88F2DE9FF4F84B081468A4600204E
:1057E000039002900698A0EB09050798A0EB0A0623
:1057F000CDF80490CDF800A0002D01DD012705E0D3
:105800000DB9002702E04FF0FF376D42002E02DD98
:105810004FF0010806E016B94FF0000802E04FF023
:10582000FF387642B54201DD2C4600E034464FF0A9
:10583000000B28E0009A91B2019A90B2FCF701F8AF
:105840000398284403900298304402900398A042A1
:1058500005DD0398001B03900198384401900298DD
:10586000A0420CDD0298001B02900098404405E025
:105870004C0C0020BC8240428000006C00900BF178
:1058800001001FFA80FB601C8345D3DD08B0BDE832
:10589000F08FF0B504460D4616461F462B4632469D
:1058A00029462046FFF796FF3B46224629462046DA
:1058B000FFF790FF3B46324639462046FFF78AFF06
:1058C0003B46324629463046FFF784FFF0BD2DE9BE
:1058D000F04306460F469046002445460320A0EBC1
:1058E00048093CE07A1B91B2321990B2FBF7A9FF4C
:1058F0003A1B91B2721990B2FBF7A3FF3A1991B219
:10590000721990B2FBF79DFF7A1991B2321990B2D9
:10591000FBF797FF7A1991B2321B90B2FBF791FF18
:105920003A1991B2721B90B2FBF78BFF7A1B91B2BE
:10593000321B90B2FBF785FF3A1B91B2721B90B2FB
:10594000FBF77FFF641CB9F1000F03DAA000801D94
:10595000814404E0601B80000A3081446D1EAC422B
:10596000C0DDBDE8F0832DE9F84F80460E461746AE
:105970001C46B3462046E31704EB5373DB10214665
:105980004FEAE47C04EB5C7C4FEAEC0CA4EBCC0C1F
:10599000BCF1000F02D04FF0010C01E04FF0000C01
:1059A0006344224604EBD27C4FEA6C0C03FB0CF3FD
:1059B000DBB20093A7F12000C7B2002556E00C2C03
:1059C00007D107EB47009F4901EB800010F80590D5
:1059D00013E0102C05D19C4800EB071010F805903F
:1059E0000BE0182C07D107EBC700984901EB8000AA
:1059F00010F8059001E0BDE8F88F4FF0000A2FE0A5
:105A000009F0800030B19248028831464046FBF7E9
:105A100026FF07E00A9828B98E480288314640469A
:105A2000FBF71DFF4FEA49604FEA1069701C86B210
:105A300089484088B04200DCDDE7A6EB0B00A042BD
:105A40000AD15E4608F101001FFA80F882480088FA
:105A5000404500DCCFE706E00AF1010000F0FF0A54
:105A6000BAF1080FCCDB00BF681CC5B200988542B4
:105A7000A5DB00BFBFE710B50246012000E05043A0
:105A80000B00A1F10104E1B2F9D110BD2DE9FF4FE6
:105A900081B0074691461E460E9D4FF0000A002435
:105AA00039E0301B401EC1B20A20FFF7E4FFB9FB0A
:105AB000F0F00A21B0FBF1F201FB1208BAF1000F7D
:105AC00016D1701EA04213DDB8F1000F0ED10020D8
:105AD000AB4605EBDB71491001FB0471009088B205
